{
	"contracts/App.sol": {
		"VotingSystem": {
			"abi": [
				{
					"anonymous": false,
					"inputs": [
						{
							"indexed": false,
							"internalType": "string",
							"name": "errorMessage",
							"type": "string"
						}
					],
					"name": "ErrorOccurred",
					"type": "event"
				},
				{
					"inputs": [
						{
							"internalType": "bytes32",
							"name": "_electionID",
							"type": "bytes32"
						},
						{
							"internalType": "address",
							"name": "_candidateAddr",
							"type": "address"
						}
					],
					"name": "addCandidateToElection",
					"outputs": [],
					"stateMutability": "nonpayable",
					"type": "function"
				},
				{
					"inputs": [
						{
							"internalType": "string",
							"name": "_username",
							"type": "string"
						},
						{
							"internalType": "string",
							"name": "_password",
							"type": "string"
						}
					],
					"name": "authenticate",
					"outputs": [
						{
							"internalType": "bool",
							"name": "",
							"type": "bool"
						}
					],
					"stateMutability": "view",
					"type": "function"
				},
				{
					"inputs": [
						{
							"internalType": "uint256",
							"name": "",
							"type": "uint256"
						}
					],
					"name": "candidateAddresses",
					"outputs": [
						{
							"internalType": "address",
							"name": "",
							"type": "address"
						}
					],
					"stateMutability": "view",
					"type": "function"
				},
				{
					"inputs": [
						{
							"internalType": "uint256",
							"name": "_startDate",
							"type": "uint256"
						},
						{
							"internalType": "uint256",
							"name": "_endDate",
							"type": "uint256"
						},
						{
							"internalType": "address[]",
							"name": "_candidateAddresses",
							"type": "address[]"
						}
					],
					"name": "createElection",
					"outputs": [],
					"stateMutability": "nonpayable",
					"type": "function"
				},
				{
					"inputs": [],
					"name": "electionCounter",
					"outputs": [
						{
							"internalType": "bytes32",
							"name": "",
							"type": "bytes32"
						}
					],
					"stateMutability": "view",
					"type": "function"
				},
				{
					"inputs": [
						{
							"internalType": "address[]",
							"name": "_candidateAddresses",
							"type": "address[]"
						},
						{
							"internalType": "address",
							"name": "_candidateAddress",
							"type": "address"
						}
					],
					"name": "findCandidateIndexv3",
					"outputs": [
						{
							"internalType": "uint256",
							"name": "",
							"type": "uint256"
						}
					],
					"stateMutability": "pure",
					"type": "function"
				},
				{
					"inputs": [
						{
							"internalType": "address",
							"name": "_candidateAddr",
							"type": "address"
						}
					],
					"name": "getCandidate",
					"outputs": [
						{
							"components": [
								{
									"internalType": "string",
									"name": "name",
									"type": "string"
								},
								{
									"internalType": "string",
									"name": "party",
									"type": "string"
								},
								{
									"internalType": "string",
									"name": "campaignMessage",
									"type": "string"
								}
							],
							"internalType": "struct VotingSystem.Candidate",
							"name": "",
							"type": "tuple"
						}
					],
					"stateMutability": "view",
					"type": "function"
				},
				{
					"inputs": [
						{
							"internalType": "uint256",
							"name": "_index",
							"type": "uint256"
						}
					],
					"name": "getCandidateAddress",
					"outputs": [
						{
							"internalType": "address",
							"name": "",
							"type": "address"
						}
					],
					"stateMutability": "view",
					"type": "function"
				},
				{
					"inputs": [
						{
							"internalType": "bytes32",
							"name": "_electionID",
							"type": "bytes32"
						}
					],
					"name": "getCandidateAddressesForElection",
					"outputs": [
						{
							"internalType": "address[]",
							"name": "",
							"type": "address[]"
						}
					],
					"stateMutability": "view",
					"type": "function"
				},
				{
					"inputs": [
						{
							"internalType": "string",
							"name": "_name",
							"type": "string"
						}
					],
					"name": "getCandidateByName",
					"outputs": [
						{
							"internalType": "address",
							"name": "",
							"type": "address"
						}
					],
					"stateMutability": "view",
					"type": "function"
				},
				{
					"inputs": [],
					"name": "getNumCandidates",
					"outputs": [
						{
							"internalType": "uint256",
							"name": "",
							"type": "uint256"
						}
					],
					"stateMutability": "view",
					"type": "function"
				},
				{
					"inputs": [],
					"name": "getResults",
					"outputs": [
						{
							"components": [
								{
									"internalType": "string",
									"name": "name",
									"type": "string"
								},
								{
									"internalType": "string",
									"name": "party",
									"type": "string"
								},
								{
									"internalType": "string",
									"name": "campaignMessage",
									"type": "string"
								}
							],
							"internalType": "struct VotingSystem.Candidate[]",
							"name": "",
							"type": "tuple[]"
						}
					],
					"stateMutability": "view",
					"type": "function"
				},
				{
					"inputs": [
						{
							"internalType": "bytes32",
							"name": "_electionID",
							"type": "bytes32"
						}
					],
					"name": "getResultsFromElection",
					"outputs": [
						{
							"components": [
								{
									"internalType": "string",
									"name": "name",
									"type": "string"
								},
								{
									"internalType": "string",
									"name": "party",
									"type": "string"
								},
								{
									"internalType": "string",
									"name": "campaignMessage",
									"type": "string"
								}
							],
							"internalType": "struct VotingSystem.Candidate[]",
							"name": "",
							"type": "tuple[]"
						},
						{
							"internalType": "uint256[]",
							"name": "",
							"type": "uint256[]"
						}
					],
					"stateMutability": "view",
					"type": "function"
				},
				{
					"inputs": [
						{
							"internalType": "bytes32",
							"name": "_electionId",
							"type": "bytes32"
						},
						{
							"internalType": "address",
							"name": "_voterAddress",
							"type": "address"
						}
					],
					"name": "hasVoted",
					"outputs": [
						{
							"internalType": "bool",
							"name": "",
							"type": "bool"
						}
					],
					"stateMutability": "view",
					"type": "function"
				},
				{
					"inputs": [
						{
							"internalType": "string",
							"name": "_username",
							"type": "string"
						},
						{
							"internalType": "string",
							"name": "_password",
							"type": "string"
						}
					],
					"name": "register",
					"outputs": [],
					"stateMutability": "nonpayable",
					"type": "function"
				},
				{
					"inputs": [
						{
							"internalType": "string",
							"name": "_name",
							"type": "string"
						},
						{
							"internalType": "string",
							"name": "_party",
							"type": "string"
						},
						{
							"internalType": "string",
							"name": "_campaignMessage",
							"type": "string"
						}
					],
					"name": "registerCandidate",
					"outputs": [],
					"stateMutability": "nonpayable",
					"type": "function"
				},
				{
					"inputs": [
						{
							"internalType": "bytes32",
							"name": "_electionId",
							"type": "bytes32"
						},
						{
							"internalType": "address",
							"name": "_voterAddress",
							"type": "address"
						},
						{
							"internalType": "address",
							"name": "_candidateAddress",
							"type": "address"
						}
					],
					"name": "vote",
					"outputs": [],
					"stateMutability": "nonpayable",
					"type": "function"
				}
			],
			"devdoc": {
				"kind": "dev",
				"methods": {},
				"version": 1
			},
			"evm": {
				"assembly": "    /* \"contracts/App.sol\":147:7331  contract VotingSystem {... */\n  mstore(0x40, 0x80)\n  callvalue\n  dup1\n  iszero\n  tag_1\n  jumpi\n  0x00\n  dup1\n  revert\ntag_1:\n  pop\n  dataSize(sub_0)\n  dup1\n  dataOffset(sub_0)\n  0x00\n  codecopy\n  0x00\n  return\nstop\n\nsub_0: assembly {\n        /* \"contracts/App.sol\":147:7331  contract VotingSystem {... */\n      mstore(0x40, 0x80)\n      callvalue\n      dup1\n      iszero\n      tag_1\n      jumpi\n      0x00\n      dup1\n      revert\n    tag_1:\n      pop\n      jumpi(tag_2, lt(calldatasize, 0x04))\n      shr(0xe0, calldataload(0x00))\n      dup1\n      0x7def7fe1\n      gt\n      tag_20\n      jumpi\n      dup1\n      0xb7adcf1d\n      gt\n      tag_21\n      jumpi\n      dup1\n      0xb7adcf1d\n      eq\n      tag_15\n      jumpi\n      dup1\n      0xbad04632\n      eq\n      tag_16\n      jumpi\n      dup1\n      0xd55d73c5\n      eq\n      tag_17\n      jumpi\n      dup1\n      0xdf6501ed\n      eq\n      tag_18\n      jumpi\n      dup1\n      0xee08ece5\n      eq\n      tag_19\n      jumpi\n      jump(tag_2)\n    tag_21:\n      dup1\n      0x7def7fe1\n      eq\n      tag_11\n      jumpi\n      dup1\n      0xaadc3b72\n      eq\n      tag_12\n      jumpi\n      dup1\n      0xae64399b\n      eq\n      tag_13\n      jumpi\n      dup1\n      0xb66409cf\n      eq\n      tag_14\n      jumpi\n      jump(tag_2)\n    tag_20:\n      dup1\n      0x49cbceb3\n      gt\n      tag_22\n      jumpi\n      dup1\n      0x49cbceb3\n      eq\n      tag_7\n      jumpi\n      dup1\n      0x544541b3\n      eq\n      tag_8\n      jumpi\n      dup1\n      0x5c06b06e\n      eq\n      tag_9\n      jumpi\n      dup1\n      0x61e37417\n      eq\n      tag_10\n      jumpi\n      jump(tag_2)\n    tag_22:\n      dup1\n      0x309fc1d4\n      eq\n      tag_3\n      jumpi\n      dup1\n      0x35c3c876\n      eq\n      tag_4\n      jumpi\n      dup1\n      0x3ffbd47f\n      eq\n      tag_5\n      jumpi\n      dup1\n      0x4717f97c\n      eq\n      tag_6\n      jumpi\n    tag_2:\n      0x00\n      dup1\n      revert\n        /* \"contracts/App.sol\":6711:7179  function findCandidateIndexv3( // helper function for checking the candidate is registered in an election or not... */\n    tag_3:\n      tag_23\n      0x04\n      dup1\n      calldatasize\n      sub\n      dup2\n      add\n      swap1\n      tag_24\n      swap2\n      swap1\n      tag_25\n      jump\t// in\n    tag_24:\n      tag_26\n      jump\t// in\n    tag_23:\n      mload(0x40)\n      tag_27\n      swap2\n      swap1\n      tag_28\n      jump\t// in\n    tag_27:\n      mload(0x40)\n      dup1\n      swap2\n      sub\n      swap1\n      return\n        /* \"contracts/App.sol\":1662:2002  function registerCandidate( // Register as candidate... */\n    tag_4:\n      tag_29\n      0x04\n      dup1\n      calldatasize\n      sub\n      dup2\n      add\n      swap1\n      tag_30\n      swap2\n      swap1\n      tag_31\n      jump\t// in\n    tag_30:\n      tag_32\n      jump\t// in\n    tag_29:\n      stop\n        /* \"contracts/App.sol\":1034:1195  function register(string memory _username, string memory _password) public { // Register as voter... */\n    tag_5:\n      tag_33\n      0x04\n      dup1\n      calldatasize\n      sub\n      dup2\n      add\n      swap1\n      tag_34\n      swap2\n      swap1\n      tag_35\n      jump\t// in\n    tag_34:\n      tag_36\n      jump\t// in\n    tag_33:\n      stop\n        /* \"contracts/App.sol\":4373:4749  function getResults() public view returns (Candidate[] memory) { // Return all candidates, (Not used)... */\n    tag_6:\n      tag_37\n      tag_38\n      jump\t// in\n    tag_37:\n      mload(0x40)\n      tag_39\n      swap2\n      swap1\n      tag_40\n      jump\t// in\n    tag_39:\n      mload(0x40)\n      dup1\n      swap2\n      sub\n      swap1\n      return\n        /* \"contracts/App.sol\":5723:6268  function createElection( // the _candidateAddresses can be explicitly defined by passing addresses, or just []... */\n    tag_7:\n      tag_41\n      0x04\n      dup1\n      calldatasize\n      sub\n      dup2\n      add\n      swap1\n      tag_42\n      swap2\n      swap1\n      tag_43\n      jump\t// in\n    tag_42:\n      tag_44\n      jump\t// in\n    tag_41:\n      stop\n        /* \"contracts/App.sol\":1201:1656  function authenticate( // Check Username and Password, not utilized atm... */\n    tag_8:\n      tag_45\n      0x04\n      dup1\n      calldatasize\n      sub\n      dup2\n      add\n      swap1\n      tag_46\n      swap2\n      swap1\n      tag_35\n      jump\t// in\n    tag_46:\n      tag_47\n      jump\t// in\n    tag_45:\n      mload(0x40)\n      tag_48\n      swap2\n      swap1\n      tag_49\n      jump\t// in\n    tag_48:\n      mload(0x40)\n      dup1\n      swap2\n      sub\n      swap1\n      return\n        /* \"contracts/App.sol\":4954:5165  function getNumCandidates() public view returns (uint256) {... */\n    tag_9:\n      tag_50\n      tag_51\n      jump\t// in\n    tag_50:\n      mload(0x40)\n      tag_52\n      swap2\n      swap1\n      tag_28\n      jump\t// in\n    tag_52:\n      mload(0x40)\n      dup1\n      swap2\n      sub\n      swap1\n      return\n        /* \"contracts/App.sol\":997:1027  bytes32 public electionCounter */\n    tag_10:\n      tag_53\n      tag_54\n      jump\t// in\n    tag_53:\n      mload(0x40)\n      tag_55\n      swap2\n      swap1\n      tag_56\n      jump\t// in\n    tag_55:\n      mload(0x40)\n      dup1\n      swap2\n      sub\n      swap1\n      return\n        /* \"contracts/App.sol\":5171:5717  function getCandidateByName( // Given a name of candidate return the address... */\n    tag_11:\n      tag_57\n      0x04\n      dup1\n      calldatasize\n      sub\n      dup2\n      add\n      swap1\n      tag_58\n      swap2\n      swap1\n      tag_59\n      jump\t// in\n    tag_58:\n      tag_60\n      jump\t// in\n    tag_57:\n      mload(0x40)\n      tag_61\n      swap2\n      swap1\n      tag_62\n      jump\t// in\n    tag_61:\n      mload(0x40)\n      dup1\n      swap2\n      sub\n      swap1\n      return\n        /* \"contracts/App.sol\":2193:2450  function hasVoted( // Check whether the voter is voted in the election specified by electionID... */\n    tag_12:\n      tag_63\n      0x04\n      dup1\n      calldatasize\n      sub\n      dup2\n      add\n      swap1\n      tag_64\n      swap2\n      swap1\n      tag_65\n      jump\t// in\n    tag_64:\n      tag_66\n      jump\t// in\n    tag_63:\n      mload(0x40)\n      tag_67\n      swap2\n      swap1\n      tag_49\n      jump\t// in\n    tag_67:\n      mload(0x40)\n      dup1\n      swap2\n      sub\n      swap1\n      return\n        /* \"contracts/App.sol\":3573:4367  function getResultsFromElection( // Provide electionID, returns 2 arrays with first being all candidates(informations), second being their votes... */\n    tag_13:\n      tag_68\n      0x04\n      dup1\n      calldatasize\n      sub\n      dup2\n      add\n      swap1\n      tag_69\n      swap2\n      swap1\n      tag_70\n      jump\t// in\n    tag_69:\n      tag_71\n      jump\t// in\n    tag_68:\n      mload(0x40)\n      tag_72\n      swap3\n      swap2\n      swap1\n      tag_73\n      jump\t// in\n    tag_72:\n      mload(0x40)\n      dup1\n      swap2\n      sub\n      swap1\n      return\n        /* \"contracts/App.sol\":2456:3120  function vote( // Vote by given ElectionID and both addresses, Checks whether candidate is in the election and whether voter is voted. If so, emit errors. ... */\n    tag_14:\n      tag_74\n      0x04\n      dup1\n      calldatasize\n      sub\n      dup2\n      add\n      swap1\n      tag_75\n      swap2\n      swap1\n      tag_76\n      jump\t// in\n    tag_75:\n      tag_77\n      jump\t// in\n    tag_74:\n      stop\n        /* \"contracts/App.sol\":2008:2187  function getCandidate( // Get candidate from address... */\n    tag_15:\n      tag_78\n      0x04\n      dup1\n      calldatasize\n      sub\n      dup2\n      add\n      swap1\n      tag_79\n      swap2\n      swap1\n      tag_80\n      jump\t// in\n    tag_79:\n      tag_81\n      jump\t// in\n    tag_78:\n      mload(0x40)\n      tag_82\n      swap2\n      swap1\n      tag_83\n      jump\t// in\n    tag_82:\n      mload(0x40)\n      dup1\n      swap2\n      sub\n      swap1\n      return\n        /* \"contracts/App.sol\":6274:6459  function addCandidateToElection(... */\n    tag_16:\n      tag_84\n      0x04\n      dup1\n      calldatasize\n      sub\n      dup2\n      add\n      swap1\n      tag_85\n      swap2\n      swap1\n      tag_65\n      jump\t// in\n    tag_85:\n      tag_86\n      jump\t// in\n    tag_84:\n      stop\n        /* \"contracts/App.sol\":956:991  address[] public candidateAddresses */\n    tag_17:\n      tag_87\n      0x04\n      dup1\n      calldatasize\n      sub\n      dup2\n      add\n      swap1\n      tag_88\n      swap2\n      swap1\n      tag_89\n      jump\t// in\n    tag_88:\n      tag_90\n      jump\t// in\n    tag_87:\n      mload(0x40)\n      tag_91\n      swap2\n      swap1\n      tag_62\n      jump\t// in\n    tag_91:\n      mload(0x40)\n      dup1\n      swap2\n      sub\n      swap1\n      return\n        /* \"contracts/App.sol\":6465:6705  function getCandidateAddressesForElection( // Used to check all the current candidates in an election... */\n    tag_18:\n      tag_92\n      0x04\n      dup1\n      calldatasize\n      sub\n      dup2\n      add\n      swap1\n      tag_93\n      swap2\n      swap1\n      tag_70\n      jump\t// in\n    tag_93:\n      tag_94\n      jump\t// in\n    tag_92:\n      mload(0x40)\n      tag_95\n      swap2\n      swap1\n      tag_96\n      jump\t// in\n    tag_95:\n      mload(0x40)\n      dup1\n      swap2\n      sub\n      swap1\n      return\n        /* \"contracts/App.sol\":4755:4948  function getCandidateAddress(uint256 _index) public view returns (address) { // Given an index in candidate array, return the address (Not used)... */\n    tag_19:\n      tag_97\n      0x04\n      dup1\n      calldatasize\n      sub\n      dup2\n      add\n      swap1\n      tag_98\n      swap2\n      swap1\n      tag_89\n      jump\t// in\n    tag_98:\n      tag_99\n      jump\t// in\n    tag_97:\n      mload(0x40)\n      tag_100\n      swap2\n      swap1\n      tag_62\n      jump\t// in\n    tag_100:\n      mload(0x40)\n      dup1\n      swap2\n      sub\n      swap1\n      return\n        /* \"contracts/App.sol\":6711:7179  function findCandidateIndexv3( // helper function for checking the candidate is registered in an election or not... */\n    tag_26:\n        /* \"contracts/App.sol\":6931:6938  uint256 */\n      0x00\n        /* \"contracts/App.sol\":6955:6964  uint256 i */\n      dup1\n        /* \"contracts/App.sol\":6967:6968  0 */\n      0x00\n        /* \"contracts/App.sol\":6955:6968  uint256 i = 0 */\n      swap1\n      pop\n        /* \"contracts/App.sol\":6950:7121  for (uint256 i = 0; i < _candidateAddresses.length; i++) {... */\n    tag_102:\n        /* \"contracts/App.sol\":6974:6993  _candidateAddresses */\n      dup4\n        /* \"contracts/App.sol\":6974:7000  _candidateAddresses.length */\n      mload\n        /* \"contracts/App.sol\":6970:6971  i */\n      dup2\n        /* \"contracts/App.sol\":6970:7000  i < _candidateAddresses.length */\n      lt\n        /* \"contracts/App.sol\":6950:7121  for (uint256 i = 0; i < _candidateAddresses.length; i++) {... */\n      iszero\n      tag_103\n      jumpi\n        /* \"contracts/App.sol\":7051:7068  _candidateAddress */\n      dup3\n        /* \"contracts/App.sol\":7025:7068  _candidateAddresses[i] == _candidateAddress */\n      0xffffffffffffffffffffffffffffffffffffffff\n      and\n        /* \"contracts/App.sol\":7025:7044  _candidateAddresses */\n      dup5\n        /* \"contracts/App.sol\":7045:7046  i */\n      dup3\n        /* \"contracts/App.sol\":7025:7047  _candidateAddresses[i] */\n      dup2\n      mload\n      dup2\n      lt\n      tag_105\n      jumpi\n      tag_106\n      tag_107\n      jump\t// in\n    tag_106:\n    tag_105:\n      0x20\n      mul\n      0x20\n      add\n      add\n      mload\n        /* \"contracts/App.sol\":7025:7068  _candidateAddresses[i] == _candidateAddress */\n      0xffffffffffffffffffffffffffffffffffffffff\n      and\n      sub\n        /* \"contracts/App.sol\":7021:7111  if (_candidateAddresses[i] == _candidateAddress) {... */\n      tag_108\n      jumpi\n        /* \"contracts/App.sol\":7095:7096  i */\n      dup1\n        /* \"contracts/App.sol\":7088:7096  return i */\n      swap2\n      pop\n      pop\n      jump(tag_101)\n        /* \"contracts/App.sol\":7021:7111  if (_candidateAddresses[i] == _candidateAddress) {... */\n    tag_108:\n        /* \"contracts/App.sol\":7002:7005  i++ */\n      dup1\n      dup1\n      tag_109\n      swap1\n      tag_110\n      jump\t// in\n    tag_109:\n      swap2\n      pop\n      pop\n        /* \"contracts/App.sol\":6950:7121  for (uint256 i = 0; i < _candidateAddresses.length; i++) {... */\n      jump(tag_102)\n    tag_103:\n      pop\n        /* \"contracts/App.sol\":7137:7149  2 ** 256 - 1 */\n      0xffffffffffffffffffffffffffffffffffffffffffffffffffffffffffffffff\n        /* \"contracts/App.sol\":7130:7149  return 2 ** 256 - 1 */\n      swap1\n      pop\n        /* \"contracts/App.sol\":6711:7179  function findCandidateIndexv3( // helper function for checking the candidate is registered in an election or not... */\n    tag_101:\n      swap3\n      swap2\n      pop\n      pop\n      jump\t// out\n        /* \"contracts/App.sol\":1662:2002  function registerCandidate( // Register as candidate... */\n    tag_32:\n        /* \"contracts/App.sol\":1836:1857  address candidateAddr */\n      0x00\n        /* \"contracts/App.sol\":1860:1870  msg.sender */\n      caller\n        /* \"contracts/App.sol\":1836:1870  address candidateAddr = msg.sender */\n      swap1\n      pop\n        /* \"contracts/App.sol\":1905:1947  Candidate(_name, _party, _campaignMessage) */\n      mload(0x40)\n      dup1\n      0x60\n      add\n      0x40\n      mstore\n      dup1\n        /* \"contracts/App.sol\":1915:1920  _name */\n      dup6\n        /* \"contracts/App.sol\":1905:1947  Candidate(_name, _party, _campaignMessage) */\n      dup2\n      mstore\n      0x20\n      add\n        /* \"contracts/App.sol\":1922:1928  _party */\n      dup5\n        /* \"contracts/App.sol\":1905:1947  Candidate(_name, _party, _campaignMessage) */\n      dup2\n      mstore\n      0x20\n      add\n        /* \"contracts/App.sol\":1930:1946  _campaignMessage */\n      dup4\n        /* \"contracts/App.sol\":1905:1947  Candidate(_name, _party, _campaignMessage) */\n      dup2\n      mstore\n      pop\n        /* \"contracts/App.sol\":1880:1890  candidates */\n      0x01\n        /* \"contracts/App.sol\":1880:1902  candidates[msg.sender] */\n      0x00\n        /* \"contracts/App.sol\":1891:1901  msg.sender */\n      caller\n        /* \"contracts/App.sol\":1880:1902  candidates[msg.sender] */\n      0xffffffffffffffffffffffffffffffffffffffff\n      and\n      0xffffffffffffffffffffffffffffffffffffffff\n      and\n      dup2\n      mstore\n      0x20\n      add\n      swap1\n      dup2\n      mstore\n      0x20\n      add\n      0x00\n      keccak256\n        /* \"contracts/App.sol\":1880:1947  candidates[msg.sender] = Candidate(_name, _party, _campaignMessage) */\n      0x00\n      dup3\n      add\n      mload\n      dup2\n      0x00\n      add\n      swap1\n      dup2\n      tag_112\n      swap2\n      swap1\n      tag_113\n      jump\t// in\n    tag_112:\n      pop\n      0x20\n      dup3\n      add\n      mload\n      dup2\n      0x01\n      add\n      swap1\n      dup2\n      tag_114\n      swap2\n      swap1\n      tag_113\n      jump\t// in\n    tag_114:\n      pop\n      0x40\n      dup3\n      add\n      mload\n      dup2\n      0x02\n      add\n      swap1\n      dup2\n      tag_115\n      swap2\n      swap1\n      tag_113\n      jump\t// in\n    tag_115:\n      pop\n      swap1\n      pop\n      pop\n        /* \"contracts/App.sol\":1957:1975  candidateAddresses */\n      0x03\n        /* \"contracts/App.sol\":1981:1994  candidateAddr */\n      dup2\n        /* \"contracts/App.sol\":1957:1995  candidateAddresses.push(candidateAddr) */\n      swap1\n      dup1\n      0x01\n      dup2\n      sload\n      add\n      dup1\n      dup3\n      sstore\n      dup1\n      swap2\n      pop\n      pop\n      0x01\n      swap1\n      sub\n      swap1\n      0x00\n      mstore\n      keccak256(0x00, 0x20)\n      add\n      0x00\n      swap1\n      swap2\n      swap1\n      swap2\n      swap1\n      swap2\n      0x0100\n      exp\n      dup2\n      sload\n      dup2\n      0xffffffffffffffffffffffffffffffffffffffff\n      mul\n      not\n      and\n      swap1\n      dup4\n      0xffffffffffffffffffffffffffffffffffffffff\n      and\n      mul\n      or\n      swap1\n      sstore\n      pop\n        /* \"contracts/App.sol\":1826:2002  {... */\n      pop\n        /* \"contracts/App.sol\":1662:2002  function registerCandidate( // Register as candidate... */\n      pop\n      pop\n      pop\n      jump\t// out\n        /* \"contracts/App.sol\":1034:1195  function register(string memory _username, string memory _password) public { // Register as voter... */\n    tag_36:\n        /* \"contracts/App.sol\":1161:1188  Voter(_username, _password) */\n      mload(0x40)\n      dup1\n      0x40\n      add\n      0x40\n      mstore\n      dup1\n        /* \"contracts/App.sol\":1167:1176  _username */\n      dup4\n        /* \"contracts/App.sol\":1161:1188  Voter(_username, _password) */\n      dup2\n      mstore\n      0x20\n      add\n        /* \"contracts/App.sol\":1178:1187  _password */\n      dup3\n        /* \"contracts/App.sol\":1161:1188  Voter(_username, _password) */\n      dup2\n      mstore\n      pop\n        /* \"contracts/App.sol\":1140:1146  voters */\n      0x00\n        /* \"contracts/App.sol\":1140:1158  voters[msg.sender] */\n      dup1\n        /* \"contracts/App.sol\":1147:1157  msg.sender */\n      caller\n        /* \"contracts/App.sol\":1140:1158  voters[msg.sender] */\n      0xffffffffffffffffffffffffffffffffffffffff\n      and\n      0xffffffffffffffffffffffffffffffffffffffff\n      and\n      dup2\n      mstore\n      0x20\n      add\n      swap1\n      dup2\n      mstore\n      0x20\n      add\n      0x00\n      keccak256\n        /* \"contracts/App.sol\":1140:1188  voters[msg.sender] = Voter(_username, _password) */\n      0x00\n      dup3\n      add\n      mload\n      dup2\n      0x00\n      add\n      swap1\n      dup2\n      tag_118\n      swap2\n      swap1\n      tag_113\n      jump\t// in\n    tag_118:\n      pop\n      0x20\n      dup3\n      add\n      mload\n      dup2\n      0x01\n      add\n      swap1\n      dup2\n      tag_119\n      swap2\n      swap1\n      tag_113\n      jump\t// in\n    tag_119:\n      pop\n      swap1\n      pop\n      pop\n        /* \"contracts/App.sol\":1034:1195  function register(string memory _username, string memory _password) public { // Register as voter... */\n      pop\n      pop\n      jump\t// out\n        /* \"contracts/App.sol\":4373:4749  function getResults() public view returns (Candidate[] memory) { // Return all candidates, (Not used)... */\n    tag_38:\n        /* \"contracts/App.sol\":4416:4434  Candidate[] memory */\n      0x60\n        /* \"contracts/App.sol\":4483:4504  uint256 numCandidates */\n      0x00\n        /* \"contracts/App.sol\":4507:4525  getNumCandidates() */\n      tag_121\n        /* \"contracts/App.sol\":4507:4523  getNumCandidates */\n      tag_51\n        /* \"contracts/App.sol\":4507:4525  getNumCandidates() */\n      jump\t// in\n    tag_121:\n        /* \"contracts/App.sol\":4483:4525  uint256 numCandidates = getNumCandidates() */\n      swap1\n      pop\n        /* \"contracts/App.sol\":4535:4560  Candidate[] memory result */\n      0x00\n        /* \"contracts/App.sol\":4579:4592  numCandidates */\n      dup2\n        /* \"contracts/App.sol\":4563:4593  new Candidate[](numCandidates) */\n      0xffffffffffffffff\n      dup2\n      gt\n      iszero\n      tag_122\n      jumpi\n      tag_123\n      tag_124\n      jump\t// in\n    tag_123:\n    tag_122:\n      mload(0x40)\n      swap1\n      dup1\n      dup3\n      mstore\n      dup1\n      0x20\n      mul\n      0x20\n      add\n      dup3\n      add\n      0x40\n      mstore\n      dup1\n      iszero\n      tag_125\n      jumpi\n      dup2\n      0x20\n      add\n    tag_126:\n      tag_127\n      tag_128\n      jump\t// in\n    tag_127:\n      dup2\n      mstore\n      0x20\n      add\n      swap1\n      0x01\n      swap1\n      sub\n      swap1\n      dup2\n      tag_126\n      jumpi\n      swap1\n      pop\n    tag_125:\n      pop\n        /* \"contracts/App.sol\":4535:4593  Candidate[] memory result = new Candidate[](numCandidates) */\n      swap1\n      pop\n        /* \"contracts/App.sol\":4608:4617  uint256 i */\n      0x00\n        /* \"contracts/App.sol\":4603:4720  for (uint256 i = 0; i < numCandidates; i++) {... */\n    tag_129:\n        /* \"contracts/App.sol\":4627:4640  numCandidates */\n      dup3\n        /* \"contracts/App.sol\":4623:4624  i */\n      dup2\n        /* \"contracts/App.sol\":4623:4640  i < numCandidates */\n      lt\n        /* \"contracts/App.sol\":4603:4720  for (uint256 i = 0; i < numCandidates; i++) {... */\n      iszero\n      tag_130\n      jumpi\n        /* \"contracts/App.sol\":4673:4709  getCandidate(getCandidateAddress(i)) */\n      tag_132\n        /* \"contracts/App.sol\":4686:4708  getCandidateAddress(i) */\n      tag_133\n        /* \"contracts/App.sol\":4706:4707  i */\n      dup3\n        /* \"contracts/App.sol\":4686:4705  getCandidateAddress */\n      tag_99\n        /* \"contracts/App.sol\":4686:4708  getCandidateAddress(i) */\n      jump\t// in\n    tag_133:\n        /* \"contracts/App.sol\":4673:4685  getCandidate */\n      tag_81\n        /* \"contracts/App.sol\":4673:4709  getCandidate(getCandidateAddress(i)) */\n      jump\t// in\n    tag_132:\n        /* \"contracts/App.sol\":4661:4667  result */\n      dup3\n        /* \"contracts/App.sol\":4668:4669  i */\n      dup3\n        /* \"contracts/App.sol\":4661:4670  result[i] */\n      dup2\n      mload\n      dup2\n      lt\n      tag_134\n      jumpi\n      tag_135\n      tag_107\n      jump\t// in\n    tag_135:\n    tag_134:\n      0x20\n      mul\n      0x20\n      add\n      add\n        /* \"contracts/App.sol\":4661:4709  result[i] = getCandidate(getCandidateAddress(i)) */\n      dup2\n      swap1\n      mstore\n      pop\n        /* \"contracts/App.sol\":4642:4645  i++ */\n      dup1\n      dup1\n      tag_136\n      swap1\n      tag_110\n      jump\t// in\n    tag_136:\n      swap2\n      pop\n      pop\n        /* \"contracts/App.sol\":4603:4720  for (uint256 i = 0; i < numCandidates; i++) {... */\n      jump(tag_129)\n    tag_130:\n      pop\n        /* \"contracts/App.sol\":4736:4742  result */\n      dup1\n        /* \"contracts/App.sol\":4729:4742  return result */\n      swap3\n      pop\n      pop\n      pop\n        /* \"contracts/App.sol\":4373:4749  function getResults() public view returns (Candidate[] memory) { // Return all candidates, (Not used)... */\n      swap1\n      jump\t// out\n        /* \"contracts/App.sol\":5723:6268  function createElection( // the _candidateAddresses can be explicitly defined by passing addresses, or just []... */\n    tag_44:\n        /* \"contracts/App.sol\":5956:5974  bytes32 electionId */\n      0x00\n        /* \"contracts/App.sol\":5977:5992  electionCounter */\n      sload(0x04)\n        /* \"contracts/App.sol\":5956:5992  bytes32 electionId = electionCounter */\n      swap1\n      pop\n        /* \"contracts/App.sol\":6020:6053  incrementBytes32(electionCounter) */\n      tag_138\n        /* \"contracts/App.sol\":6037:6052  electionCounter */\n      sload(0x04)\n        /* \"contracts/App.sol\":6020:6036  incrementBytes32 */\n      tag_139\n        /* \"contracts/App.sol\":6020:6053  incrementBytes32(electionCounter) */\n      jump\t// in\n    tag_138:\n        /* \"contracts/App.sol\":6002:6017  electionCounter */\n      0x04\n        /* \"contracts/App.sol\":6002:6053  electionCounter = incrementBytes32(electionCounter) */\n      dup2\n      swap1\n      sstore\n      pop\n        /* \"contracts/App.sol\":6063:6091  Election storage newElection */\n      0x00\n        /* \"contracts/App.sol\":6094:6103  elections */\n      0x02\n        /* \"contracts/App.sol\":6094:6115  elections[electionId] */\n      0x00\n        /* \"contracts/App.sol\":6104:6114  electionId */\n      dup4\n        /* \"contracts/App.sol\":6094:6115  elections[electionId] */\n      dup2\n      mstore\n      0x20\n      add\n      swap1\n      dup2\n      mstore\n      0x20\n      add\n      0x00\n      keccak256\n        /* \"contracts/App.sol\":6063:6115  Election storage newElection = elections[electionId] */\n      swap1\n      pop\n        /* \"contracts/App.sol\":6149:6159  _startDate */\n      dup5\n        /* \"contracts/App.sol\":6125:6136  newElection */\n      dup2\n        /* \"contracts/App.sol\":6125:6146  newElection.startDate */\n      0x00\n      add\n        /* \"contracts/App.sol\":6125:6159  newElection.startDate = _startDate */\n      dup2\n      swap1\n      sstore\n      pop\n        /* \"contracts/App.sol\":6191:6199  _endDate */\n      dup4\n        /* \"contracts/App.sol\":6169:6180  newElection */\n      dup2\n        /* \"contracts/App.sol\":6169:6188  newElection.endDate */\n      0x01\n      add\n        /* \"contracts/App.sol\":6169:6199  newElection.endDate = _endDate */\n      dup2\n      swap1\n      sstore\n      pop\n        /* \"contracts/App.sol\":6242:6261  _candidateAddresses */\n      dup3\n        /* \"contracts/App.sol\":6209:6220  newElection */\n      dup2\n        /* \"contracts/App.sol\":6209:6239  newElection.candidateAddresses */\n      0x02\n      add\n        /* \"contracts/App.sol\":6209:6261  newElection.candidateAddresses = _candidateAddresses */\n      swap1\n      dup1\n      mload\n      swap1\n      0x20\n      add\n      swap1\n      tag_140\n      swap3\n      swap2\n      swap1\n      tag_141\n      jump\t// in\n    tag_140:\n      pop\n        /* \"contracts/App.sol\":5946:6268  {... */\n      pop\n      pop\n        /* \"contracts/App.sol\":5723:6268  function createElection( // the _candidateAddresses can be explicitly defined by passing addresses, or just []... */\n      pop\n      pop\n      pop\n      jump\t// out\n        /* \"contracts/App.sol\":1201:1656  function authenticate( // Check Username and Password, not utilized atm... */\n    tag_47:\n        /* \"contracts/App.sol\":1365:1369  bool */\n      0x00\n        /* \"contracts/App.sol\":1381:1399  Voter memory voter */\n      dup1\n        /* \"contracts/App.sol\":1402:1408  voters */\n      0x00\n        /* \"contracts/App.sol\":1402:1420  voters[msg.sender] */\n      dup1\n        /* \"contracts/App.sol\":1409:1419  msg.sender */\n      caller\n        /* \"contracts/App.sol\":1402:1420  voters[msg.sender] */\n      0xffffffffffffffffffffffffffffffffffffffff\n      and\n      0xffffffffffffffffffffffffffffffffffffffff\n      and\n      dup2\n      mstore\n      0x20\n      add\n      swap1\n      dup2\n      mstore\n      0x20\n      add\n      0x00\n      keccak256\n        /* \"contracts/App.sol\":1381:1420  Voter memory voter = voters[msg.sender] */\n      mload(0x40)\n      dup1\n      0x40\n      add\n      0x40\n      mstore\n      swap1\n      dup2\n      0x00\n      dup3\n      add\n      dup1\n      sload\n      tag_143\n      swap1\n      tag_144\n      jump\t// in\n    tag_143:\n      dup1\n      0x1f\n      add\n      0x20\n      dup1\n      swap2\n      div\n      mul\n      0x20\n      add\n      mload(0x40)\n      swap1\n      dup2\n      add\n      0x40\n      mstore\n      dup1\n      swap3\n      swap2\n      swap1\n      dup2\n      dup2\n      mstore\n      0x20\n      add\n      dup3\n      dup1\n      sload\n      tag_145\n      swap1\n      tag_144\n      jump\t// in\n    tag_145:\n      dup1\n      iszero\n      tag_146\n      jumpi\n      dup1\n      0x1f\n      lt\n      tag_147\n      jumpi\n      0x0100\n      dup1\n      dup4\n      sload\n      div\n      mul\n      dup4\n      mstore\n      swap2\n      0x20\n      add\n      swap2\n      jump(tag_146)\n    tag_147:\n      dup3\n      add\n      swap2\n      swap1\n      0x00\n      mstore\n      keccak256(0x00, 0x20)\n      swap1\n    tag_148:\n      dup2\n      sload\n      dup2\n      mstore\n      swap1\n      0x01\n      add\n      swap1\n      0x20\n      add\n      dup1\n      dup4\n      gt\n      tag_148\n      jumpi\n      dup3\n      swap1\n      sub\n      0x1f\n      and\n      dup3\n      add\n      swap2\n    tag_146:\n      pop\n      pop\n      pop\n      pop\n      pop\n      dup2\n      mstore\n      0x20\n      add\n      0x01\n      dup3\n      add\n      dup1\n      sload\n      tag_149\n      swap1\n      tag_144\n      jump\t// in\n    tag_149:\n      dup1\n      0x1f\n      add\n      0x20\n      dup1\n      swap2\n      div\n      mul\n      0x20\n      add\n      mload(0x40)\n      swap1\n      dup2\n      add\n      0x40\n      mstore\n      dup1\n      swap3\n      swap2\n      swap1\n      dup2\n      dup2\n      mstore\n      0x20\n      add\n      dup3\n      dup1\n      sload\n      tag_150\n      swap1\n      tag_144\n      jump\t// in\n    tag_150:\n      dup1\n      iszero\n      tag_151\n      jumpi\n      dup1\n      0x1f\n      lt\n      tag_152\n      jumpi\n      0x0100\n      dup1\n      dup4\n      sload\n      div\n      mul\n      dup4\n      mstore\n      swap2\n      0x20\n      add\n      swap2\n      jump(tag_151)\n    tag_152:\n      dup3\n      add\n      swap2\n      swap1\n      0x00\n      mstore\n      keccak256(0x00, 0x20)\n      swap1\n    tag_153:\n      dup2\n      sload\n      dup2\n      mstore\n      swap1\n      0x01\n      add\n      swap1\n      0x20\n      add\n      dup1\n      dup4\n      gt\n      tag_153\n      jumpi\n      dup3\n      swap1\n      sub\n      0x1f\n      and\n      dup3\n      add\n      swap2\n    tag_151:\n      pop\n      pop\n      pop\n      pop\n      pop\n      dup2\n      mstore\n      pop\n      pop\n      swap1\n      pop\n        /* \"contracts/App.sol\":1519:1524  voter */\n      dup1\n        /* \"contracts/App.sol\":1519:1533  voter.username */\n      0x00\n      add\n      mload\n        /* \"contracts/App.sol\":1502:1534  abi.encodePacked(voter.username) */\n      add(0x20, mload(0x40))\n      tag_154\n      swap2\n      swap1\n      tag_155\n      jump\t// in\n    tag_154:\n      mload(0x40)\n      0x20\n      dup2\n      dup4\n      sub\n      sub\n      dup2\n      mstore\n      swap1\n      0x40\n      mstore\n        /* \"contracts/App.sol\":1492:1535  keccak256(abi.encodePacked(voter.username)) */\n      dup1\n      mload\n      swap1\n      0x20\n      add\n      keccak256\n        /* \"contracts/App.sol\":1465:1474  _username */\n      dup5\n        /* \"contracts/App.sol\":1448:1475  abi.encodePacked(_username) */\n      add(0x20, mload(0x40))\n      tag_156\n      swap2\n      swap1\n      tag_155\n      jump\t// in\n    tag_156:\n      mload(0x40)\n      0x20\n      dup2\n      dup4\n      sub\n      sub\n      dup2\n      mstore\n      swap1\n      0x40\n      mstore\n        /* \"contracts/App.sol\":1438:1476  keccak256(abi.encodePacked(_username)) */\n      dup1\n      mload\n      swap1\n      0x20\n      add\n      keccak256\n        /* \"contracts/App.sol\":1438:1535  keccak256(abi.encodePacked(_username)) ==... */\n      eq\n        /* \"contracts/App.sol\":1438:1648  keccak256(abi.encodePacked(_username)) ==... */\n      dup1\n      iszero\n      tag_157\n      jumpi\n      pop\n        /* \"contracts/App.sol\":1632:1637  voter */\n      dup1\n        /* \"contracts/App.sol\":1632:1646  voter.password */\n      0x20\n      add\n      mload\n        /* \"contracts/App.sol\":1615:1647  abi.encodePacked(voter.password) */\n      add(0x20, mload(0x40))\n      tag_158\n      swap2\n      swap1\n      tag_155\n      jump\t// in\n    tag_158:\n      mload(0x40)\n      0x20\n      dup2\n      dup4\n      sub\n      sub\n      dup2\n      mstore\n      swap1\n      0x40\n      mstore\n        /* \"contracts/App.sol\":1605:1648  keccak256(abi.encodePacked(voter.password)) */\n      dup1\n      mload\n      swap1\n      0x20\n      add\n      keccak256\n        /* \"contracts/App.sol\":1578:1587  _password */\n      dup4\n        /* \"contracts/App.sol\":1561:1588  abi.encodePacked(_password) */\n      add(0x20, mload(0x40))\n      tag_159\n      swap2\n      swap1\n      tag_155\n      jump\t// in\n    tag_159:\n      mload(0x40)\n      0x20\n      dup2\n      dup4\n      sub\n      sub\n      dup2\n      mstore\n      swap1\n      0x40\n      mstore\n        /* \"contracts/App.sol\":1551:1589  keccak256(abi.encodePacked(_password)) */\n      dup1\n      mload\n      swap1\n      0x20\n      add\n      keccak256\n        /* \"contracts/App.sol\":1551:1648  keccak256(abi.encodePacked(_password)) ==... */\n      eq\n        /* \"contracts/App.sol\":1438:1648  keccak256(abi.encodePacked(_username)) ==... */\n    tag_157:\n        /* \"contracts/App.sol\":1430:1649  return (keccak256(abi.encodePacked(_username)) ==... */\n      swap2\n      pop\n      pop\n        /* \"contracts/App.sol\":1201:1656  function authenticate( // Check Username and Password, not utilized atm... */\n      swap3\n      swap2\n      pop\n      pop\n      jump\t// out\n        /* \"contracts/App.sol\":4954:5165  function getNumCandidates() public view returns (uint256) {... */\n    tag_51:\n        /* \"contracts/App.sol\":5003:5010  uint256 */\n      0x00\n        /* \"contracts/App.sol\":5022:5035  uint256 count */\n      dup1\n        /* \"contracts/App.sol\":5038:5039  0 */\n      0x00\n        /* \"contracts/App.sol\":5022:5039  uint256 count = 0 */\n      swap1\n      pop\n        /* \"contracts/App.sol\":5054:5063  uint256 i */\n      0x00\n        /* \"contracts/App.sol\":5049:5137  for (uint256 i = 0; i < candidateAddresses.length; i++) {... */\n    tag_161:\n        /* \"contracts/App.sol\":5073:5091  candidateAddresses */\n      0x03\n        /* \"contracts/App.sol\":5073:5098  candidateAddresses.length */\n      dup1\n      sload\n      swap1\n      pop\n        /* \"contracts/App.sol\":5069:5070  i */\n      dup2\n        /* \"contracts/App.sol\":5069:5098  i < candidateAddresses.length */\n      lt\n        /* \"contracts/App.sol\":5049:5137  for (uint256 i = 0; i < candidateAddresses.length; i++) {... */\n      iszero\n      tag_162\n      jumpi\n        /* \"contracts/App.sol\":5119:5126  count++ */\n      dup2\n      dup1\n      tag_164\n      swap1\n      tag_110\n      jump\t// in\n    tag_164:\n      swap3\n      pop\n      pop\n        /* \"contracts/App.sol\":5100:5103  i++ */\n      dup1\n      dup1\n      tag_165\n      swap1\n      tag_110\n      jump\t// in\n    tag_165:\n      swap2\n      pop\n      pop\n        /* \"contracts/App.sol\":5049:5137  for (uint256 i = 0; i < candidateAddresses.length; i++) {... */\n      jump(tag_161)\n    tag_162:\n      pop\n        /* \"contracts/App.sol\":5153:5158  count */\n      dup1\n        /* \"contracts/App.sol\":5146:5158  return count */\n      swap2\n      pop\n      pop\n        /* \"contracts/App.sol\":4954:5165  function getNumCandidates() public view returns (uint256) {... */\n      swap1\n      jump\t// out\n        /* \"contracts/App.sol\":997:1027  bytes32 public electionCounter */\n    tag_54:\n      sload(0x04)\n      dup2\n      jump\t// out\n        /* \"contracts/App.sol\":5171:5717  function getCandidateByName( // Given a name of candidate return the address... */\n    tag_60:\n        /* \"contracts/App.sol\":5303:5310  address */\n      0x00\n        /* \"contracts/App.sol\":5327:5336  uint256 i */\n      dup1\n        /* \"contracts/App.sol\":5339:5340  0 */\n      0x00\n        /* \"contracts/App.sol\":5327:5340  uint256 i = 0 */\n      swap1\n      pop\n        /* \"contracts/App.sol\":5322:5672  for (uint256 i = 0; i < candidateAddresses.length; i++) {... */\n    tag_167:\n        /* \"contracts/App.sol\":5346:5364  candidateAddresses */\n      0x03\n        /* \"contracts/App.sol\":5346:5371  candidateAddresses.length */\n      dup1\n      sload\n      swap1\n      pop\n        /* \"contracts/App.sol\":5342:5343  i */\n      dup2\n        /* \"contracts/App.sol\":5342:5371  i < candidateAddresses.length */\n      lt\n        /* \"contracts/App.sol\":5322:5672  for (uint256 i = 0; i < candidateAddresses.length; i++) {... */\n      iszero\n      tag_168\n      jumpi\n        /* \"contracts/App.sol\":5392:5418  Candidate memory candidate */\n      0x00\n        /* \"contracts/App.sol\":5421:5431  candidates */\n      0x01\n        /* \"contracts/App.sol\":5421:5454  candidates[candidateAddresses[i]] */\n      0x00\n        /* \"contracts/App.sol\":5432:5450  candidateAddresses */\n      0x03\n        /* \"contracts/App.sol\":5451:5452  i */\n      dup5\n        /* \"contracts/App.sol\":5432:5453  candidateAddresses[i] */\n      dup2\n      sload\n      dup2\n      lt\n      tag_170\n      jumpi\n      tag_171\n      tag_107\n      jump\t// in\n    tag_171:\n    tag_170:\n      swap1\n      0x00\n      mstore\n      keccak256(0x00, 0x20)\n      add\n      0x00\n      swap1\n      sload\n      swap1\n      0x0100\n      exp\n      swap1\n      div\n      0xffffffffffffffffffffffffffffffffffffffff\n      and\n        /* \"contracts/App.sol\":5421:5454  candidates[candidateAddresses[i]] */\n      0xffffffffffffffffffffffffffffffffffffffff\n      and\n      0xffffffffffffffffffffffffffffffffffffffff\n      and\n      dup2\n      mstore\n      0x20\n      add\n      swap1\n      dup2\n      mstore\n      0x20\n      add\n      0x00\n      keccak256\n        /* \"contracts/App.sol\":5392:5454  Candidate memory candidate = candidates[candidateAddresses[i]] */\n      mload(0x40)\n      dup1\n      0x60\n      add\n      0x40\n      mstore\n      swap1\n      dup2\n      0x00\n      dup3\n      add\n      dup1\n      sload\n      tag_173\n      swap1\n      tag_144\n      jump\t// in\n    tag_173:\n      dup1\n      0x1f\n      add\n      0x20\n      dup1\n      swap2\n      div\n      mul\n      0x20\n      add\n      mload(0x40)\n      swap1\n      dup2\n      add\n      0x40\n      mstore\n      dup1\n      swap3\n      swap2\n      swap1\n      dup2\n      dup2\n      mstore\n      0x20\n      add\n      dup3\n      dup1\n      sload\n      tag_174\n      swap1\n      tag_144\n      jump\t// in\n    tag_174:\n      dup1\n      iszero\n      tag_175\n      jumpi\n      dup1\n      0x1f\n      lt\n      tag_176\n      jumpi\n      0x0100\n      dup1\n      dup4\n      sload\n      div\n      mul\n      dup4\n      mstore\n      swap2\n      0x20\n      add\n      swap2\n      jump(tag_175)\n    tag_176:\n      dup3\n      add\n      swap2\n      swap1\n      0x00\n      mstore\n      keccak256(0x00, 0x20)\n      swap1\n    tag_177:\n      dup2\n      sload\n      dup2\n      mstore\n      swap1\n      0x01\n      add\n      swap1\n      0x20\n      add\n      dup1\n      dup4\n      gt\n      tag_177\n      jumpi\n      dup3\n      swap1\n      sub\n      0x1f\n      and\n      dup3\n      add\n      swap2\n    tag_175:\n      pop\n      pop\n      pop\n      pop\n      pop\n      dup2\n      mstore\n      0x20\n      add\n      0x01\n      dup3\n      add\n      dup1\n      sload\n      tag_178\n      swap1\n      tag_144\n      jump\t// in\n    tag_178:\n      dup1\n      0x1f\n      add\n      0x20\n      dup1\n      swap2\n      div\n      mul\n      0x20\n      add\n      mload(0x40)\n      swap1\n      dup2\n      add\n      0x40\n      mstore\n      dup1\n      swap3\n      swap2\n      swap1\n      dup2\n      dup2\n      mstore\n      0x20\n      add\n      dup3\n      dup1\n      sload\n      tag_179\n      swap1\n      tag_144\n      jump\t// in\n    tag_179:\n      dup1\n      iszero\n      tag_180\n      jumpi\n      dup1\n      0x1f\n      lt\n      tag_181\n      jumpi\n      0x0100\n      dup1\n      dup4\n      sload\n      div\n      mul\n      dup4\n      mstore\n      swap2\n      0x20\n      add\n      swap2\n      jump(tag_180)\n    tag_181:\n      dup3\n      add\n      swap2\n      swap1\n      0x00\n      mstore\n      keccak256(0x00, 0x20)\n      swap1\n    tag_182:\n      dup2\n      sload\n      dup2\n      mstore\n      swap1\n      0x01\n      add\n      swap1\n      0x20\n      add\n      dup1\n      dup4\n      gt\n      tag_182\n      jumpi\n      dup3\n      swap1\n      sub\n      0x1f\n      and\n      dup3\n      add\n      swap2\n    tag_180:\n      pop\n      pop\n      pop\n      pop\n      pop\n      dup2\n      mstore\n      0x20\n      add\n      0x02\n      dup3\n      add\n      dup1\n      sload\n      tag_183\n      swap1\n      tag_144\n      jump\t// in\n    tag_183:\n      dup1\n      0x1f\n      add\n      0x20\n      dup1\n      swap2\n      div\n      mul\n      0x20\n      add\n      mload(0x40)\n      swap1\n      dup2\n      add\n      0x40\n      mstore\n      dup1\n      swap3\n      swap2\n      swap1\n      dup2\n      dup2\n      mstore\n      0x20\n      add\n      dup3\n      dup1\n      sload\n      tag_184\n      swap1\n      tag_144\n      jump\t// in\n    tag_184:\n      dup1\n      iszero\n      tag_185\n      jumpi\n      dup1\n      0x1f\n      lt\n      tag_186\n      jumpi\n      0x0100\n      dup1\n      dup4\n      sload\n      div\n      mul\n      dup4\n      mstore\n      swap2\n      0x20\n      add\n      swap2\n      jump(tag_185)\n    tag_186:\n      dup3\n      add\n      swap2\n      swap1\n      0x00\n      mstore\n      keccak256(0x00, 0x20)\n      swap1\n    tag_187:\n      dup2\n      sload\n      dup2\n      mstore\n      swap1\n      0x01\n      add\n      swap1\n      0x20\n      add\n      dup1\n      dup4\n      gt\n      tag_187\n      jumpi\n      dup3\n      swap1\n      sub\n      0x1f\n      and\n      dup3\n      add\n      swap2\n    tag_185:\n      pop\n      pop\n      pop\n      pop\n      pop\n      dup2\n      mstore\n      pop\n      pop\n      swap1\n      pop\n        /* \"contracts/App.sol\":5579:5584  _name */\n      dup4\n        /* \"contracts/App.sol\":5562:5585  abi.encodePacked(_name) */\n      add(0x20, mload(0x40))\n      tag_188\n      swap2\n      swap1\n      tag_155\n      jump\t// in\n    tag_188:\n      mload(0x40)\n      0x20\n      dup2\n      dup4\n      sub\n      sub\n      dup2\n      mstore\n      swap1\n      0x40\n      mstore\n        /* \"contracts/App.sol\":5552:5586  keccak256(abi.encodePacked(_name)) */\n      dup1\n      mload\n      swap1\n      0x20\n      add\n      keccak256\n        /* \"contracts/App.sol\":5516:5525  candidate */\n      dup2\n        /* \"contracts/App.sol\":5516:5530  candidate.name */\n      0x00\n      add\n      mload\n        /* \"contracts/App.sol\":5499:5531  abi.encodePacked(candidate.name) */\n      add(0x20, mload(0x40))\n      tag_189\n      swap2\n      swap1\n      tag_155\n      jump\t// in\n    tag_189:\n      mload(0x40)\n      0x20\n      dup2\n      dup4\n      sub\n      sub\n      dup2\n      mstore\n      swap1\n      0x40\n      mstore\n        /* \"contracts/App.sol\":5489:5532  keccak256(abi.encodePacked(candidate.name)) */\n      dup1\n      mload\n      swap1\n      0x20\n      add\n      keccak256\n        /* \"contracts/App.sol\":5489:5586  keccak256(abi.encodePacked(candidate.name)) ==... */\n      sub\n        /* \"contracts/App.sol\":5468:5662  if (... */\n      tag_190\n      jumpi\n        /* \"contracts/App.sol\":5626:5644  candidateAddresses */\n      0x03\n        /* \"contracts/App.sol\":5645:5646  i */\n      dup3\n        /* \"contracts/App.sol\":5626:5647  candidateAddresses[i] */\n      dup2\n      sload\n      dup2\n      lt\n      tag_191\n      jumpi\n      tag_192\n      tag_107\n      jump\t// in\n    tag_192:\n    tag_191:\n      swap1\n      0x00\n      mstore\n      keccak256(0x00, 0x20)\n      add\n      0x00\n      swap1\n      sload\n      swap1\n      0x0100\n      exp\n      swap1\n      div\n      0xffffffffffffffffffffffffffffffffffffffff\n      and\n        /* \"contracts/App.sol\":5619:5647  return candidateAddresses[i] */\n      swap3\n      pop\n      pop\n      pop\n      jump(tag_166)\n        /* \"contracts/App.sol\":5468:5662  if (... */\n    tag_190:\n        /* \"contracts/App.sol\":5378:5672  {... */\n      pop\n        /* \"contracts/App.sol\":5373:5376  i++ */\n      dup1\n      dup1\n      tag_194\n      swap1\n      tag_110\n      jump\t// in\n    tag_194:\n      swap2\n      pop\n      pop\n        /* \"contracts/App.sol\":5322:5672  for (uint256 i = 0; i < candidateAddresses.length; i++) {... */\n      jump(tag_167)\n    tag_168:\n      pop\n        /* \"contracts/App.sol\":5681:5710  revert(\"Candidate not found\") */\n      mload(0x40)\n      0x08c379a000000000000000000000000000000000000000000000000000000000\n      dup2\n      mstore\n      0x04\n      add\n      tag_195\n      swap1\n      tag_196\n      jump\t// in\n    tag_195:\n      mload(0x40)\n      dup1\n      swap2\n      sub\n      swap1\n      revert\n        /* \"contracts/App.sol\":5171:5717  function getCandidateByName( // Given a name of candidate return the address... */\n    tag_166:\n      swap2\n      swap1\n      pop\n      jump\t// out\n        /* \"contracts/App.sol\":2193:2450  function hasVoted( // Check whether the voter is voted in the election specified by electionID... */\n    tag_66:\n        /* \"contracts/App.sol\":2374:2378  bool */\n      0x00\n        /* \"contracts/App.sol\":2397:2406  elections */\n      0x02\n        /* \"contracts/App.sol\":2397:2419  elections[_electionId] */\n      0x00\n        /* \"contracts/App.sol\":2407:2418  _electionId */\n      dup5\n        /* \"contracts/App.sol\":2397:2419  elections[_electionId] */\n      dup2\n      mstore\n      0x20\n      add\n      swap1\n      dup2\n      mstore\n      0x20\n      add\n      0x00\n      keccak256\n        /* \"contracts/App.sol\":2397:2428  elections[_electionId].hasVoted */\n      0x05\n      add\n        /* \"contracts/App.sol\":2397:2443  elections[_electionId].hasVoted[_voterAddress] */\n      0x00\n        /* \"contracts/App.sol\":2429:2442  _voterAddress */\n      dup4\n        /* \"contracts/App.sol\":2397:2443  elections[_electionId].hasVoted[_voterAddress] */\n      0xffffffffffffffffffffffffffffffffffffffff\n      and\n      0xffffffffffffffffffffffffffffffffffffffff\n      and\n      dup2\n      mstore\n      0x20\n      add\n      swap1\n      dup2\n      mstore\n      0x20\n      add\n      0x00\n      keccak256\n      0x00\n      swap1\n      sload\n      swap1\n      0x0100\n      exp\n      swap1\n      div\n      0xff\n      and\n        /* \"contracts/App.sol\":2390:2443  return elections[_electionId].hasVoted[_voterAddress] */\n      swap1\n      pop\n        /* \"contracts/App.sol\":2193:2450  function hasVoted( // Check whether the voter is voted in the election specified by electionID... */\n      swap3\n      swap2\n      pop\n      pop\n      jump\t// out\n        /* \"contracts/App.sol\":3573:4367  function getResultsFromElection( // Provide electionID, returns 2 arrays with first being all candidates(informations), second being their votes... */\n    tag_71:\n        /* \"contracts/App.sol\":3773:3791  Candidate[] memory */\n      0x60\n        /* \"contracts/App.sol\":3793:3809  uint256[] memory */\n      dup1\n        /* \"contracts/App.sol\":3821:3846  Election storage election */\n      0x00\n        /* \"contracts/App.sol\":3849:3858  elections */\n      0x02\n        /* \"contracts/App.sol\":3849:3871  elections[_electionID] */\n      0x00\n        /* \"contracts/App.sol\":3859:3870  _electionID */\n      dup6\n        /* \"contracts/App.sol\":3849:3871  elections[_electionID] */\n      dup2\n      mstore\n      0x20\n      add\n      swap1\n      dup2\n      mstore\n      0x20\n      add\n      0x00\n      keccak256\n        /* \"contracts/App.sol\":3821:3871  Election storage election = elections[_electionID] */\n      swap1\n      pop\n        /* \"contracts/App.sol\":3881:3902  uint256 numCandidates */\n      0x00\n        /* \"contracts/App.sol\":3905:3913  election */\n      dup2\n        /* \"contracts/App.sol\":3905:3932  election.candidateAddresses */\n      0x02\n      add\n        /* \"contracts/App.sol\":3905:3939  election.candidateAddresses.length */\n      dup1\n      sload\n      swap1\n      pop\n        /* \"contracts/App.sol\":3881:3939  uint256 numCandidates = election.candidateAddresses.length */\n      swap1\n      pop\n        /* \"contracts/App.sol\":3949:3974  Candidate[] memory result */\n      0x00\n        /* \"contracts/App.sol\":3993:4006  numCandidates */\n      dup2\n        /* \"contracts/App.sol\":3977:4007  new Candidate[](numCandidates) */\n      0xffffffffffffffff\n      dup2\n      gt\n      iszero\n      tag_199\n      jumpi\n      tag_200\n      tag_124\n      jump\t// in\n    tag_200:\n    tag_199:\n      mload(0x40)\n      swap1\n      dup1\n      dup3\n      mstore\n      dup1\n      0x20\n      mul\n      0x20\n      add\n      dup3\n      add\n      0x40\n      mstore\n      dup1\n      iszero\n      tag_201\n      jumpi\n      dup2\n      0x20\n      add\n    tag_202:\n      tag_203\n      tag_128\n      jump\t// in\n    tag_203:\n      dup2\n      mstore\n      0x20\n      add\n      swap1\n      0x01\n      swap1\n      sub\n      swap1\n      dup2\n      tag_202\n      jumpi\n      swap1\n      pop\n    tag_201:\n      pop\n        /* \"contracts/App.sol\":3949:4007  Candidate[] memory result = new Candidate[](numCandidates) */\n      swap1\n      pop\n        /* \"contracts/App.sol\":4017:4044  uint256[] memory voteCounts */\n      0x00\n        /* \"contracts/App.sol\":4061:4074  numCandidates */\n      dup3\n        /* \"contracts/App.sol\":4047:4075  new uint256[](numCandidates) */\n      0xffffffffffffffff\n      dup2\n      gt\n      iszero\n      tag_204\n      jumpi\n      tag_205\n      tag_124\n      jump\t// in\n    tag_205:\n    tag_204:\n      mload(0x40)\n      swap1\n      dup1\n      dup3\n      mstore\n      dup1\n      0x20\n      mul\n      0x20\n      add\n      dup3\n      add\n      0x40\n      mstore\n      dup1\n      iszero\n      tag_206\n      jumpi\n      dup2\n      0x20\n      add\n      0x20\n      dup3\n      mul\n      dup1\n      calldatasize\n      dup4\n      calldatacopy\n      dup1\n      dup3\n      add\n      swap2\n      pop\n      pop\n      swap1\n      pop\n    tag_206:\n      pop\n        /* \"contracts/App.sol\":4017:4075  uint256[] memory voteCounts = new uint256[](numCandidates) */\n      swap1\n      pop\n        /* \"contracts/App.sol\":4091:4100  uint256 i */\n      0x00\n        /* \"contracts/App.sol\":4086:4323  for (uint256 i = 0; i < numCandidates; i++) {... */\n    tag_207:\n        /* \"contracts/App.sol\":4110:4123  numCandidates */\n      dup4\n        /* \"contracts/App.sol\":4106:4107  i */\n      dup2\n        /* \"contracts/App.sol\":4106:4123  i < numCandidates */\n      lt\n        /* \"contracts/App.sol\":4086:4323  for (uint256 i = 0; i < numCandidates; i++) {... */\n      iszero\n      tag_208\n      jumpi\n        /* \"contracts/App.sol\":4144:4165  address candidateAddr */\n      0x00\n        /* \"contracts/App.sol\":4168:4176  election */\n      dup6\n        /* \"contracts/App.sol\":4168:4195  election.candidateAddresses */\n      0x02\n      add\n        /* \"contracts/App.sol\":4196:4197  i */\n      dup3\n        /* \"contracts/App.sol\":4168:4198  election.candidateAddresses[i] */\n      dup2\n      sload\n      dup2\n      lt\n      tag_210\n      jumpi\n      tag_211\n      tag_107\n      jump\t// in\n    tag_211:\n    tag_210:\n      swap1\n      0x00\n      mstore\n      keccak256(0x00, 0x20)\n      add\n      0x00\n      swap1\n      sload\n      swap1\n      0x0100\n      exp\n      swap1\n      div\n      0xffffffffffffffffffffffffffffffffffffffff\n      and\n        /* \"contracts/App.sol\":4144:4198  address candidateAddr = election.candidateAddresses[i] */\n      swap1\n      pop\n        /* \"contracts/App.sol\":4224:4234  candidates */\n      0x01\n        /* \"contracts/App.sol\":4224:4249  candidates[candidateAddr] */\n      0x00\n        /* \"contracts/App.sol\":4235:4248  candidateAddr */\n      dup3\n        /* \"contracts/App.sol\":4224:4249  candidates[candidateAddr] */\n      0xffffffffffffffffffffffffffffffffffffffff\n      and\n      0xffffffffffffffffffffffffffffffffffffffff\n      and\n      dup2\n      mstore\n      0x20\n      add\n      swap1\n      dup2\n      mstore\n      0x20\n      add\n      0x00\n      keccak256\n        /* \"contracts/App.sol\":4212:4249  result[i] = candidates[candidateAddr] */\n      mload(0x40)\n      dup1\n      0x60\n      add\n      0x40\n      mstore\n      swap1\n      dup2\n      0x00\n      dup3\n      add\n      dup1\n      sload\n      tag_213\n      swap1\n      tag_144\n      jump\t// in\n    tag_213:\n      dup1\n      0x1f\n      add\n      0x20\n      dup1\n      swap2\n      div\n      mul\n      0x20\n      add\n      mload(0x40)\n      swap1\n      dup2\n      add\n      0x40\n      mstore\n      dup1\n      swap3\n      swap2\n      swap1\n      dup2\n      dup2\n      mstore\n      0x20\n      add\n      dup3\n      dup1\n      sload\n      tag_214\n      swap1\n      tag_144\n      jump\t// in\n    tag_214:\n      dup1\n      iszero\n      tag_215\n      jumpi\n      dup1\n      0x1f\n      lt\n      tag_216\n      jumpi\n      0x0100\n      dup1\n      dup4\n      sload\n      div\n      mul\n      dup4\n      mstore\n      swap2\n      0x20\n      add\n      swap2\n      jump(tag_215)\n    tag_216:\n      dup3\n      add\n      swap2\n      swap1\n      0x00\n      mstore\n      keccak256(0x00, 0x20)\n      swap1\n    tag_217:\n      dup2\n      sload\n      dup2\n      mstore\n      swap1\n      0x01\n      add\n      swap1\n      0x20\n      add\n      dup1\n      dup4\n      gt\n      tag_217\n      jumpi\n      dup3\n      swap1\n      sub\n      0x1f\n      and\n      dup3\n      add\n      swap2\n    tag_215:\n      pop\n      pop\n      pop\n      pop\n      pop\n      dup2\n      mstore\n      0x20\n      add\n      0x01\n      dup3\n      add\n      dup1\n      sload\n      tag_218\n      swap1\n      tag_144\n      jump\t// in\n    tag_218:\n      dup1\n      0x1f\n      add\n      0x20\n      dup1\n      swap2\n      div\n      mul\n      0x20\n      add\n      mload(0x40)\n      swap1\n      dup2\n      add\n      0x40\n      mstore\n      dup1\n      swap3\n      swap2\n      swap1\n      dup2\n      dup2\n      mstore\n      0x20\n      add\n      dup3\n      dup1\n      sload\n      tag_219\n      swap1\n      tag_144\n      jump\t// in\n    tag_219:\n      dup1\n      iszero\n      tag_220\n      jumpi\n      dup1\n      0x1f\n      lt\n      tag_221\n      jumpi\n      0x0100\n      dup1\n      dup4\n      sload\n      div\n      mul\n      dup4\n      mstore\n      swap2\n      0x20\n      add\n      swap2\n      jump(tag_220)\n    tag_221:\n      dup3\n      add\n      swap2\n      swap1\n      0x00\n      mstore\n      keccak256(0x00, 0x20)\n      swap1\n    tag_222:\n      dup2\n      sload\n      dup2\n      mstore\n      swap1\n      0x01\n      add\n      swap1\n      0x20\n      add\n      dup1\n      dup4\n      gt\n      tag_222\n      jumpi\n      dup3\n      swap1\n      sub\n      0x1f\n      and\n      dup3\n      add\n      swap2\n    tag_220:\n      pop\n      pop\n      pop\n      pop\n      pop\n      dup2\n      mstore\n      0x20\n      add\n      0x02\n      dup3\n      add\n      dup1\n      sload\n      tag_223\n      swap1\n      tag_144\n      jump\t// in\n    tag_223:\n      dup1\n      0x1f\n      add\n      0x20\n      dup1\n      swap2\n      div\n      mul\n      0x20\n      add\n      mload(0x40)\n      swap1\n      dup2\n      add\n      0x40\n      mstore\n      dup1\n      swap3\n      swap2\n      swap1\n      dup2\n      dup2\n      mstore\n      0x20\n      add\n      dup3\n      dup1\n      sload\n      tag_224\n      swap1\n      tag_144\n      jump\t// in\n    tag_224:\n      dup1\n      iszero\n      tag_225\n      jumpi\n      dup1\n      0x1f\n      lt\n      tag_226\n      jumpi\n      0x0100\n      dup1\n      dup4\n      sload\n      div\n      mul\n      dup4\n      mstore\n      swap2\n      0x20\n      add\n      swap2\n      jump(tag_225)\n    tag_226:\n      dup3\n      add\n      swap2\n      swap1\n      0x00\n      mstore\n      keccak256(0x00, 0x20)\n      swap1\n    tag_227:\n      dup2\n      sload\n      dup2\n      mstore\n      swap1\n      0x01\n      add\n      swap1\n      0x20\n      add\n      dup1\n      dup4\n      gt\n      tag_227\n      jumpi\n      dup3\n      swap1\n      sub\n      0x1f\n      and\n      dup3\n      add\n      swap2\n    tag_225:\n      pop\n      pop\n      pop\n      pop\n      pop\n      dup2\n      mstore\n      pop\n      pop\n        /* \"contracts/App.sol\":4212:4218  result */\n      dup5\n        /* \"contracts/App.sol\":4219:4220  i */\n      dup4\n        /* \"contracts/App.sol\":4212:4221  result[i] */\n      dup2\n      mload\n      dup2\n      lt\n      tag_228\n      jumpi\n      tag_229\n      tag_107\n      jump\t// in\n    tag_229:\n    tag_228:\n      0x20\n      mul\n      0x20\n      add\n      add\n        /* \"contracts/App.sol\":4212:4249  result[i] = candidates[candidateAddr] */\n      dup2\n      swap1\n      mstore\n      pop\n        /* \"contracts/App.sol\":4279:4287  election */\n      dup6\n        /* \"contracts/App.sol\":4279:4297  election.voteCount */\n      0x04\n      add\n        /* \"contracts/App.sol\":4279:4312  election.voteCount[candidateAddr] */\n      0x00\n        /* \"contracts/App.sol\":4298:4311  candidateAddr */\n      dup3\n        /* \"contracts/App.sol\":4279:4312  election.voteCount[candidateAddr] */\n      0xffffffffffffffffffffffffffffffffffffffff\n      and\n      0xffffffffffffffffffffffffffffffffffffffff\n      and\n      dup2\n      mstore\n      0x20\n      add\n      swap1\n      dup2\n      mstore\n      0x20\n      add\n      0x00\n      keccak256\n      sload\n        /* \"contracts/App.sol\":4263:4273  voteCounts */\n      dup4\n        /* \"contracts/App.sol\":4274:4275  i */\n      dup4\n        /* \"contracts/App.sol\":4263:4276  voteCounts[i] */\n      dup2\n      mload\n      dup2\n      lt\n      tag_230\n      jumpi\n      tag_231\n      tag_107\n      jump\t// in\n    tag_231:\n    tag_230:\n      0x20\n      mul\n      0x20\n      add\n      add\n        /* \"contracts/App.sol\":4263:4312  voteCounts[i] = election.voteCount[candidateAddr] */\n      dup2\n      dup2\n      mstore\n      pop\n      pop\n        /* \"contracts/App.sol\":4130:4323  {... */\n      pop\n        /* \"contracts/App.sol\":4125:4128  i++ */\n      dup1\n      dup1\n      tag_232\n      swap1\n      tag_110\n      jump\t// in\n    tag_232:\n      swap2\n      pop\n      pop\n        /* \"contracts/App.sol\":4086:4323  for (uint256 i = 0; i < numCandidates; i++) {... */\n      jump(tag_207)\n    tag_208:\n      pop\n        /* \"contracts/App.sol\":4341:4347  result */\n      dup2\n        /* \"contracts/App.sol\":4349:4359  voteCounts */\n      dup2\n        /* \"contracts/App.sol\":4333:4360  return (result, voteCounts) */\n      swap6\n      pop\n      swap6\n      pop\n      pop\n      pop\n      pop\n      pop\n        /* \"contracts/App.sol\":3573:4367  function getResultsFromElection( // Provide electionID, returns 2 arrays with first being all candidates(informations), second being their votes... */\n      swap2\n      pop\n      swap2\n      jump\t// out\n        /* \"contracts/App.sol\":2456:3120  function vote( // Vote by given ElectionID and both addresses, Checks whether candidate is in the election and whether voter is voted. If so, emit errors. ... */\n    tag_77:\n        /* \"contracts/App.sol\":2734:2782  isValidCandidate(_electionId, _candidateAddress) */\n      tag_234\n        /* \"contracts/App.sol\":2751:2762  _electionId */\n      dup4\n        /* \"contracts/App.sol\":2764:2781  _candidateAddress */\n      dup3\n        /* \"contracts/App.sol\":2734:2750  isValidCandidate */\n      tag_235\n        /* \"contracts/App.sol\":2734:2782  isValidCandidate(_electionId, _candidateAddress) */\n      jump\t// in\n    tag_234:\n        /* \"contracts/App.sol\":2729:2848  if (!isValidCandidate(_electionId, _candidateAddress)) {... */\n      tag_236\n      jumpi\n        /* \"contracts/App.sol\":2803:2837  ErrorOccurred(\"Invalid candidate\") */\n      0xcc8610635659273962514cbb1e149386cc83625cb5595394a01869a0c3fbf7cb\n      mload(0x40)\n      tag_237\n      swap1\n      tag_238\n      jump\t// in\n    tag_237:\n      mload(0x40)\n      dup1\n      swap2\n      sub\n      swap1\n      log1\n        /* \"contracts/App.sol\":2729:2848  if (!isValidCandidate(_electionId, _candidateAddress)) {... */\n    tag_236:\n        /* \"contracts/App.sol\":2858:2883  Election storage election */\n      0x00\n        /* \"contracts/App.sol\":2886:2895  elections */\n      0x02\n        /* \"contracts/App.sol\":2886:2908  elections[_electionId] */\n      0x00\n        /* \"contracts/App.sol\":2896:2907  _electionId */\n      dup6\n        /* \"contracts/App.sol\":2886:2908  elections[_electionId] */\n      dup2\n      mstore\n      0x20\n      add\n      swap1\n      dup2\n      mstore\n      0x20\n      add\n      0x00\n      keccak256\n        /* \"contracts/App.sol\":2858:2908  Election storage election = elections[_electionId] */\n      swap1\n      pop\n        /* \"contracts/App.sol\":2923:2931  election */\n      dup1\n        /* \"contracts/App.sol\":2923:2940  election.hasVoted */\n      0x05\n      add\n        /* \"contracts/App.sol\":2923:2955  election.hasVoted[_voterAddress] */\n      0x00\n        /* \"contracts/App.sol\":2941:2954  _voterAddress */\n      dup5\n        /* \"contracts/App.sol\":2923:2955  election.hasVoted[_voterAddress] */\n      0xffffffffffffffffffffffffffffffffffffffff\n      and\n      0xffffffffffffffffffffffffffffffffffffffff\n      and\n      dup2\n      mstore\n      0x20\n      add\n      swap1\n      dup2\n      mstore\n      0x20\n      add\n      0x00\n      keccak256\n      0x00\n      swap1\n      sload\n      swap1\n      0x0100\n      exp\n      swap1\n      div\n      0xff\n      and\n        /* \"contracts/App.sol\":2919:3014  if (election.hasVoted[_voterAddress]) {... */\n      iszero\n      tag_239\n      jumpi\n        /* \"contracts/App.sol\":2976:3003  ErrorOccurred(\"User Voted\") */\n      0xcc8610635659273962514cbb1e149386cc83625cb5595394a01869a0c3fbf7cb\n      mload(0x40)\n      tag_240\n      swap1\n      tag_241\n      jump\t// in\n    tag_240:\n      mload(0x40)\n      dup1\n      swap2\n      sub\n      swap1\n      log1\n        /* \"contracts/App.sol\":2919:3014  if (election.hasVoted[_voterAddress]) {... */\n    tag_239:\n        /* \"contracts/App.sol\":3059:3063  true */\n      0x01\n        /* \"contracts/App.sol\":3024:3032  election */\n      dup2\n        /* \"contracts/App.sol\":3024:3041  election.hasVoted */\n      0x05\n      add\n        /* \"contracts/App.sol\":3024:3056  election.hasVoted[_voterAddress] */\n      0x00\n        /* \"contracts/App.sol\":3042:3055  _voterAddress */\n      dup6\n        /* \"contracts/App.sol\":3024:3056  election.hasVoted[_voterAddress] */\n      0xffffffffffffffffffffffffffffffffffffffff\n      and\n      0xffffffffffffffffffffffffffffffffffffffff\n      and\n      dup2\n      mstore\n      0x20\n      add\n      swap1\n      dup2\n      mstore\n      0x20\n      add\n      0x00\n      keccak256\n      0x00\n        /* \"contracts/App.sol\":3024:3063  election.hasVoted[_voterAddress] = true */\n      0x0100\n      exp\n      dup2\n      sload\n      dup2\n      0xff\n      mul\n      not\n      and\n      swap1\n      dup4\n      iszero\n      iszero\n      mul\n      or\n      swap1\n      sstore\n      pop\n        /* \"contracts/App.sol\":3074:3082  election */\n      dup1\n        /* \"contracts/App.sol\":3074:3092  election.voteCount */\n      0x04\n      add\n        /* \"contracts/App.sol\":3074:3111  election.voteCount[_candidateAddress] */\n      0x00\n        /* \"contracts/App.sol\":3093:3110  _candidateAddress */\n      dup4\n        /* \"contracts/App.sol\":3074:3111  election.voteCount[_candidateAddress] */\n      0xffffffffffffffffffffffffffffffffffffffff\n      and\n      0xffffffffffffffffffffffffffffffffffffffff\n      and\n      dup2\n      mstore\n      0x20\n      add\n      swap1\n      dup2\n      mstore\n      0x20\n      add\n      0x00\n      keccak256\n      0x00\n        /* \"contracts/App.sol\":3074:3113  election.voteCount[_candidateAddress]++ */\n      dup2\n      sload\n      dup1\n      swap3\n      swap2\n      swap1\n      tag_242\n      swap1\n      tag_110\n      jump\t// in\n    tag_242:\n      swap2\n      swap1\n      pop\n      sstore\n      pop\n        /* \"contracts/App.sol\":2719:3120  {... */\n      pop\n        /* \"contracts/App.sol\":2456:3120  function vote( // Vote by given ElectionID and both addresses, Checks whether candidate is in the election and whether voter is voted. If so, emit errors. ... */\n      pop\n      pop\n      pop\n      jump\t// out\n        /* \"contracts/App.sol\":2008:2187  function getCandidate( // Get candidate from address... */\n    tag_81:\n        /* \"contracts/App.sol\":2119:2135  Candidate memory */\n      tag_243\n      tag_128\n      jump\t// in\n    tag_243:\n        /* \"contracts/App.sol\":2154:2164  candidates */\n      0x01\n        /* \"contracts/App.sol\":2154:2180  candidates[_candidateAddr] */\n      0x00\n        /* \"contracts/App.sol\":2165:2179  _candidateAddr */\n      dup4\n        /* \"contracts/App.sol\":2154:2180  candidates[_candidateAddr] */\n      0xffffffffffffffffffffffffffffffffffffffff\n      and\n      0xffffffffffffffffffffffffffffffffffffffff\n      and\n      dup2\n      mstore\n      0x20\n      add\n      swap1\n      dup2\n      mstore\n      0x20\n      add\n      0x00\n      keccak256\n        /* \"contracts/App.sol\":2147:2180  return candidates[_candidateAddr] */\n      mload(0x40)\n      dup1\n      0x60\n      add\n      0x40\n      mstore\n      swap1\n      dup2\n      0x00\n      dup3\n      add\n      dup1\n      sload\n      tag_245\n      swap1\n      tag_144\n      jump\t// in\n    tag_245:\n      dup1\n      0x1f\n      add\n      0x20\n      dup1\n      swap2\n      div\n      mul\n      0x20\n      add\n      mload(0x40)\n      swap1\n      dup2\n      add\n      0x40\n      mstore\n      dup1\n      swap3\n      swap2\n      swap1\n      dup2\n      dup2\n      mstore\n      0x20\n      add\n      dup3\n      dup1\n      sload\n      tag_246\n      swap1\n      tag_144\n      jump\t// in\n    tag_246:\n      dup1\n      iszero\n      tag_247\n      jumpi\n      dup1\n      0x1f\n      lt\n      tag_248\n      jumpi\n      0x0100\n      dup1\n      dup4\n      sload\n      div\n      mul\n      dup4\n      mstore\n      swap2\n      0x20\n      add\n      swap2\n      jump(tag_247)\n    tag_248:\n      dup3\n      add\n      swap2\n      swap1\n      0x00\n      mstore\n      keccak256(0x00, 0x20)\n      swap1\n    tag_249:\n      dup2\n      sload\n      dup2\n      mstore\n      swap1\n      0x01\n      add\n      swap1\n      0x20\n      add\n      dup1\n      dup4\n      gt\n      tag_249\n      jumpi\n      dup3\n      swap1\n      sub\n      0x1f\n      and\n      dup3\n      add\n      swap2\n    tag_247:\n      pop\n      pop\n      pop\n      pop\n      pop\n      dup2\n      mstore\n      0x20\n      add\n      0x01\n      dup3\n      add\n      dup1\n      sload\n      tag_250\n      swap1\n      tag_144\n      jump\t// in\n    tag_250:\n      dup1\n      0x1f\n      add\n      0x20\n      dup1\n      swap2\n      div\n      mul\n      0x20\n      add\n      mload(0x40)\n      swap1\n      dup2\n      add\n      0x40\n      mstore\n      dup1\n      swap3\n      swap2\n      swap1\n      dup2\n      dup2\n      mstore\n      0x20\n      add\n      dup3\n      dup1\n      sload\n      tag_251\n      swap1\n      tag_144\n      jump\t// in\n    tag_251:\n      dup1\n      iszero\n      tag_252\n      jumpi\n      dup1\n      0x1f\n      lt\n      tag_253\n      jumpi\n      0x0100\n      dup1\n      dup4\n      sload\n      div\n      mul\n      dup4\n      mstore\n      swap2\n      0x20\n      add\n      swap2\n      jump(tag_252)\n    tag_253:\n      dup3\n      add\n      swap2\n      swap1\n      0x00\n      mstore\n      keccak256(0x00, 0x20)\n      swap1\n    tag_254:\n      dup2\n      sload\n      dup2\n      mstore\n      swap1\n      0x01\n      add\n      swap1\n      0x20\n      add\n      dup1\n      dup4\n      gt\n      tag_254\n      jumpi\n      dup3\n      swap1\n      sub\n      0x1f\n      and\n      dup3\n      add\n      swap2\n    tag_252:\n      pop\n      pop\n      pop\n      pop\n      pop\n      dup2\n      mstore\n      0x20\n      add\n      0x02\n      dup3\n      add\n      dup1\n      sload\n      tag_255\n      swap1\n      tag_144\n      jump\t// in\n    tag_255:\n      dup1\n      0x1f\n      add\n      0x20\n      dup1\n      swap2\n      div\n      mul\n      0x20\n      add\n      mload(0x40)\n      swap1\n      dup2\n      add\n      0x40\n      mstore\n      dup1\n      swap3\n      swap2\n      swap1\n      dup2\n      dup2\n      mstore\n      0x20\n      add\n      dup3\n      dup1\n      sload\n      tag_256\n      swap1\n      tag_144\n      jump\t// in\n    tag_256:\n      dup1\n      iszero\n      tag_257\n      jumpi\n      dup1\n      0x1f\n      lt\n      tag_258\n      jumpi\n      0x0100\n      dup1\n      dup4\n      sload\n      div\n      mul\n      dup4\n      mstore\n      swap2\n      0x20\n      add\n      swap2\n      jump(tag_257)\n    tag_258:\n      dup3\n      add\n      swap2\n      swap1\n      0x00\n      mstore\n      keccak256(0x00, 0x20)\n      swap1\n    tag_259:\n      dup2\n      sload\n      dup2\n      mstore\n      swap1\n      0x01\n      add\n      swap1\n      0x20\n      add\n      dup1\n      dup4\n      gt\n      tag_259\n      jumpi\n      dup3\n      swap1\n      sub\n      0x1f\n      and\n      dup3\n      add\n      swap2\n    tag_257:\n      pop\n      pop\n      pop\n      pop\n      pop\n      dup2\n      mstore\n      pop\n      pop\n      swap1\n      pop\n        /* \"contracts/App.sol\":2008:2187  function getCandidate( // Get candidate from address... */\n      swap2\n      swap1\n      pop\n      jump\t// out\n        /* \"contracts/App.sol\":6274:6459  function addCandidateToElection(... */\n    tag_86:\n        /* \"contracts/App.sol\":6390:6399  elections */\n      0x02\n        /* \"contracts/App.sol\":6390:6412  elections[_electionID] */\n      0x00\n        /* \"contracts/App.sol\":6400:6411  _electionID */\n      dup4\n        /* \"contracts/App.sol\":6390:6412  elections[_electionID] */\n      dup2\n      mstore\n      0x20\n      add\n      swap1\n      dup2\n      mstore\n      0x20\n      add\n      0x00\n      keccak256\n        /* \"contracts/App.sol\":6390:6431  elections[_electionID].candidateAddresses */\n      0x02\n      add\n        /* \"contracts/App.sol\":6437:6451  _candidateAddr */\n      dup2\n        /* \"contracts/App.sol\":6390:6452  elections[_electionID].candidateAddresses.push(_candidateAddr) */\n      swap1\n      dup1\n      0x01\n      dup2\n      sload\n      add\n      dup1\n      dup3\n      sstore\n      dup1\n      swap2\n      pop\n      pop\n      0x01\n      swap1\n      sub\n      swap1\n      0x00\n      mstore\n      keccak256(0x00, 0x20)\n      add\n      0x00\n      swap1\n      swap2\n      swap1\n      swap2\n      swap1\n      swap2\n      0x0100\n      exp\n      dup2\n      sload\n      dup2\n      0xffffffffffffffffffffffffffffffffffffffff\n      mul\n      not\n      and\n      swap1\n      dup4\n      0xffffffffffffffffffffffffffffffffffffffff\n      and\n      mul\n      or\n      swap1\n      sstore\n      pop\n        /* \"contracts/App.sol\":6274:6459  function addCandidateToElection(... */\n      pop\n      pop\n      jump\t// out\n        /* \"contracts/App.sol\":956:991  address[] public candidateAddresses */\n    tag_90:\n      0x03\n      dup2\n      dup2\n      sload\n      dup2\n      lt\n      tag_262\n      jumpi\n      0x00\n      dup1\n      revert\n    tag_262:\n      swap1\n      0x00\n      mstore\n      keccak256(0x00, 0x20)\n      add\n      0x00\n      swap2\n      pop\n      sload\n      swap1\n      0x0100\n      exp\n      swap1\n      div\n      0xffffffffffffffffffffffffffffffffffffffff\n      and\n      dup2\n      jump\t// out\n        /* \"contracts/App.sol\":6465:6705  function getCandidateAddressesForElection( // Used to check all the current candidates in an election... */\n    tag_94:\n        /* \"contracts/App.sol\":6622:6638  address[] memory */\n      0x60\n        /* \"contracts/App.sol\":6657:6666  elections */\n      0x02\n        /* \"contracts/App.sol\":6657:6679  elections[_electionID] */\n      0x00\n        /* \"contracts/App.sol\":6667:6678  _electionID */\n      dup4\n        /* \"contracts/App.sol\":6657:6679  elections[_electionID] */\n      dup2\n      mstore\n      0x20\n      add\n      swap1\n      dup2\n      mstore\n      0x20\n      add\n      0x00\n      keccak256\n        /* \"contracts/App.sol\":6657:6698  elections[_electionID].candidateAddresses */\n      0x02\n      add\n        /* \"contracts/App.sol\":6650:6698  return elections[_electionID].candidateAddresses */\n      dup1\n      sload\n      dup1\n      0x20\n      mul\n      0x20\n      add\n      mload(0x40)\n      swap1\n      dup2\n      add\n      0x40\n      mstore\n      dup1\n      swap3\n      swap2\n      swap1\n      dup2\n      dup2\n      mstore\n      0x20\n      add\n      dup3\n      dup1\n      sload\n      dup1\n      iszero\n      tag_265\n      jumpi\n      0x20\n      mul\n      dup3\n      add\n      swap2\n      swap1\n      0x00\n      mstore\n      keccak256(0x00, 0x20)\n      swap1\n    tag_266:\n      dup2\n      0x00\n      swap1\n      sload\n      swap1\n      0x0100\n      exp\n      swap1\n      div\n      0xffffffffffffffffffffffffffffffffffffffff\n      and\n      0xffffffffffffffffffffffffffffffffffffffff\n      and\n      dup2\n      mstore\n      0x20\n      add\n      swap1\n      0x01\n      add\n      swap1\n      dup1\n      dup4\n      gt\n      tag_266\n      jumpi\n    tag_265:\n      pop\n      pop\n      pop\n      pop\n      pop\n      swap1\n      pop\n        /* \"contracts/App.sol\":6465:6705  function getCandidateAddressesForElection( // Used to check all the current candidates in an election... */\n      swap2\n      swap1\n      pop\n      jump\t// out\n        /* \"contracts/App.sol\":4755:4948  function getCandidateAddress(uint256 _index) public view returns (address) { // Given an index in candidate array, return the address (Not used)... */\n    tag_99:\n        /* \"contracts/App.sol\":4821:4828  address */\n      0x00\n        /* \"contracts/App.sol\":4915:4933  candidateAddresses */\n      0x03\n        /* \"contracts/App.sol\":4934:4940  _index */\n      dup3\n        /* \"contracts/App.sol\":4915:4941  candidateAddresses[_index] */\n      dup2\n      sload\n      dup2\n      lt\n      tag_268\n      jumpi\n      tag_269\n      tag_107\n      jump\t// in\n    tag_269:\n    tag_268:\n      swap1\n      0x00\n      mstore\n      keccak256(0x00, 0x20)\n      add\n      0x00\n      swap1\n      sload\n      swap1\n      0x0100\n      exp\n      swap1\n      div\n      0xffffffffffffffffffffffffffffffffffffffff\n      and\n        /* \"contracts/App.sol\":4908:4941  return candidateAddresses[_index] */\n      swap1\n      pop\n        /* \"contracts/App.sol\":4755:4948  function getCandidateAddress(uint256 _index) public view returns (address) { // Given an index in candidate array, return the address (Not used)... */\n      swap2\n      swap1\n      pop\n      jump\t// out\n        /* \"contracts/App.sol\":7185:7329  function incrementBytes32(bytes32 _value) private pure returns (bytes32) { // Helper function... */\n    tag_139:\n        /* \"contracts/App.sol\":7249:7256  bytes32 */\n      0x00\n        /* \"contracts/App.sol\":7320:7321  1 */\n      0x01\n        /* \"contracts/App.sol\":7310:7316  _value */\n      dup3\n        /* \"contracts/App.sol\":7302:7317  uint256(_value) */\n      0x00\n      shr\n        /* \"contracts/App.sol\":7302:7321  uint256(_value) + 1 */\n      tag_272\n      swap2\n      swap1\n      tag_273\n      jump\t// in\n    tag_272:\n        /* \"contracts/App.sol\":7294:7322  bytes32(uint256(_value) + 1) */\n      0x00\n      shl\n        /* \"contracts/App.sol\":7287:7322  return bytes32(uint256(_value) + 1) */\n      swap1\n      pop\n        /* \"contracts/App.sol\":7185:7329  function incrementBytes32(bytes32 _value) private pure returns (bytes32) { // Helper function... */\n      swap2\n      swap1\n      pop\n      jump\t// out\n        /* \"contracts/App.sol\":3126:3567  function isValidCandidate( // Helper function used in vote()... */\n    tag_235:\n        /* \"contracts/App.sol\":3276:3280  bool */\n      0x00\n        /* \"contracts/App.sol\":3292:3317  Election storage election */\n      dup1\n        /* \"contracts/App.sol\":3320:3329  elections */\n      0x02\n        /* \"contracts/App.sol\":3320:3342  elections[_electionId] */\n      0x00\n        /* \"contracts/App.sol\":3330:3341  _electionId */\n      dup6\n        /* \"contracts/App.sol\":3320:3342  elections[_electionId] */\n      dup2\n      mstore\n      0x20\n      add\n      swap1\n      dup2\n      mstore\n      0x20\n      add\n      0x00\n      keccak256\n        /* \"contracts/App.sol\":3292:3342  Election storage election = elections[_electionId] */\n      swap1\n      pop\n        /* \"contracts/App.sol\":3357:3366  uint256 i */\n      0x00\n        /* \"contracts/App.sol\":3352:3539  for (uint256 i = 0; i < election.candidateAddresses.length; i++) {... */\n    tag_275:\n        /* \"contracts/App.sol\":3376:3384  election */\n      dup2\n        /* \"contracts/App.sol\":3376:3403  election.candidateAddresses */\n      0x02\n      add\n        /* \"contracts/App.sol\":3376:3410  election.candidateAddresses.length */\n      dup1\n      sload\n      swap1\n      pop\n        /* \"contracts/App.sol\":3372:3373  i */\n      dup2\n        /* \"contracts/App.sol\":3372:3410  i < election.candidateAddresses.length */\n      lt\n        /* \"contracts/App.sol\":3352:3539  for (uint256 i = 0; i < election.candidateAddresses.length; i++) {... */\n      iszero\n      tag_276\n      jumpi\n        /* \"contracts/App.sol\":3469:3483  _candidateAddr */\n      dup4\n        /* \"contracts/App.sol\":3435:3483  election.candidateAddresses[i] == _candidateAddr */\n      0xffffffffffffffffffffffffffffffffffffffff\n      and\n        /* \"contracts/App.sol\":3435:3443  election */\n      dup3\n        /* \"contracts/App.sol\":3435:3462  election.candidateAddresses */\n      0x02\n      add\n        /* \"contracts/App.sol\":3463:3464  i */\n      dup3\n        /* \"contracts/App.sol\":3435:3465  election.candidateAddresses[i] */\n      dup2\n      sload\n      dup2\n      lt\n      tag_278\n      jumpi\n      tag_279\n      tag_107\n      jump\t// in\n    tag_279:\n    tag_278:\n      swap1\n      0x00\n      mstore\n      keccak256(0x00, 0x20)\n      add\n      0x00\n      swap1\n      sload\n      swap1\n      0x0100\n      exp\n      swap1\n      div\n      0xffffffffffffffffffffffffffffffffffffffff\n      and\n        /* \"contracts/App.sol\":3435:3483  election.candidateAddresses[i] == _candidateAddr */\n      0xffffffffffffffffffffffffffffffffffffffff\n      and\n      sub\n        /* \"contracts/App.sol\":3431:3529  if (election.candidateAddresses[i] == _candidateAddr) {... */\n      tag_281\n      jumpi\n        /* \"contracts/App.sol\":3510:3514  true */\n      0x01\n        /* \"contracts/App.sol\":3503:3514  return true */\n      swap3\n      pop\n      pop\n      pop\n      jump(tag_274)\n        /* \"contracts/App.sol\":3431:3529  if (election.candidateAddresses[i] == _candidateAddr) {... */\n    tag_281:\n        /* \"contracts/App.sol\":3412:3415  i++ */\n      dup1\n      dup1\n      tag_282\n      swap1\n      tag_110\n      jump\t// in\n    tag_282:\n      swap2\n      pop\n      pop\n        /* \"contracts/App.sol\":3352:3539  for (uint256 i = 0; i < election.candidateAddresses.length; i++) {... */\n      jump(tag_275)\n    tag_276:\n      pop\n        /* \"contracts/App.sol\":3555:3560  false */\n      0x00\n        /* \"contracts/App.sol\":3548:3560  return false */\n      swap2\n      pop\n      pop\n        /* \"contracts/App.sol\":3126:3567  function isValidCandidate( // Helper function used in vote()... */\n    tag_274:\n      swap3\n      swap2\n      pop\n      pop\n      jump\t// out\n    tag_128:\n      mload(0x40)\n      dup1\n      0x60\n      add\n      0x40\n      mstore\n      dup1\n      0x60\n      dup2\n      mstore\n      0x20\n      add\n      0x60\n      dup2\n      mstore\n      0x20\n      add\n      0x60\n      dup2\n      mstore\n      pop\n      swap1\n      jump\t// out\n    tag_141:\n      dup3\n      dup1\n      sload\n      dup3\n      dup3\n      sstore\n      swap1\n      0x00\n      mstore\n      keccak256(0x00, 0x20)\n      swap1\n      dup2\n      add\n      swap3\n      dup3\n      iszero\n      tag_283\n      jumpi\n      swap2\n      0x20\n      mul\n      dup3\n      add\n    tag_284:\n      dup3\n      dup2\n      gt\n      iszero\n      tag_285\n      jumpi\n      dup3\n      mload\n      dup3\n      exp(0x0100, 0x00)\n      dup2\n      sload\n      dup2\n      0xffffffffffffffffffffffffffffffffffffffff\n      mul\n      not\n      and\n      swap1\n      dup4\n      0xffffffffffffffffffffffffffffffffffffffff\n      and\n      mul\n      or\n      swap1\n      sstore\n      pop\n      swap2\n      0x20\n      add\n      swap2\n      swap1\n      0x01\n      add\n      swap1\n      jump(tag_284)\n    tag_285:\n    tag_283:\n      pop\n      swap1\n      pop\n      tag_286\n      swap2\n      swap1\n      tag_287\n      jump\t// in\n    tag_286:\n      pop\n      swap1\n      jump\t// out\n    tag_287:\n    tag_288:\n      dup1\n      dup3\n      gt\n      iszero\n      tag_289\n      jumpi\n      0x00\n      dup2\n      0x00\n      swap1\n      sstore\n      pop\n      0x01\n      add\n      jump(tag_288)\n    tag_289:\n      pop\n      swap1\n      jump\t// out\n        /* \"#utility.yul\":7:82   */\n    tag_290:\n        /* \"#utility.yul\":40:46   */\n      0x00\n        /* \"#utility.yul\":73:75   */\n      0x40\n        /* \"#utility.yul\":67:76   */\n      mload\n        /* \"#utility.yul\":57:76   */\n      swap1\n      pop\n        /* \"#utility.yul\":7:82   */\n      swap1\n      jump\t// out\n        /* \"#utility.yul\":88:205   */\n    tag_291:\n        /* \"#utility.yul\":197:198   */\n      0x00\n        /* \"#utility.yul\":194:195   */\n      dup1\n        /* \"#utility.yul\":187:199   */\n      revert\n        /* \"#utility.yul\":211:328   */\n    tag_292:\n        /* \"#utility.yul\":320:321   */\n      0x00\n        /* \"#utility.yul\":317:318   */\n      dup1\n        /* \"#utility.yul\":310:322   */\n      revert\n        /* \"#utility.yul\":334:451   */\n    tag_293:\n        /* \"#utility.yul\":443:444   */\n      0x00\n        /* \"#utility.yul\":440:441   */\n      dup1\n        /* \"#utility.yul\":433:445   */\n      revert\n        /* \"#utility.yul\":457:559   */\n    tag_294:\n        /* \"#utility.yul\":498:504   */\n      0x00\n        /* \"#utility.yul\":549:551   */\n      0x1f\n        /* \"#utility.yul\":545:552   */\n      not\n        /* \"#utility.yul\":540:542   */\n      0x1f\n        /* \"#utility.yul\":533:538   */\n      dup4\n        /* \"#utility.yul\":529:543   */\n      add\n        /* \"#utility.yul\":525:553   */\n      and\n        /* \"#utility.yul\":515:553   */\n      swap1\n      pop\n        /* \"#utility.yul\":457:559   */\n      swap2\n      swap1\n      pop\n      jump\t// out\n        /* \"#utility.yul\":565:745   */\n    tag_124:\n        /* \"#utility.yul\":613:690   */\n      0x4e487b7100000000000000000000000000000000000000000000000000000000\n        /* \"#utility.yul\":610:611   */\n      0x00\n        /* \"#utility.yul\":603:691   */\n      mstore\n        /* \"#utility.yul\":710:714   */\n      0x41\n        /* \"#utility.yul\":707:708   */\n      0x04\n        /* \"#utility.yul\":700:715   */\n      mstore\n        /* \"#utility.yul\":734:738   */\n      0x24\n        /* \"#utility.yul\":731:732   */\n      0x00\n        /* \"#utility.yul\":724:739   */\n      revert\n        /* \"#utility.yul\":751:1032   */\n    tag_295:\n        /* \"#utility.yul\":834:861   */\n      tag_381\n        /* \"#utility.yul\":856:860   */\n      dup3\n        /* \"#utility.yul\":834:861   */\n      tag_294\n      jump\t// in\n    tag_381:\n        /* \"#utility.yul\":826:832   */\n      dup2\n        /* \"#utility.yul\":822:862   */\n      add\n        /* \"#utility.yul\":964:970   */\n      dup2\n        /* \"#utility.yul\":952:962   */\n      dup2\n        /* \"#utility.yul\":949:971   */\n      lt\n        /* \"#utility.yul\":928:946   */\n      0xffffffffffffffff\n        /* \"#utility.yul\":916:926   */\n      dup3\n        /* \"#utility.yul\":913:947   */\n      gt\n        /* \"#utility.yul\":910:972   */\n      or\n        /* \"#utility.yul\":907:995   */\n      iszero\n      tag_382\n      jumpi\n        /* \"#utility.yul\":975:993   */\n      tag_383\n      tag_124\n      jump\t// in\n    tag_383:\n        /* \"#utility.yul\":907:995   */\n    tag_382:\n        /* \"#utility.yul\":1015:1025   */\n      dup1\n        /* \"#utility.yul\":1011:1013   */\n      0x40\n        /* \"#utility.yul\":1004:1026   */\n      mstore\n        /* \"#utility.yul\":794:1032   */\n      pop\n        /* \"#utility.yul\":751:1032   */\n      pop\n      pop\n      jump\t// out\n        /* \"#utility.yul\":1038:1167   */\n    tag_296:\n        /* \"#utility.yul\":1072:1078   */\n      0x00\n        /* \"#utility.yul\":1099:1119   */\n      tag_385\n      tag_290\n      jump\t// in\n    tag_385:\n        /* \"#utility.yul\":1089:1119   */\n      swap1\n      pop\n        /* \"#utility.yul\":1128:1161   */\n      tag_386\n        /* \"#utility.yul\":1156:1160   */\n      dup3\n        /* \"#utility.yul\":1148:1154   */\n      dup3\n        /* \"#utility.yul\":1128:1161   */\n      tag_295\n      jump\t// in\n    tag_386:\n        /* \"#utility.yul\":1038:1167   */\n      swap2\n      swap1\n      pop\n      jump\t// out\n        /* \"#utility.yul\":1173:1484   */\n    tag_297:\n        /* \"#utility.yul\":1250:1254   */\n      0x00\n        /* \"#utility.yul\":1340:1358   */\n      0xffffffffffffffff\n        /* \"#utility.yul\":1332:1338   */\n      dup3\n        /* \"#utility.yul\":1329:1359   */\n      gt\n        /* \"#utility.yul\":1326:1382   */\n      iszero\n      tag_388\n      jumpi\n        /* \"#utility.yul\":1362:1380   */\n      tag_389\n      tag_124\n      jump\t// in\n    tag_389:\n        /* \"#utility.yul\":1326:1382   */\n    tag_388:\n        /* \"#utility.yul\":1412:1416   */\n      0x20\n        /* \"#utility.yul\":1404:1410   */\n      dup3\n        /* \"#utility.yul\":1400:1417   */\n      mul\n        /* \"#utility.yul\":1392:1417   */\n      swap1\n      pop\n        /* \"#utility.yul\":1472:1476   */\n      0x20\n        /* \"#utility.yul\":1466:1470   */\n      dup2\n        /* \"#utility.yul\":1462:1477   */\n      add\n        /* \"#utility.yul\":1454:1477   */\n      swap1\n      pop\n        /* \"#utility.yul\":1173:1484   */\n      swap2\n      swap1\n      pop\n      jump\t// out\n        /* \"#utility.yul\":1490:1607   */\n    tag_298:\n        /* \"#utility.yul\":1599:1600   */\n      0x00\n        /* \"#utility.yul\":1596:1597   */\n      dup1\n        /* \"#utility.yul\":1589:1601   */\n      revert\n        /* \"#utility.yul\":1613:1739   */\n    tag_299:\n        /* \"#utility.yul\":1650:1657   */\n      0x00\n        /* \"#utility.yul\":1690:1732   */\n      0xffffffffffffffffffffffffffffffffffffffff\n        /* \"#utility.yul\":1683:1688   */\n      dup3\n        /* \"#utility.yul\":1679:1733   */\n      and\n        /* \"#utility.yul\":1668:1733   */\n      swap1\n      pop\n        /* \"#utility.yul\":1613:1739   */\n      swap2\n      swap1\n      pop\n      jump\t// out\n        /* \"#utility.yul\":1745:1841   */\n    tag_300:\n        /* \"#utility.yul\":1782:1789   */\n      0x00\n        /* \"#utility.yul\":1811:1835   */\n      tag_393\n        /* \"#utility.yul\":1829:1834   */\n      dup3\n        /* \"#utility.yul\":1811:1835   */\n      tag_299\n      jump\t// in\n    tag_393:\n        /* \"#utility.yul\":1800:1835   */\n      swap1\n      pop\n        /* \"#utility.yul\":1745:1841   */\n      swap2\n      swap1\n      pop\n      jump\t// out\n        /* \"#utility.yul\":1847:1969   */\n    tag_301:\n        /* \"#utility.yul\":1920:1944   */\n      tag_395\n        /* \"#utility.yul\":1938:1943   */\n      dup2\n        /* \"#utility.yul\":1920:1944   */\n      tag_300\n      jump\t// in\n    tag_395:\n        /* \"#utility.yul\":1913:1918   */\n      dup2\n        /* \"#utility.yul\":1910:1945   */\n      eq\n        /* \"#utility.yul\":1900:1963   */\n      tag_396\n      jumpi\n        /* \"#utility.yul\":1959:1960   */\n      0x00\n        /* \"#utility.yul\":1956:1957   */\n      dup1\n        /* \"#utility.yul\":1949:1961   */\n      revert\n        /* \"#utility.yul\":1900:1963   */\n    tag_396:\n        /* \"#utility.yul\":1847:1969   */\n      pop\n      jump\t// out\n        /* \"#utility.yul\":1975:2114   */\n    tag_302:\n        /* \"#utility.yul\":2021:2026   */\n      0x00\n        /* \"#utility.yul\":2059:2065   */\n      dup2\n        /* \"#utility.yul\":2046:2066   */\n      calldataload\n        /* \"#utility.yul\":2037:2066   */\n      swap1\n      pop\n        /* \"#utility.yul\":2075:2108   */\n      tag_398\n        /* \"#utility.yul\":2102:2107   */\n      dup2\n        /* \"#utility.yul\":2075:2108   */\n      tag_301\n      jump\t// in\n    tag_398:\n        /* \"#utility.yul\":1975:2114   */\n      swap3\n      swap2\n      pop\n      pop\n      jump\t// out\n        /* \"#utility.yul\":2137:2847   */\n    tag_303:\n        /* \"#utility.yul\":2233:2238   */\n      0x00\n        /* \"#utility.yul\":2258:2339   */\n      tag_400\n        /* \"#utility.yul\":2274:2338   */\n      tag_401\n        /* \"#utility.yul\":2331:2337   */\n      dup5\n        /* \"#utility.yul\":2274:2338   */\n      tag_297\n      jump\t// in\n    tag_401:\n        /* \"#utility.yul\":2258:2339   */\n      tag_296\n      jump\t// in\n    tag_400:\n        /* \"#utility.yul\":2249:2339   */\n      swap1\n      pop\n        /* \"#utility.yul\":2359:2364   */\n      dup1\n        /* \"#utility.yul\":2388:2394   */\n      dup4\n        /* \"#utility.yul\":2381:2386   */\n      dup3\n        /* \"#utility.yul\":2374:2395   */\n      mstore\n        /* \"#utility.yul\":2422:2426   */\n      0x20\n        /* \"#utility.yul\":2415:2420   */\n      dup3\n        /* \"#utility.yul\":2411:2427   */\n      add\n        /* \"#utility.yul\":2404:2427   */\n      swap1\n      pop\n        /* \"#utility.yul\":2475:2479   */\n      0x20\n        /* \"#utility.yul\":2467:2473   */\n      dup5\n        /* \"#utility.yul\":2463:2480   */\n      mul\n        /* \"#utility.yul\":2455:2461   */\n      dup4\n        /* \"#utility.yul\":2451:2481   */\n      add\n        /* \"#utility.yul\":2504:2507   */\n      dup6\n        /* \"#utility.yul\":2496:2502   */\n      dup2\n        /* \"#utility.yul\":2493:2508   */\n      gt\n        /* \"#utility.yul\":2490:2612   */\n      iszero\n      tag_402\n      jumpi\n        /* \"#utility.yul\":2523:2602   */\n      tag_403\n      tag_298\n      jump\t// in\n    tag_403:\n        /* \"#utility.yul\":2490:2612   */\n    tag_402:\n        /* \"#utility.yul\":2638:2644   */\n      dup4\n        /* \"#utility.yul\":2621:2841   */\n    tag_404:\n        /* \"#utility.yul\":2655:2661   */\n      dup2\n        /* \"#utility.yul\":2650:2653   */\n      dup2\n        /* \"#utility.yul\":2647:2662   */\n      lt\n        /* \"#utility.yul\":2621:2841   */\n      iszero\n      tag_406\n      jumpi\n        /* \"#utility.yul\":2730:2733   */\n      dup1\n        /* \"#utility.yul\":2759:2796   */\n      tag_407\n        /* \"#utility.yul\":2792:2795   */\n      dup9\n        /* \"#utility.yul\":2780:2790   */\n      dup3\n        /* \"#utility.yul\":2759:2796   */\n      tag_302\n      jump\t// in\n    tag_407:\n        /* \"#utility.yul\":2754:2757   */\n      dup5\n        /* \"#utility.yul\":2747:2797   */\n      mstore\n        /* \"#utility.yul\":2826:2830   */\n      0x20\n        /* \"#utility.yul\":2821:2824   */\n      dup5\n        /* \"#utility.yul\":2817:2831   */\n      add\n        /* \"#utility.yul\":2810:2831   */\n      swap4\n      pop\n        /* \"#utility.yul\":2697:2841   */\n      pop\n        /* \"#utility.yul\":2681:2685   */\n      0x20\n        /* \"#utility.yul\":2676:2679   */\n      dup2\n        /* \"#utility.yul\":2672:2686   */\n      add\n        /* \"#utility.yul\":2665:2686   */\n      swap1\n      pop\n        /* \"#utility.yul\":2621:2841   */\n      jump(tag_404)\n    tag_406:\n        /* \"#utility.yul\":2625:2646   */\n      pop\n        /* \"#utility.yul\":2239:2847   */\n      pop\n      pop\n        /* \"#utility.yul\":2137:2847   */\n      swap4\n      swap3\n      pop\n      pop\n      pop\n      jump\t// out\n        /* \"#utility.yul\":2870:3240   */\n    tag_304:\n        /* \"#utility.yul\":2941:2946   */\n      0x00\n        /* \"#utility.yul\":2990:2993   */\n      dup3\n        /* \"#utility.yul\":2983:2987   */\n      0x1f\n        /* \"#utility.yul\":2975:2981   */\n      dup4\n        /* \"#utility.yul\":2971:2988   */\n      add\n        /* \"#utility.yul\":2967:2994   */\n      slt\n        /* \"#utility.yul\":2957:3079   */\n      tag_409\n      jumpi\n        /* \"#utility.yul\":2998:3077   */\n      tag_410\n      tag_293\n      jump\t// in\n    tag_410:\n        /* \"#utility.yul\":2957:3079   */\n    tag_409:\n        /* \"#utility.yul\":3115:3121   */\n      dup2\n        /* \"#utility.yul\":3102:3122   */\n      calldataload\n        /* \"#utility.yul\":3140:3234   */\n      tag_411\n        /* \"#utility.yul\":3230:3233   */\n      dup5\n        /* \"#utility.yul\":3222:3228   */\n      dup3\n        /* \"#utility.yul\":3215:3219   */\n      0x20\n        /* \"#utility.yul\":3207:3213   */\n      dup7\n        /* \"#utility.yul\":3203:3220   */\n      add\n        /* \"#utility.yul\":3140:3234   */\n      tag_303\n      jump\t// in\n    tag_411:\n        /* \"#utility.yul\":3131:3234   */\n      swap2\n      pop\n        /* \"#utility.yul\":2947:3240   */\n      pop\n        /* \"#utility.yul\":2870:3240   */\n      swap3\n      swap2\n      pop\n      pop\n      jump\t// out\n        /* \"#utility.yul\":3246:3930   */\n    tag_25:\n        /* \"#utility.yul\":3339:3345   */\n      0x00\n        /* \"#utility.yul\":3347:3353   */\n      dup1\n        /* \"#utility.yul\":3396:3398   */\n      0x40\n        /* \"#utility.yul\":3384:3393   */\n      dup4\n        /* \"#utility.yul\":3375:3382   */\n      dup6\n        /* \"#utility.yul\":3371:3394   */\n      sub\n        /* \"#utility.yul\":3367:3399   */\n      slt\n        /* \"#utility.yul\":3364:3483   */\n      iszero\n      tag_413\n      jumpi\n        /* \"#utility.yul\":3402:3481   */\n      tag_414\n      tag_291\n      jump\t// in\n    tag_414:\n        /* \"#utility.yul\":3364:3483   */\n    tag_413:\n        /* \"#utility.yul\":3550:3551   */\n      0x00\n        /* \"#utility.yul\":3539:3548   */\n      dup4\n        /* \"#utility.yul\":3535:3552   */\n      add\n        /* \"#utility.yul\":3522:3553   */\n      calldataload\n        /* \"#utility.yul\":3580:3598   */\n      0xffffffffffffffff\n        /* \"#utility.yul\":3572:3578   */\n      dup2\n        /* \"#utility.yul\":3569:3599   */\n      gt\n        /* \"#utility.yul\":3566:3683   */\n      iszero\n      tag_415\n      jumpi\n        /* \"#utility.yul\":3602:3681   */\n      tag_416\n      tag_292\n      jump\t// in\n    tag_416:\n        /* \"#utility.yul\":3566:3683   */\n    tag_415:\n        /* \"#utility.yul\":3707:3785   */\n      tag_417\n        /* \"#utility.yul\":3777:3784   */\n      dup6\n        /* \"#utility.yul\":3768:3774   */\n      dup3\n        /* \"#utility.yul\":3757:3766   */\n      dup7\n        /* \"#utility.yul\":3753:3775   */\n      add\n        /* \"#utility.yul\":3707:3785   */\n      tag_304\n      jump\t// in\n    tag_417:\n        /* \"#utility.yul\":3697:3785   */\n      swap3\n      pop\n        /* \"#utility.yul\":3493:3795   */\n      pop\n        /* \"#utility.yul\":3834:3836   */\n      0x20\n        /* \"#utility.yul\":3860:3913   */\n      tag_418\n        /* \"#utility.yul\":3905:3912   */\n      dup6\n        /* \"#utility.yul\":3896:3902   */\n      dup3\n        /* \"#utility.yul\":3885:3894   */\n      dup7\n        /* \"#utility.yul\":3881:3903   */\n      add\n        /* \"#utility.yul\":3860:3913   */\n      tag_302\n      jump\t// in\n    tag_418:\n        /* \"#utility.yul\":3850:3913   */\n      swap2\n      pop\n        /* \"#utility.yul\":3805:3923   */\n      pop\n        /* \"#utility.yul\":3246:3930   */\n      swap3\n      pop\n      swap3\n      swap1\n      pop\n      jump\t// out\n        /* \"#utility.yul\":3936:4013   */\n    tag_305:\n        /* \"#utility.yul\":3973:3980   */\n      0x00\n        /* \"#utility.yul\":4002:4007   */\n      dup2\n        /* \"#utility.yul\":3991:4007   */\n      swap1\n      pop\n        /* \"#utility.yul\":3936:4013   */\n      swap2\n      swap1\n      pop\n      jump\t// out\n        /* \"#utility.yul\":4019:4137   */\n    tag_306:\n        /* \"#utility.yul\":4106:4130   */\n      tag_421\n        /* \"#utility.yul\":4124:4129   */\n      dup2\n        /* \"#utility.yul\":4106:4130   */\n      tag_305\n      jump\t// in\n    tag_421:\n        /* \"#utility.yul\":4101:4104   */\n      dup3\n        /* \"#utility.yul\":4094:4131   */\n      mstore\n        /* \"#utility.yul\":4019:4137   */\n      pop\n      pop\n      jump\t// out\n        /* \"#utility.yul\":4143:4365   */\n    tag_28:\n        /* \"#utility.yul\":4236:4240   */\n      0x00\n        /* \"#utility.yul\":4274:4276   */\n      0x20\n        /* \"#utility.yul\":4263:4272   */\n      dup3\n        /* \"#utility.yul\":4259:4277   */\n      add\n        /* \"#utility.yul\":4251:4277   */\n      swap1\n      pop\n        /* \"#utility.yul\":4287:4358   */\n      tag_423\n        /* \"#utility.yul\":4355:4356   */\n      0x00\n        /* \"#utility.yul\":4344:4353   */\n      dup4\n        /* \"#utility.yul\":4340:4357   */\n      add\n        /* \"#utility.yul\":4331:4337   */\n      dup5\n        /* \"#utility.yul\":4287:4358   */\n      tag_306\n      jump\t// in\n    tag_423:\n        /* \"#utility.yul\":4143:4365   */\n      swap3\n      swap2\n      pop\n      pop\n      jump\t// out\n        /* \"#utility.yul\":4371:4488   */\n    tag_307:\n        /* \"#utility.yul\":4480:4481   */\n      0x00\n        /* \"#utility.yul\":4477:4478   */\n      dup1\n        /* \"#utility.yul\":4470:4482   */\n      revert\n        /* \"#utility.yul\":4494:4802   */\n    tag_308:\n        /* \"#utility.yul\":4556:4560   */\n      0x00\n        /* \"#utility.yul\":4646:4664   */\n      0xffffffffffffffff\n        /* \"#utility.yul\":4638:4644   */\n      dup3\n        /* \"#utility.yul\":4635:4665   */\n      gt\n        /* \"#utility.yul\":4632:4688   */\n      iszero\n      tag_426\n      jumpi\n        /* \"#utility.yul\":4668:4686   */\n      tag_427\n      tag_124\n      jump\t// in\n    tag_427:\n        /* \"#utility.yul\":4632:4688   */\n    tag_426:\n        /* \"#utility.yul\":4706:4735   */\n      tag_428\n        /* \"#utility.yul\":4728:4734   */\n      dup3\n        /* \"#utility.yul\":4706:4735   */\n      tag_294\n      jump\t// in\n    tag_428:\n        /* \"#utility.yul\":4698:4735   */\n      swap1\n      pop\n        /* \"#utility.yul\":4790:4794   */\n      0x20\n        /* \"#utility.yul\":4784:4788   */\n      dup2\n        /* \"#utility.yul\":4780:4795   */\n      add\n        /* \"#utility.yul\":4772:4795   */\n      swap1\n      pop\n        /* \"#utility.yul\":4494:4802   */\n      swap2\n      swap1\n      pop\n      jump\t// out\n        /* \"#utility.yul\":4808:4954   */\n    tag_309:\n        /* \"#utility.yul\":4905:4911   */\n      dup3\n        /* \"#utility.yul\":4900:4903   */\n      dup2\n        /* \"#utility.yul\":4895:4898   */\n      dup4\n        /* \"#utility.yul\":4882:4912   */\n      calldatacopy\n        /* \"#utility.yul\":4946:4947   */\n      0x00\n        /* \"#utility.yul\":4937:4943   */\n      dup4\n        /* \"#utility.yul\":4932:4935   */\n      dup4\n        /* \"#utility.yul\":4928:4944   */\n      add\n        /* \"#utility.yul\":4921:4948   */\n      mstore\n        /* \"#utility.yul\":4808:4954   */\n      pop\n      pop\n      pop\n      jump\t// out\n        /* \"#utility.yul\":4960:5385   */\n    tag_310:\n        /* \"#utility.yul\":5038:5043   */\n      0x00\n        /* \"#utility.yul\":5063:5129   */\n      tag_431\n        /* \"#utility.yul\":5079:5128   */\n      tag_432\n        /* \"#utility.yul\":5121:5127   */\n      dup5\n        /* \"#utility.yul\":5079:5128   */\n      tag_308\n      jump\t// in\n    tag_432:\n        /* \"#utility.yul\":5063:5129   */\n      tag_296\n      jump\t// in\n    tag_431:\n        /* \"#utility.yul\":5054:5129   */\n      swap1\n      pop\n        /* \"#utility.yul\":5152:5158   */\n      dup3\n        /* \"#utility.yul\":5145:5150   */\n      dup2\n        /* \"#utility.yul\":5138:5159   */\n      mstore\n        /* \"#utility.yul\":5190:5194   */\n      0x20\n        /* \"#utility.yul\":5183:5188   */\n      dup2\n        /* \"#utility.yul\":5179:5195   */\n      add\n        /* \"#utility.yul\":5228:5231   */\n      dup5\n        /* \"#utility.yul\":5219:5225   */\n      dup5\n        /* \"#utility.yul\":5214:5217   */\n      dup5\n        /* \"#utility.yul\":5210:5226   */\n      add\n        /* \"#utility.yul\":5207:5232   */\n      gt\n        /* \"#utility.yul\":5204:5316   */\n      iszero\n      tag_433\n      jumpi\n        /* \"#utility.yul\":5235:5314   */\n      tag_434\n      tag_307\n      jump\t// in\n    tag_434:\n        /* \"#utility.yul\":5204:5316   */\n    tag_433:\n        /* \"#utility.yul\":5325:5379   */\n      tag_435\n        /* \"#utility.yul\":5372:5378   */\n      dup5\n        /* \"#utility.yul\":5367:5370   */\n      dup3\n        /* \"#utility.yul\":5362:5365   */\n      dup6\n        /* \"#utility.yul\":5325:5379   */\n      tag_309\n      jump\t// in\n    tag_435:\n        /* \"#utility.yul\":5044:5385   */\n      pop\n        /* \"#utility.yul\":4960:5385   */\n      swap4\n      swap3\n      pop\n      pop\n      pop\n      jump\t// out\n        /* \"#utility.yul\":5405:5745   */\n    tag_311:\n        /* \"#utility.yul\":5461:5466   */\n      0x00\n        /* \"#utility.yul\":5510:5513   */\n      dup3\n        /* \"#utility.yul\":5503:5507   */\n      0x1f\n        /* \"#utility.yul\":5495:5501   */\n      dup4\n        /* \"#utility.yul\":5491:5508   */\n      add\n        /* \"#utility.yul\":5487:5514   */\n      slt\n        /* \"#utility.yul\":5477:5599   */\n      tag_437\n      jumpi\n        /* \"#utility.yul\":5518:5597   */\n      tag_438\n      tag_293\n      jump\t// in\n    tag_438:\n        /* \"#utility.yul\":5477:5599   */\n    tag_437:\n        /* \"#utility.yul\":5635:5641   */\n      dup2\n        /* \"#utility.yul\":5622:5642   */\n      calldataload\n        /* \"#utility.yul\":5660:5739   */\n      tag_439\n        /* \"#utility.yul\":5735:5738   */\n      dup5\n        /* \"#utility.yul\":5727:5733   */\n      dup3\n        /* \"#utility.yul\":5720:5724   */\n      0x20\n        /* \"#utility.yul\":5712:5718   */\n      dup7\n        /* \"#utility.yul\":5708:5725   */\n      add\n        /* \"#utility.yul\":5660:5739   */\n      tag_310\n      jump\t// in\n    tag_439:\n        /* \"#utility.yul\":5651:5739   */\n      swap2\n      pop\n        /* \"#utility.yul\":5467:5745   */\n      pop\n        /* \"#utility.yul\":5405:5745   */\n      swap3\n      swap2\n      pop\n      pop\n      jump\t// out\n        /* \"#utility.yul\":5751:6910   */\n    tag_31:\n        /* \"#utility.yul\":5858:5864   */\n      0x00\n        /* \"#utility.yul\":5866:5872   */\n      dup1\n        /* \"#utility.yul\":5874:5880   */\n      0x00\n        /* \"#utility.yul\":5923:5925   */\n      0x60\n        /* \"#utility.yul\":5911:5920   */\n      dup5\n        /* \"#utility.yul\":5902:5909   */\n      dup7\n        /* \"#utility.yul\":5898:5921   */\n      sub\n        /* \"#utility.yul\":5894:5926   */\n      slt\n        /* \"#utility.yul\":5891:6010   */\n      iszero\n      tag_441\n      jumpi\n        /* \"#utility.yul\":5929:6008   */\n      tag_442\n      tag_291\n      jump\t// in\n    tag_442:\n        /* \"#utility.yul\":5891:6010   */\n    tag_441:\n        /* \"#utility.yul\":6077:6078   */\n      0x00\n        /* \"#utility.yul\":6066:6075   */\n      dup5\n        /* \"#utility.yul\":6062:6079   */\n      add\n        /* \"#utility.yul\":6049:6080   */\n      calldataload\n        /* \"#utility.yul\":6107:6125   */\n      0xffffffffffffffff\n        /* \"#utility.yul\":6099:6105   */\n      dup2\n        /* \"#utility.yul\":6096:6126   */\n      gt\n        /* \"#utility.yul\":6093:6210   */\n      iszero\n      tag_443\n      jumpi\n        /* \"#utility.yul\":6129:6208   */\n      tag_444\n      tag_292\n      jump\t// in\n    tag_444:\n        /* \"#utility.yul\":6093:6210   */\n    tag_443:\n        /* \"#utility.yul\":6234:6297   */\n      tag_445\n        /* \"#utility.yul\":6289:6296   */\n      dup7\n        /* \"#utility.yul\":6280:6286   */\n      dup3\n        /* \"#utility.yul\":6269:6278   */\n      dup8\n        /* \"#utility.yul\":6265:6287   */\n      add\n        /* \"#utility.yul\":6234:6297   */\n      tag_311\n      jump\t// in\n    tag_445:\n        /* \"#utility.yul\":6224:6297   */\n      swap4\n      pop\n        /* \"#utility.yul\":6020:6307   */\n      pop\n        /* \"#utility.yul\":6374:6376   */\n      0x20\n        /* \"#utility.yul\":6363:6372   */\n      dup5\n        /* \"#utility.yul\":6359:6377   */\n      add\n        /* \"#utility.yul\":6346:6378   */\n      calldataload\n        /* \"#utility.yul\":6405:6423   */\n      0xffffffffffffffff\n        /* \"#utility.yul\":6397:6403   */\n      dup2\n        /* \"#utility.yul\":6394:6424   */\n      gt\n        /* \"#utility.yul\":6391:6508   */\n      iszero\n      tag_446\n      jumpi\n        /* \"#utility.yul\":6427:6506   */\n      tag_447\n      tag_292\n      jump\t// in\n    tag_447:\n        /* \"#utility.yul\":6391:6508   */\n    tag_446:\n        /* \"#utility.yul\":6532:6595   */\n      tag_448\n        /* \"#utility.yul\":6587:6594   */\n      dup7\n        /* \"#utility.yul\":6578:6584   */\n      dup3\n        /* \"#utility.yul\":6567:6576   */\n      dup8\n        /* \"#utility.yul\":6563:6585   */\n      add\n        /* \"#utility.yul\":6532:6595   */\n      tag_311\n      jump\t// in\n    tag_448:\n        /* \"#utility.yul\":6522:6595   */\n      swap3\n      pop\n        /* \"#utility.yul\":6317:6605   */\n      pop\n        /* \"#utility.yul\":6672:6674   */\n      0x40\n        /* \"#utility.yul\":6661:6670   */\n      dup5\n        /* \"#utility.yul\":6657:6675   */\n      add\n        /* \"#utility.yul\":6644:6676   */\n      calldataload\n        /* \"#utility.yul\":6703:6721   */\n      0xffffffffffffffff\n        /* \"#utility.yul\":6695:6701   */\n      dup2\n        /* \"#utility.yul\":6692:6722   */\n      gt\n        /* \"#utility.yul\":6689:6806   */\n      iszero\n      tag_449\n      jumpi\n        /* \"#utility.yul\":6725:6804   */\n      tag_450\n      tag_292\n      jump\t// in\n    tag_450:\n        /* \"#utility.yul\":6689:6806   */\n    tag_449:\n        /* \"#utility.yul\":6830:6893   */\n      tag_451\n        /* \"#utility.yul\":6885:6892   */\n      dup7\n        /* \"#utility.yul\":6876:6882   */\n      dup3\n        /* \"#utility.yul\":6865:6874   */\n      dup8\n        /* \"#utility.yul\":6861:6883   */\n      add\n        /* \"#utility.yul\":6830:6893   */\n      tag_311\n      jump\t// in\n    tag_451:\n        /* \"#utility.yul\":6820:6893   */\n      swap2\n      pop\n        /* \"#utility.yul\":6615:6903   */\n      pop\n        /* \"#utility.yul\":5751:6910   */\n      swap3\n      pop\n      swap3\n      pop\n      swap3\n      jump\t// out\n        /* \"#utility.yul\":6916:7750   */\n    tag_35:\n        /* \"#utility.yul\":7004:7010   */\n      0x00\n        /* \"#utility.yul\":7012:7018   */\n      dup1\n        /* \"#utility.yul\":7061:7063   */\n      0x40\n        /* \"#utility.yul\":7049:7058   */\n      dup4\n        /* \"#utility.yul\":7040:7047   */\n      dup6\n        /* \"#utility.yul\":7036:7059   */\n      sub\n        /* \"#utility.yul\":7032:7064   */\n      slt\n        /* \"#utility.yul\":7029:7148   */\n      iszero\n      tag_453\n      jumpi\n        /* \"#utility.yul\":7067:7146   */\n      tag_454\n      tag_291\n      jump\t// in\n    tag_454:\n        /* \"#utility.yul\":7029:7148   */\n    tag_453:\n        /* \"#utility.yul\":7215:7216   */\n      0x00\n        /* \"#utility.yul\":7204:7213   */\n      dup4\n        /* \"#utility.yul\":7200:7217   */\n      add\n        /* \"#utility.yul\":7187:7218   */\n      calldataload\n        /* \"#utility.yul\":7245:7263   */\n      0xffffffffffffffff\n        /* \"#utility.yul\":7237:7243   */\n      dup2\n        /* \"#utility.yul\":7234:7264   */\n      gt\n        /* \"#utility.yul\":7231:7348   */\n      iszero\n      tag_455\n      jumpi\n        /* \"#utility.yul\":7267:7346   */\n      tag_456\n      tag_292\n      jump\t// in\n    tag_456:\n        /* \"#utility.yul\":7231:7348   */\n    tag_455:\n        /* \"#utility.yul\":7372:7435   */\n      tag_457\n        /* \"#utility.yul\":7427:7434   */\n      dup6\n        /* \"#utility.yul\":7418:7424   */\n      dup3\n        /* \"#utility.yul\":7407:7416   */\n      dup7\n        /* \"#utility.yul\":7403:7425   */\n      add\n        /* \"#utility.yul\":7372:7435   */\n      tag_311\n      jump\t// in\n    tag_457:\n        /* \"#utility.yul\":7362:7435   */\n      swap3\n      pop\n        /* \"#utility.yul\":7158:7445   */\n      pop\n        /* \"#utility.yul\":7512:7514   */\n      0x20\n        /* \"#utility.yul\":7501:7510   */\n      dup4\n        /* \"#utility.yul\":7497:7515   */\n      add\n        /* \"#utility.yul\":7484:7516   */\n      calldataload\n        /* \"#utility.yul\":7543:7561   */\n      0xffffffffffffffff\n        /* \"#utility.yul\":7535:7541   */\n      dup2\n        /* \"#utility.yul\":7532:7562   */\n      gt\n        /* \"#utility.yul\":7529:7646   */\n      iszero\n      tag_458\n      jumpi\n        /* \"#utility.yul\":7565:7644   */\n      tag_459\n      tag_292\n      jump\t// in\n    tag_459:\n        /* \"#utility.yul\":7529:7646   */\n    tag_458:\n        /* \"#utility.yul\":7670:7733   */\n      tag_460\n        /* \"#utility.yul\":7725:7732   */\n      dup6\n        /* \"#utility.yul\":7716:7722   */\n      dup3\n        /* \"#utility.yul\":7705:7714   */\n      dup7\n        /* \"#utility.yul\":7701:7723   */\n      add\n        /* \"#utility.yul\":7670:7733   */\n      tag_311\n      jump\t// in\n    tag_460:\n        /* \"#utility.yul\":7660:7733   */\n      swap2\n      pop\n        /* \"#utility.yul\":7455:7743   */\n      pop\n        /* \"#utility.yul\":6916:7750   */\n      swap3\n      pop\n      swap3\n      swap1\n      pop\n      jump\t// out\n        /* \"#utility.yul\":7756:7895   */\n    tag_312:\n        /* \"#utility.yul\":7848:7854   */\n      0x00\n        /* \"#utility.yul\":7882:7887   */\n      dup2\n        /* \"#utility.yul\":7876:7888   */\n      mload\n        /* \"#utility.yul\":7866:7888   */\n      swap1\n      pop\n        /* \"#utility.yul\":7756:7895   */\n      swap2\n      swap1\n      pop\n      jump\t// out\n        /* \"#utility.yul\":7901:8110   */\n    tag_313:\n        /* \"#utility.yul\":8025:8036   */\n      0x00\n        /* \"#utility.yul\":8059:8065   */\n      dup3\n        /* \"#utility.yul\":8054:8057   */\n      dup3\n        /* \"#utility.yul\":8047:8066   */\n      mstore\n        /* \"#utility.yul\":8099:8103   */\n      0x20\n        /* \"#utility.yul\":8094:8097   */\n      dup3\n        /* \"#utility.yul\":8090:8104   */\n      add\n        /* \"#utility.yul\":8075:8104   */\n      swap1\n      pop\n        /* \"#utility.yul\":7901:8110   */\n      swap3\n      swap2\n      pop\n      pop\n      jump\t// out\n        /* \"#utility.yul\":8116:8273   */\n    tag_314:\n        /* \"#utility.yul\":8208:8212   */\n      0x00\n        /* \"#utility.yul\":8231:8234   */\n      dup2\n        /* \"#utility.yul\":8223:8234   */\n      swap1\n      pop\n        /* \"#utility.yul\":8261:8265   */\n      0x20\n        /* \"#utility.yul\":8256:8259   */\n      dup3\n        /* \"#utility.yul\":8252:8266   */\n      add\n        /* \"#utility.yul\":8244:8266   */\n      swap1\n      pop\n        /* \"#utility.yul\":8116:8273   */\n      swap2\n      swap1\n      pop\n      jump\t// out\n        /* \"#utility.yul\":8279:8378   */\n    tag_315:\n        /* \"#utility.yul\":8331:8337   */\n      0x00\n        /* \"#utility.yul\":8365:8370   */\n      dup2\n        /* \"#utility.yul\":8359:8371   */\n      mload\n        /* \"#utility.yul\":8349:8371   */\n      swap1\n      pop\n        /* \"#utility.yul\":8279:8378   */\n      swap2\n      swap1\n      pop\n      jump\t// out\n        /* \"#utility.yul\":8384:8543   */\n    tag_316:\n        /* \"#utility.yul\":8458:8469   */\n      0x00\n        /* \"#utility.yul\":8492:8498   */\n      dup3\n        /* \"#utility.yul\":8487:8490   */\n      dup3\n        /* \"#utility.yul\":8480:8499   */\n      mstore\n        /* \"#utility.yul\":8532:8536   */\n      0x20\n        /* \"#utility.yul\":8527:8530   */\n      dup3\n        /* \"#utility.yul\":8523:8537   */\n      add\n        /* \"#utility.yul\":8508:8537   */\n      swap1\n      pop\n        /* \"#utility.yul\":8384:8543   */\n      swap3\n      swap2\n      pop\n      pop\n      jump\t// out\n        /* \"#utility.yul\":8549:8795   */\n    tag_317:\n        /* \"#utility.yul\":8630:8631   */\n      0x00\n        /* \"#utility.yul\":8640:8753   */\n    tag_467:\n        /* \"#utility.yul\":8654:8660   */\n      dup4\n        /* \"#utility.yul\":8651:8652   */\n      dup2\n        /* \"#utility.yul\":8648:8661   */\n      lt\n        /* \"#utility.yul\":8640:8753   */\n      iszero\n      tag_469\n      jumpi\n        /* \"#utility.yul\":8739:8740   */\n      dup1\n        /* \"#utility.yul\":8734:8737   */\n      dup3\n        /* \"#utility.yul\":8730:8741   */\n      add\n        /* \"#utility.yul\":8724:8742   */\n      mload\n        /* \"#utility.yul\":8720:8721   */\n      dup2\n        /* \"#utility.yul\":8715:8718   */\n      dup5\n        /* \"#utility.yul\":8711:8722   */\n      add\n        /* \"#utility.yul\":8704:8743   */\n      mstore\n        /* \"#utility.yul\":8676:8678   */\n      0x20\n        /* \"#utility.yul\":8673:8674   */\n      dup2\n        /* \"#utility.yul\":8669:8679   */\n      add\n        /* \"#utility.yul\":8664:8679   */\n      swap1\n      pop\n        /* \"#utility.yul\":8640:8753   */\n      jump(tag_467)\n    tag_469:\n        /* \"#utility.yul\":8787:8788   */\n      0x00\n        /* \"#utility.yul\":8778:8784   */\n      dup5\n        /* \"#utility.yul\":8773:8776   */\n      dup5\n        /* \"#utility.yul\":8769:8785   */\n      add\n        /* \"#utility.yul\":8762:8789   */\n      mstore\n        /* \"#utility.yul\":8611:8795   */\n      pop\n        /* \"#utility.yul\":8549:8795   */\n      pop\n      pop\n      pop\n      jump\t// out\n        /* \"#utility.yul\":8801:9158   */\n    tag_318:\n        /* \"#utility.yul\":8879:8882   */\n      0x00\n        /* \"#utility.yul\":8907:8946   */\n      tag_471\n        /* \"#utility.yul\":8940:8945   */\n      dup3\n        /* \"#utility.yul\":8907:8946   */\n      tag_315\n      jump\t// in\n    tag_471:\n        /* \"#utility.yul\":8962:9023   */\n      tag_472\n        /* \"#utility.yul\":9016:9022   */\n      dup2\n        /* \"#utility.yul\":9011:9014   */\n      dup6\n        /* \"#utility.yul\":8962:9023   */\n      tag_316\n      jump\t// in\n    tag_472:\n        /* \"#utility.yul\":8955:9023   */\n      swap4\n      pop\n        /* \"#utility.yul\":9032:9097   */\n      tag_473\n        /* \"#utility.yul\":9090:9096   */\n      dup2\n        /* \"#utility.yul\":9085:9088   */\n      dup6\n        /* \"#utility.yul\":9078:9082   */\n      0x20\n        /* \"#utility.yul\":9071:9076   */\n      dup7\n        /* \"#utility.yul\":9067:9083   */\n      add\n        /* \"#utility.yul\":9032:9097   */\n      tag_317\n      jump\t// in\n    tag_473:\n        /* \"#utility.yul\":9122:9151   */\n      tag_474\n        /* \"#utility.yul\":9144:9150   */\n      dup2\n        /* \"#utility.yul\":9122:9151   */\n      tag_294\n      jump\t// in\n    tag_474:\n        /* \"#utility.yul\":9117:9120   */\n      dup5\n        /* \"#utility.yul\":9113:9152   */\n      add\n        /* \"#utility.yul\":9106:9152   */\n      swap2\n      pop\n        /* \"#utility.yul\":8883:9158   */\n      pop\n        /* \"#utility.yul\":8801:9158   */\n      swap3\n      swap2\n      pop\n      pop\n      jump\t// out\n        /* \"#utility.yul\":9234:10158   */\n    tag_319:\n        /* \"#utility.yul\":9343:9346   */\n      0x00\n        /* \"#utility.yul\":9379:9383   */\n      0x60\n        /* \"#utility.yul\":9374:9377   */\n      dup4\n        /* \"#utility.yul\":9370:9384   */\n      add\n        /* \"#utility.yul\":9466:9470   */\n      0x00\n        /* \"#utility.yul\":9459:9464   */\n      dup4\n        /* \"#utility.yul\":9455:9471   */\n      add\n        /* \"#utility.yul\":9449:9472   */\n      mload\n        /* \"#utility.yul\":9519:9522   */\n      dup5\n        /* \"#utility.yul\":9513:9517   */\n      dup3\n        /* \"#utility.yul\":9509:9523   */\n      sub\n        /* \"#utility.yul\":9502:9506   */\n      0x00\n        /* \"#utility.yul\":9497:9500   */\n      dup7\n        /* \"#utility.yul\":9493:9507   */\n      add\n        /* \"#utility.yul\":9486:9524   */\n      mstore\n        /* \"#utility.yul\":9545:9618   */\n      tag_476\n        /* \"#utility.yul\":9613:9617   */\n      dup3\n        /* \"#utility.yul\":9599:9611   */\n      dup3\n        /* \"#utility.yul\":9545:9618   */\n      tag_318\n      jump\t// in\n    tag_476:\n        /* \"#utility.yul\":9537:9618   */\n      swap2\n      pop\n        /* \"#utility.yul\":9394:9629   */\n      pop\n        /* \"#utility.yul\":9712:9716   */\n      0x20\n        /* \"#utility.yul\":9705:9710   */\n      dup4\n        /* \"#utility.yul\":9701:9717   */\n      add\n        /* \"#utility.yul\":9695:9718   */\n      mload\n        /* \"#utility.yul\":9765:9768   */\n      dup5\n        /* \"#utility.yul\":9759:9763   */\n      dup3\n        /* \"#utility.yul\":9755:9769   */\n      sub\n        /* \"#utility.yul\":9748:9752   */\n      0x20\n        /* \"#utility.yul\":9743:9746   */\n      dup7\n        /* \"#utility.yul\":9739:9753   */\n      add\n        /* \"#utility.yul\":9732:9770   */\n      mstore\n        /* \"#utility.yul\":9791:9864   */\n      tag_477\n        /* \"#utility.yul\":9859:9863   */\n      dup3\n        /* \"#utility.yul\":9845:9857   */\n      dup3\n        /* \"#utility.yul\":9791:9864   */\n      tag_318\n      jump\t// in\n    tag_477:\n        /* \"#utility.yul\":9783:9864   */\n      swap2\n      pop\n        /* \"#utility.yul\":9639:9875   */\n      pop\n        /* \"#utility.yul\":9968:9972   */\n      0x40\n        /* \"#utility.yul\":9961:9966   */\n      dup4\n        /* \"#utility.yul\":9957:9973   */\n      add\n        /* \"#utility.yul\":9951:9974   */\n      mload\n        /* \"#utility.yul\":10021:10024   */\n      dup5\n        /* \"#utility.yul\":10015:10019   */\n      dup3\n        /* \"#utility.yul\":10011:10025   */\n      sub\n        /* \"#utility.yul\":10004:10008   */\n      0x40\n        /* \"#utility.yul\":9999:10002   */\n      dup7\n        /* \"#utility.yul\":9995:10009   */\n      add\n        /* \"#utility.yul\":9988:10026   */\n      mstore\n        /* \"#utility.yul\":10047:10120   */\n      tag_478\n        /* \"#utility.yul\":10115:10119   */\n      dup3\n        /* \"#utility.yul\":10101:10113   */\n      dup3\n        /* \"#utility.yul\":10047:10120   */\n      tag_318\n      jump\t// in\n    tag_478:\n        /* \"#utility.yul\":10039:10120   */\n      swap2\n      pop\n        /* \"#utility.yul\":9885:10131   */\n      pop\n        /* \"#utility.yul\":10148:10152   */\n      dup1\n        /* \"#utility.yul\":10141:10152   */\n      swap2\n      pop\n        /* \"#utility.yul\":9348:10158   */\n      pop\n        /* \"#utility.yul\":9234:10158   */\n      swap3\n      swap2\n      pop\n      pop\n      jump\t// out\n        /* \"#utility.yul\":10164:10420   */\n    tag_320:\n        /* \"#utility.yul\":10283:10293   */\n      0x00\n        /* \"#utility.yul\":10318:10414   */\n      tag_480\n        /* \"#utility.yul\":10410:10413   */\n      dup4\n        /* \"#utility.yul\":10402:10408   */\n      dup4\n        /* \"#utility.yul\":10318:10414   */\n      tag_319\n      jump\t// in\n    tag_480:\n        /* \"#utility.yul\":10304:10414   */\n      swap1\n      pop\n        /* \"#utility.yul\":10164:10420   */\n      swap3\n      swap2\n      pop\n      pop\n      jump\t// out\n        /* \"#utility.yul\":10426:10564   */\n    tag_321:\n        /* \"#utility.yul\":10521:10525   */\n      0x00\n        /* \"#utility.yul\":10553:10557   */\n      0x20\n        /* \"#utility.yul\":10548:10551   */\n      dup3\n        /* \"#utility.yul\":10544:10558   */\n      add\n        /* \"#utility.yul\":10536:10558   */\n      swap1\n      pop\n        /* \"#utility.yul\":10426:10564   */\n      swap2\n      swap1\n      pop\n      jump\t// out\n        /* \"#utility.yul\":10644:11755   */\n    tag_322:\n        /* \"#utility.yul\":10813:10816   */\n      0x00\n        /* \"#utility.yul\":10842:10921   */\n      tag_483\n        /* \"#utility.yul\":10915:10920   */\n      dup3\n        /* \"#utility.yul\":10842:10921   */\n      tag_312\n      jump\t// in\n    tag_483:\n        /* \"#utility.yul\":10937:11048   */\n      tag_484\n        /* \"#utility.yul\":11041:11047   */\n      dup2\n        /* \"#utility.yul\":11036:11039   */\n      dup6\n        /* \"#utility.yul\":10937:11048   */\n      tag_313\n      jump\t// in\n    tag_484:\n        /* \"#utility.yul\":10930:11048   */\n      swap4\n      pop\n        /* \"#utility.yul\":11074:11077   */\n      dup4\n        /* \"#utility.yul\":11119:11123   */\n      0x20\n        /* \"#utility.yul\":11111:11117   */\n      dup3\n        /* \"#utility.yul\":11107:11124   */\n      mul\n        /* \"#utility.yul\":11102:11105   */\n      dup6\n        /* \"#utility.yul\":11098:11125   */\n      add\n        /* \"#utility.yul\":11149:11230   */\n      tag_485\n        /* \"#utility.yul\":11224:11229   */\n      dup6\n        /* \"#utility.yul\":11149:11230   */\n      tag_314\n      jump\t// in\n    tag_485:\n        /* \"#utility.yul\":11253:11260   */\n      dup1\n        /* \"#utility.yul\":11284:11285   */\n      0x00\n        /* \"#utility.yul\":11269:11710   */\n    tag_486:\n        /* \"#utility.yul\":11294:11300   */\n      dup6\n        /* \"#utility.yul\":11291:11292   */\n      dup2\n        /* \"#utility.yul\":11288:11301   */\n      lt\n        /* \"#utility.yul\":11269:11710   */\n      iszero\n      tag_488\n      jumpi\n        /* \"#utility.yul\":11365:11374   */\n      dup5\n        /* \"#utility.yul\":11359:11363   */\n      dup5\n        /* \"#utility.yul\":11355:11375   */\n      sub\n        /* \"#utility.yul\":11350:11353   */\n      dup10\n        /* \"#utility.yul\":11343:11376   */\n      mstore\n        /* \"#utility.yul\":11416:11422   */\n      dup2\n        /* \"#utility.yul\":11410:11423   */\n      mload\n        /* \"#utility.yul\":11444:11558   */\n      tag_489\n        /* \"#utility.yul\":11553:11557   */\n      dup6\n        /* \"#utility.yul\":11538:11551   */\n      dup3\n        /* \"#utility.yul\":11444:11558   */\n      tag_320\n      jump\t// in\n    tag_489:\n        /* \"#utility.yul\":11436:11558   */\n      swap5\n      pop\n        /* \"#utility.yul\":11581:11666   */\n      tag_490\n        /* \"#utility.yul\":11659:11665   */\n      dup4\n        /* \"#utility.yul\":11581:11666   */\n      tag_321\n      jump\t// in\n    tag_490:\n        /* \"#utility.yul\":11571:11666   */\n      swap3\n      pop\n        /* \"#utility.yul\":11695:11699   */\n      0x20\n        /* \"#utility.yul\":11690:11693   */\n      dup11\n        /* \"#utility.yul\":11686:11700   */\n      add\n        /* \"#utility.yul\":11679:11700   */\n      swap10\n      pop\n        /* \"#utility.yul\":11329:11710   */\n      pop\n        /* \"#utility.yul\":11316:11317   */\n      0x01\n        /* \"#utility.yul\":11313:11314   */\n      dup2\n        /* \"#utility.yul\":11309:11318   */\n      add\n        /* \"#utility.yul\":11304:11318   */\n      swap1\n      pop\n        /* \"#utility.yul\":11269:11710   */\n      jump(tag_486)\n    tag_488:\n        /* \"#utility.yul\":11273:11287   */\n      pop\n        /* \"#utility.yul\":11726:11730   */\n      dup3\n        /* \"#utility.yul\":11719:11730   */\n      swap8\n      pop\n        /* \"#utility.yul\":11746:11749   */\n      dup8\n        /* \"#utility.yul\":11739:11749   */\n      swap6\n      pop\n        /* \"#utility.yul\":10818:11755   */\n      pop\n      pop\n      pop\n      pop\n      pop\n        /* \"#utility.yul\":10644:11755   */\n      swap3\n      swap2\n      pop\n      pop\n      jump\t// out\n        /* \"#utility.yul\":11761:12234   */\n    tag_40:\n        /* \"#utility.yul\":11954:11958   */\n      0x00\n        /* \"#utility.yul\":11992:11994   */\n      0x20\n        /* \"#utility.yul\":11981:11990   */\n      dup3\n        /* \"#utility.yul\":11977:11995   */\n      add\n        /* \"#utility.yul\":11969:11995   */\n      swap1\n      pop\n        /* \"#utility.yul\":12041:12050   */\n      dup2\n        /* \"#utility.yul\":12035:12039   */\n      dup2\n        /* \"#utility.yul\":12031:12051   */\n      sub\n        /* \"#utility.yul\":12027:12028   */\n      0x00\n        /* \"#utility.yul\":12016:12025   */\n      dup4\n        /* \"#utility.yul\":12012:12029   */\n      add\n        /* \"#utility.yul\":12005:12052   */\n      mstore\n        /* \"#utility.yul\":12069:12227   */\n      tag_492\n        /* \"#utility.yul\":12222:12226   */\n      dup2\n        /* \"#utility.yul\":12213:12219   */\n      dup5\n        /* \"#utility.yul\":12069:12227   */\n      tag_322\n      jump\t// in\n    tag_492:\n        /* \"#utility.yul\":12061:12227   */\n      swap1\n      pop\n        /* \"#utility.yul\":11761:12234   */\n      swap3\n      swap2\n      pop\n      pop\n      jump\t// out\n        /* \"#utility.yul\":12240:12362   */\n    tag_323:\n        /* \"#utility.yul\":12313:12337   */\n      tag_494\n        /* \"#utility.yul\":12331:12336   */\n      dup2\n        /* \"#utility.yul\":12313:12337   */\n      tag_305\n      jump\t// in\n    tag_494:\n        /* \"#utility.yul\":12306:12311   */\n      dup2\n        /* \"#utility.yul\":12303:12338   */\n      eq\n        /* \"#utility.yul\":12293:12356   */\n      tag_495\n      jumpi\n        /* \"#utility.yul\":12352:12353   */\n      0x00\n        /* \"#utility.yul\":12349:12350   */\n      dup1\n        /* \"#utility.yul\":12342:12354   */\n      revert\n        /* \"#utility.yul\":12293:12356   */\n    tag_495:\n        /* \"#utility.yul\":12240:12362   */\n      pop\n      jump\t// out\n        /* \"#utility.yul\":12368:12507   */\n    tag_324:\n        /* \"#utility.yul\":12414:12419   */\n      0x00\n        /* \"#utility.yul\":12452:12458   */\n      dup2\n        /* \"#utility.yul\":12439:12459   */\n      calldataload\n        /* \"#utility.yul\":12430:12459   */\n      swap1\n      pop\n        /* \"#utility.yul\":12468:12501   */\n      tag_497\n        /* \"#utility.yul\":12495:12500   */\n      dup2\n        /* \"#utility.yul\":12468:12501   */\n      tag_323\n      jump\t// in\n    tag_497:\n        /* \"#utility.yul\":12368:12507   */\n      swap3\n      swap2\n      pop\n      pop\n      jump\t// out\n        /* \"#utility.yul\":12513:13342   */\n    tag_43:\n        /* \"#utility.yul\":12615:12621   */\n      0x00\n        /* \"#utility.yul\":12623:12629   */\n      dup1\n        /* \"#utility.yul\":12631:12637   */\n      0x00\n        /* \"#utility.yul\":12680:12682   */\n      0x60\n        /* \"#utility.yul\":12668:12677   */\n      dup5\n        /* \"#utility.yul\":12659:12666   */\n      dup7\n        /* \"#utility.yul\":12655:12678   */\n      sub\n        /* \"#utility.yul\":12651:12683   */\n      slt\n        /* \"#utility.yul\":12648:12767   */\n      iszero\n      tag_499\n      jumpi\n        /* \"#utility.yul\":12686:12765   */\n      tag_500\n      tag_291\n      jump\t// in\n    tag_500:\n        /* \"#utility.yul\":12648:12767   */\n    tag_499:\n        /* \"#utility.yul\":12806:12807   */\n      0x00\n        /* \"#utility.yul\":12831:12884   */\n      tag_501\n        /* \"#utility.yul\":12876:12883   */\n      dup7\n        /* \"#utility.yul\":12867:12873   */\n      dup3\n        /* \"#utility.yul\":12856:12865   */\n      dup8\n        /* \"#utility.yul\":12852:12874   */\n      add\n        /* \"#utility.yul\":12831:12884   */\n      tag_324\n      jump\t// in\n    tag_501:\n        /* \"#utility.yul\":12821:12884   */\n      swap4\n      pop\n        /* \"#utility.yul\":12777:12894   */\n      pop\n        /* \"#utility.yul\":12933:12935   */\n      0x20\n        /* \"#utility.yul\":12959:13012   */\n      tag_502\n        /* \"#utility.yul\":13004:13011   */\n      dup7\n        /* \"#utility.yul\":12995:13001   */\n      dup3\n        /* \"#utility.yul\":12984:12993   */\n      dup8\n        /* \"#utility.yul\":12980:13002   */\n      add\n        /* \"#utility.yul\":12959:13012   */\n      tag_324\n      jump\t// in\n    tag_502:\n        /* \"#utility.yul\":12949:13012   */\n      swap3\n      pop\n        /* \"#utility.yul\":12904:13022   */\n      pop\n        /* \"#utility.yul\":13089:13091   */\n      0x40\n        /* \"#utility.yul\":13078:13087   */\n      dup5\n        /* \"#utility.yul\":13074:13092   */\n      add\n        /* \"#utility.yul\":13061:13093   */\n      calldataload\n        /* \"#utility.yul\":13120:13138   */\n      0xffffffffffffffff\n        /* \"#utility.yul\":13112:13118   */\n      dup2\n        /* \"#utility.yul\":13109:13139   */\n      gt\n        /* \"#utility.yul\":13106:13223   */\n      iszero\n      tag_503\n      jumpi\n        /* \"#utility.yul\":13142:13221   */\n      tag_504\n      tag_292\n      jump\t// in\n    tag_504:\n        /* \"#utility.yul\":13106:13223   */\n    tag_503:\n        /* \"#utility.yul\":13247:13325   */\n      tag_505\n        /* \"#utility.yul\":13317:13324   */\n      dup7\n        /* \"#utility.yul\":13308:13314   */\n      dup3\n        /* \"#utility.yul\":13297:13306   */\n      dup8\n        /* \"#utility.yul\":13293:13315   */\n      add\n        /* \"#utility.yul\":13247:13325   */\n      tag_304\n      jump\t// in\n    tag_505:\n        /* \"#utility.yul\":13237:13325   */\n      swap2\n      pop\n        /* \"#utility.yul\":13032:13335   */\n      pop\n        /* \"#utility.yul\":12513:13342   */\n      swap3\n      pop\n      swap3\n      pop\n      swap3\n      jump\t// out\n        /* \"#utility.yul\":13348:13438   */\n    tag_325:\n        /* \"#utility.yul\":13382:13389   */\n      0x00\n        /* \"#utility.yul\":13425:13430   */\n      dup2\n        /* \"#utility.yul\":13418:13431   */\n      iszero\n        /* \"#utility.yul\":13411:13432   */\n      iszero\n        /* \"#utility.yul\":13400:13432   */\n      swap1\n      pop\n        /* \"#utility.yul\":13348:13438   */\n      swap2\n      swap1\n      pop\n      jump\t// out\n        /* \"#utility.yul\":13444:13553   */\n    tag_326:\n        /* \"#utility.yul\":13525:13546   */\n      tag_508\n        /* \"#utility.yul\":13540:13545   */\n      dup2\n        /* \"#utility.yul\":13525:13546   */\n      tag_325\n      jump\t// in\n    tag_508:\n        /* \"#utility.yul\":13520:13523   */\n      dup3\n        /* \"#utility.yul\":13513:13547   */\n      mstore\n        /* \"#utility.yul\":13444:13553   */\n      pop\n      pop\n      jump\t// out\n        /* \"#utility.yul\":13559:13769   */\n    tag_49:\n        /* \"#utility.yul\":13646:13650   */\n      0x00\n        /* \"#utility.yul\":13684:13686   */\n      0x20\n        /* \"#utility.yul\":13673:13682   */\n      dup3\n        /* \"#utility.yul\":13669:13687   */\n      add\n        /* \"#utility.yul\":13661:13687   */\n      swap1\n      pop\n        /* \"#utility.yul\":13697:13762   */\n      tag_510\n        /* \"#utility.yul\":13759:13760   */\n      0x00\n        /* \"#utility.yul\":13748:13757   */\n      dup4\n        /* \"#utility.yul\":13744:13761   */\n      add\n        /* \"#utility.yul\":13735:13741   */\n      dup5\n        /* \"#utility.yul\":13697:13762   */\n      tag_326\n      jump\t// in\n    tag_510:\n        /* \"#utility.yul\":13559:13769   */\n      swap3\n      swap2\n      pop\n      pop\n      jump\t// out\n        /* \"#utility.yul\":13775:13852   */\n    tag_327:\n        /* \"#utility.yul\":13812:13819   */\n      0x00\n        /* \"#utility.yul\":13841:13846   */\n      dup2\n        /* \"#utility.yul\":13830:13846   */\n      swap1\n      pop\n        /* \"#utility.yul\":13775:13852   */\n      swap2\n      swap1\n      pop\n      jump\t// out\n        /* \"#utility.yul\":13858:13976   */\n    tag_328:\n        /* \"#utility.yul\":13945:13969   */\n      tag_513\n        /* \"#utility.yul\":13963:13968   */\n      dup2\n        /* \"#utility.yul\":13945:13969   */\n      tag_327\n      jump\t// in\n    tag_513:\n        /* \"#utility.yul\":13940:13943   */\n      dup3\n        /* \"#utility.yul\":13933:13970   */\n      mstore\n        /* \"#utility.yul\":13858:13976   */\n      pop\n      pop\n      jump\t// out\n        /* \"#utility.yul\":13982:14204   */\n    tag_56:\n        /* \"#utility.yul\":14075:14079   */\n      0x00\n        /* \"#utility.yul\":14113:14115   */\n      0x20\n        /* \"#utility.yul\":14102:14111   */\n      dup3\n        /* \"#utility.yul\":14098:14116   */\n      add\n        /* \"#utility.yul\":14090:14116   */\n      swap1\n      pop\n        /* \"#utility.yul\":14126:14197   */\n      tag_515\n        /* \"#utility.yul\":14194:14195   */\n      0x00\n        /* \"#utility.yul\":14183:14192   */\n      dup4\n        /* \"#utility.yul\":14179:14196   */\n      add\n        /* \"#utility.yul\":14170:14176   */\n      dup5\n        /* \"#utility.yul\":14126:14197   */\n      tag_328\n      jump\t// in\n    tag_515:\n        /* \"#utility.yul\":13982:14204   */\n      swap3\n      swap2\n      pop\n      pop\n      jump\t// out\n        /* \"#utility.yul\":14210:14719   */\n    tag_59:\n        /* \"#utility.yul\":14279:14285   */\n      0x00\n        /* \"#utility.yul\":14328:14330   */\n      0x20\n        /* \"#utility.yul\":14316:14325   */\n      dup3\n        /* \"#utility.yul\":14307:14314   */\n      dup5\n        /* \"#utility.yul\":14303:14326   */\n      sub\n        /* \"#utility.yul\":14299:14331   */\n      slt\n        /* \"#utility.yul\":14296:14415   */\n      iszero\n      tag_517\n      jumpi\n        /* \"#utility.yul\":14334:14413   */\n      tag_518\n      tag_291\n      jump\t// in\n    tag_518:\n        /* \"#utility.yul\":14296:14415   */\n    tag_517:\n        /* \"#utility.yul\":14482:14483   */\n      0x00\n        /* \"#utility.yul\":14471:14480   */\n      dup3\n        /* \"#utility.yul\":14467:14484   */\n      add\n        /* \"#utility.yul\":14454:14485   */\n      calldataload\n        /* \"#utility.yul\":14512:14530   */\n      0xffffffffffffffff\n        /* \"#utility.yul\":14504:14510   */\n      dup2\n        /* \"#utility.yul\":14501:14531   */\n      gt\n        /* \"#utility.yul\":14498:14615   */\n      iszero\n      tag_519\n      jumpi\n        /* \"#utility.yul\":14534:14613   */\n      tag_520\n      tag_292\n      jump\t// in\n    tag_520:\n        /* \"#utility.yul\":14498:14615   */\n    tag_519:\n        /* \"#utility.yul\":14639:14702   */\n      tag_521\n        /* \"#utility.yul\":14694:14701   */\n      dup5\n        /* \"#utility.yul\":14685:14691   */\n      dup3\n        /* \"#utility.yul\":14674:14683   */\n      dup6\n        /* \"#utility.yul\":14670:14692   */\n      add\n        /* \"#utility.yul\":14639:14702   */\n      tag_311\n      jump\t// in\n    tag_521:\n        /* \"#utility.yul\":14629:14702   */\n      swap2\n      pop\n        /* \"#utility.yul\":14425:14712   */\n      pop\n        /* \"#utility.yul\":14210:14719   */\n      swap3\n      swap2\n      pop\n      pop\n      jump\t// out\n        /* \"#utility.yul\":14725:14843   */\n    tag_329:\n        /* \"#utility.yul\":14812:14836   */\n      tag_523\n        /* \"#utility.yul\":14830:14835   */\n      dup2\n        /* \"#utility.yul\":14812:14836   */\n      tag_300\n      jump\t// in\n    tag_523:\n        /* \"#utility.yul\":14807:14810   */\n      dup3\n        /* \"#utility.yul\":14800:14837   */\n      mstore\n        /* \"#utility.yul\":14725:14843   */\n      pop\n      pop\n      jump\t// out\n        /* \"#utility.yul\":14849:15071   */\n    tag_62:\n        /* \"#utility.yul\":14942:14946   */\n      0x00\n        /* \"#utility.yul\":14980:14982   */\n      0x20\n        /* \"#utility.yul\":14969:14978   */\n      dup3\n        /* \"#utility.yul\":14965:14983   */\n      add\n        /* \"#utility.yul\":14957:14983   */\n      swap1\n      pop\n        /* \"#utility.yul\":14993:15064   */\n      tag_525\n        /* \"#utility.yul\":15061:15062   */\n      0x00\n        /* \"#utility.yul\":15050:15059   */\n      dup4\n        /* \"#utility.yul\":15046:15063   */\n      add\n        /* \"#utility.yul\":15037:15043   */\n      dup5\n        /* \"#utility.yul\":14993:15064   */\n      tag_329\n      jump\t// in\n    tag_525:\n        /* \"#utility.yul\":14849:15071   */\n      swap3\n      swap2\n      pop\n      pop\n      jump\t// out\n        /* \"#utility.yul\":15077:15199   */\n    tag_330:\n        /* \"#utility.yul\":15150:15174   */\n      tag_527\n        /* \"#utility.yul\":15168:15173   */\n      dup2\n        /* \"#utility.yul\":15150:15174   */\n      tag_327\n      jump\t// in\n    tag_527:\n        /* \"#utility.yul\":15143:15148   */\n      dup2\n        /* \"#utility.yul\":15140:15175   */\n      eq\n        /* \"#utility.yul\":15130:15193   */\n      tag_528\n      jumpi\n        /* \"#utility.yul\":15189:15190   */\n      0x00\n        /* \"#utility.yul\":15186:15187   */\n      dup1\n        /* \"#utility.yul\":15179:15191   */\n      revert\n        /* \"#utility.yul\":15130:15193   */\n    tag_528:\n        /* \"#utility.yul\":15077:15199   */\n      pop\n      jump\t// out\n        /* \"#utility.yul\":15205:15344   */\n    tag_331:\n        /* \"#utility.yul\":15251:15256   */\n      0x00\n        /* \"#utility.yul\":15289:15295   */\n      dup2\n        /* \"#utility.yul\":15276:15296   */\n      calldataload\n        /* \"#utility.yul\":15267:15296   */\n      swap1\n      pop\n        /* \"#utility.yul\":15305:15338   */\n      tag_530\n        /* \"#utility.yul\":15332:15337   */\n      dup2\n        /* \"#utility.yul\":15305:15338   */\n      tag_330\n      jump\t// in\n    tag_530:\n        /* \"#utility.yul\":15205:15344   */\n      swap3\n      swap2\n      pop\n      pop\n      jump\t// out\n        /* \"#utility.yul\":15350:15824   */\n    tag_65:\n        /* \"#utility.yul\":15418:15424   */\n      0x00\n        /* \"#utility.yul\":15426:15432   */\n      dup1\n        /* \"#utility.yul\":15475:15477   */\n      0x40\n        /* \"#utility.yul\":15463:15472   */\n      dup4\n        /* \"#utility.yul\":15454:15461   */\n      dup6\n        /* \"#utility.yul\":15450:15473   */\n      sub\n        /* \"#utility.yul\":15446:15478   */\n      slt\n        /* \"#utility.yul\":15443:15562   */\n      iszero\n      tag_532\n      jumpi\n        /* \"#utility.yul\":15481:15560   */\n      tag_533\n      tag_291\n      jump\t// in\n    tag_533:\n        /* \"#utility.yul\":15443:15562   */\n    tag_532:\n        /* \"#utility.yul\":15601:15602   */\n      0x00\n        /* \"#utility.yul\":15626:15679   */\n      tag_534\n        /* \"#utility.yul\":15671:15678   */\n      dup6\n        /* \"#utility.yul\":15662:15668   */\n      dup3\n        /* \"#utility.yul\":15651:15660   */\n      dup7\n        /* \"#utility.yul\":15647:15669   */\n      add\n        /* \"#utility.yul\":15626:15679   */\n      tag_331\n      jump\t// in\n    tag_534:\n        /* \"#utility.yul\":15616:15679   */\n      swap3\n      pop\n        /* \"#utility.yul\":15572:15689   */\n      pop\n        /* \"#utility.yul\":15728:15730   */\n      0x20\n        /* \"#utility.yul\":15754:15807   */\n      tag_535\n        /* \"#utility.yul\":15799:15806   */\n      dup6\n        /* \"#utility.yul\":15790:15796   */\n      dup3\n        /* \"#utility.yul\":15779:15788   */\n      dup7\n        /* \"#utility.yul\":15775:15797   */\n      add\n        /* \"#utility.yul\":15754:15807   */\n      tag_302\n      jump\t// in\n    tag_535:\n        /* \"#utility.yul\":15744:15807   */\n      swap2\n      pop\n        /* \"#utility.yul\":15699:15817   */\n      pop\n        /* \"#utility.yul\":15350:15824   */\n      swap3\n      pop\n      swap3\n      swap1\n      pop\n      jump\t// out\n        /* \"#utility.yul\":15830:16159   */\n    tag_70:\n        /* \"#utility.yul\":15889:15895   */\n      0x00\n        /* \"#utility.yul\":15938:15940   */\n      0x20\n        /* \"#utility.yul\":15926:15935   */\n      dup3\n        /* \"#utility.yul\":15917:15924   */\n      dup5\n        /* \"#utility.yul\":15913:15936   */\n      sub\n        /* \"#utility.yul\":15909:15941   */\n      slt\n        /* \"#utility.yul\":15906:16025   */\n      iszero\n      tag_537\n      jumpi\n        /* \"#utility.yul\":15944:16023   */\n      tag_538\n      tag_291\n      jump\t// in\n    tag_538:\n        /* \"#utility.yul\":15906:16025   */\n    tag_537:\n        /* \"#utility.yul\":16064:16065   */\n      0x00\n        /* \"#utility.yul\":16089:16142   */\n      tag_539\n        /* \"#utility.yul\":16134:16141   */\n      dup5\n        /* \"#utility.yul\":16125:16131   */\n      dup3\n        /* \"#utility.yul\":16114:16123   */\n      dup6\n        /* \"#utility.yul\":16110:16132   */\n      add\n        /* \"#utility.yul\":16089:16142   */\n      tag_331\n      jump\t// in\n    tag_539:\n        /* \"#utility.yul\":16079:16142   */\n      swap2\n      pop\n        /* \"#utility.yul\":16035:16152   */\n      pop\n        /* \"#utility.yul\":15830:16159   */\n      swap3\n      swap2\n      pop\n      pop\n      jump\t// out\n        /* \"#utility.yul\":16165:16279   */\n    tag_332:\n        /* \"#utility.yul\":16232:16238   */\n      0x00\n        /* \"#utility.yul\":16266:16271   */\n      dup2\n        /* \"#utility.yul\":16260:16272   */\n      mload\n        /* \"#utility.yul\":16250:16272   */\n      swap1\n      pop\n        /* \"#utility.yul\":16165:16279   */\n      swap2\n      swap1\n      pop\n      jump\t// out\n        /* \"#utility.yul\":16285:16469   */\n    tag_333:\n        /* \"#utility.yul\":16384:16395   */\n      0x00\n        /* \"#utility.yul\":16418:16424   */\n      dup3\n        /* \"#utility.yul\":16413:16416   */\n      dup3\n        /* \"#utility.yul\":16406:16425   */\n      mstore\n        /* \"#utility.yul\":16458:16462   */\n      0x20\n        /* \"#utility.yul\":16453:16456   */\n      dup3\n        /* \"#utility.yul\":16449:16463   */\n      add\n        /* \"#utility.yul\":16434:16463   */\n      swap1\n      pop\n        /* \"#utility.yul\":16285:16469   */\n      swap3\n      swap2\n      pop\n      pop\n      jump\t// out\n        /* \"#utility.yul\":16475:16607   */\n    tag_334:\n        /* \"#utility.yul\":16542:16546   */\n      0x00\n        /* \"#utility.yul\":16565:16568   */\n      dup2\n        /* \"#utility.yul\":16557:16568   */\n      swap1\n      pop\n        /* \"#utility.yul\":16595:16599   */\n      0x20\n        /* \"#utility.yul\":16590:16593   */\n      dup3\n        /* \"#utility.yul\":16586:16600   */\n      add\n        /* \"#utility.yul\":16578:16600   */\n      swap1\n      pop\n        /* \"#utility.yul\":16475:16607   */\n      swap2\n      swap1\n      pop\n      jump\t// out\n        /* \"#utility.yul\":16613:16721   */\n    tag_335:\n        /* \"#utility.yul\":16690:16714   */\n      tag_544\n        /* \"#utility.yul\":16708:16713   */\n      dup2\n        /* \"#utility.yul\":16690:16714   */\n      tag_305\n      jump\t// in\n    tag_544:\n        /* \"#utility.yul\":16685:16688   */\n      dup3\n        /* \"#utility.yul\":16678:16715   */\n      mstore\n        /* \"#utility.yul\":16613:16721   */\n      pop\n      pop\n      jump\t// out\n        /* \"#utility.yul\":16727:16906   */\n    tag_336:\n        /* \"#utility.yul\":16796:16806   */\n      0x00\n        /* \"#utility.yul\":16817:16863   */\n      tag_546\n        /* \"#utility.yul\":16859:16862   */\n      dup4\n        /* \"#utility.yul\":16851:16857   */\n      dup4\n        /* \"#utility.yul\":16817:16863   */\n      tag_335\n      jump\t// in\n    tag_546:\n        /* \"#utility.yul\":16895:16899   */\n      0x20\n        /* \"#utility.yul\":16890:16893   */\n      dup4\n        /* \"#utility.yul\":16886:16900   */\n      add\n        /* \"#utility.yul\":16872:16900   */\n      swap1\n      pop\n        /* \"#utility.yul\":16727:16906   */\n      swap3\n      swap2\n      pop\n      pop\n      jump\t// out\n        /* \"#utility.yul\":16912:17025   */\n    tag_337:\n        /* \"#utility.yul\":16982:16986   */\n      0x00\n        /* \"#utility.yul\":17014:17018   */\n      0x20\n        /* \"#utility.yul\":17009:17012   */\n      dup3\n        /* \"#utility.yul\":17005:17019   */\n      add\n        /* \"#utility.yul\":16997:17019   */\n      swap1\n      pop\n        /* \"#utility.yul\":16912:17025   */\n      swap2\n      swap1\n      pop\n      jump\t// out\n        /* \"#utility.yul\":17061:17793   */\n    tag_338:\n        /* \"#utility.yul\":17180:17183   */\n      0x00\n        /* \"#utility.yul\":17209:17263   */\n      tag_549\n        /* \"#utility.yul\":17257:17262   */\n      dup3\n        /* \"#utility.yul\":17209:17263   */\n      tag_332\n      jump\t// in\n    tag_549:\n        /* \"#utility.yul\":17279:17365   */\n      tag_550\n        /* \"#utility.yul\":17358:17364   */\n      dup2\n        /* \"#utility.yul\":17353:17356   */\n      dup6\n        /* \"#utility.yul\":17279:17365   */\n      tag_333\n      jump\t// in\n    tag_550:\n        /* \"#utility.yul\":17272:17365   */\n      swap4\n      pop\n        /* \"#utility.yul\":17389:17445   */\n      tag_551\n        /* \"#utility.yul\":17439:17444   */\n      dup4\n        /* \"#utility.yul\":17389:17445   */\n      tag_334\n      jump\t// in\n    tag_551:\n        /* \"#utility.yul\":17468:17475   */\n      dup1\n        /* \"#utility.yul\":17499:17500   */\n      0x00\n        /* \"#utility.yul\":17484:17768   */\n    tag_552:\n        /* \"#utility.yul\":17509:17515   */\n      dup4\n        /* \"#utility.yul\":17506:17507   */\n      dup2\n        /* \"#utility.yul\":17503:17516   */\n      lt\n        /* \"#utility.yul\":17484:17768   */\n      iszero\n      tag_554\n      jumpi\n        /* \"#utility.yul\":17585:17591   */\n      dup2\n        /* \"#utility.yul\":17579:17592   */\n      mload\n        /* \"#utility.yul\":17612:17675   */\n      tag_555\n        /* \"#utility.yul\":17671:17674   */\n      dup9\n        /* \"#utility.yul\":17656:17669   */\n      dup3\n        /* \"#utility.yul\":17612:17675   */\n      tag_336\n      jump\t// in\n    tag_555:\n        /* \"#utility.yul\":17605:17675   */\n      swap8\n      pop\n        /* \"#utility.yul\":17698:17758   */\n      tag_556\n        /* \"#utility.yul\":17751:17757   */\n      dup4\n        /* \"#utility.yul\":17698:17758   */\n      tag_337\n      jump\t// in\n    tag_556:\n        /* \"#utility.yul\":17688:17758   */\n      swap3\n      pop\n        /* \"#utility.yul\":17544:17768   */\n      pop\n        /* \"#utility.yul\":17531:17532   */\n      0x01\n        /* \"#utility.yul\":17528:17529   */\n      dup2\n        /* \"#utility.yul\":17524:17533   */\n      add\n        /* \"#utility.yul\":17519:17533   */\n      swap1\n      pop\n        /* \"#utility.yul\":17484:17768   */\n      jump(tag_552)\n    tag_554:\n        /* \"#utility.yul\":17488:17502   */\n      pop\n        /* \"#utility.yul\":17784:17787   */\n      dup6\n        /* \"#utility.yul\":17777:17787   */\n      swap4\n      pop\n        /* \"#utility.yul\":17185:17793   */\n      pop\n      pop\n      pop\n        /* \"#utility.yul\":17061:17793   */\n      swap3\n      swap2\n      pop\n      pop\n      jump\t// out\n        /* \"#utility.yul\":17799:18533   */\n    tag_73:\n        /* \"#utility.yul\":18070:18074   */\n      0x00\n        /* \"#utility.yul\":18108:18110   */\n      0x40\n        /* \"#utility.yul\":18097:18106   */\n      dup3\n        /* \"#utility.yul\":18093:18111   */\n      add\n        /* \"#utility.yul\":18085:18111   */\n      swap1\n      pop\n        /* \"#utility.yul\":18157:18166   */\n      dup2\n        /* \"#utility.yul\":18151:18155   */\n      dup2\n        /* \"#utility.yul\":18147:18167   */\n      sub\n        /* \"#utility.yul\":18143:18144   */\n      0x00\n        /* \"#utility.yul\":18132:18141   */\n      dup4\n        /* \"#utility.yul\":18128:18145   */\n      add\n        /* \"#utility.yul\":18121:18168   */\n      mstore\n        /* \"#utility.yul\":18185:18343   */\n      tag_558\n        /* \"#utility.yul\":18338:18342   */\n      dup2\n        /* \"#utility.yul\":18329:18335   */\n      dup6\n        /* \"#utility.yul\":18185:18343   */\n      tag_322\n      jump\t// in\n    tag_558:\n        /* \"#utility.yul\":18177:18343   */\n      swap1\n      pop\n        /* \"#utility.yul\":18390:18399   */\n      dup2\n        /* \"#utility.yul\":18384:18388   */\n      dup2\n        /* \"#utility.yul\":18380:18400   */\n      sub\n        /* \"#utility.yul\":18375:18377   */\n      0x20\n        /* \"#utility.yul\":18364:18373   */\n      dup4\n        /* \"#utility.yul\":18360:18378   */\n      add\n        /* \"#utility.yul\":18353:18401   */\n      mstore\n        /* \"#utility.yul\":18418:18526   */\n      tag_559\n        /* \"#utility.yul\":18521:18525   */\n      dup2\n        /* \"#utility.yul\":18512:18518   */\n      dup5\n        /* \"#utility.yul\":18418:18526   */\n      tag_338\n      jump\t// in\n    tag_559:\n        /* \"#utility.yul\":18410:18526   */\n      swap1\n      pop\n        /* \"#utility.yul\":17799:18533   */\n      swap4\n      swap3\n      pop\n      pop\n      pop\n      jump\t// out\n        /* \"#utility.yul\":18539:19158   */\n    tag_76:\n        /* \"#utility.yul\":18616:18622   */\n      0x00\n        /* \"#utility.yul\":18624:18630   */\n      dup1\n        /* \"#utility.yul\":18632:18638   */\n      0x00\n        /* \"#utility.yul\":18681:18683   */\n      0x60\n        /* \"#utility.yul\":18669:18678   */\n      dup5\n        /* \"#utility.yul\":18660:18667   */\n      dup7\n        /* \"#utility.yul\":18656:18679   */\n      sub\n        /* \"#utility.yul\":18652:18684   */\n      slt\n        /* \"#utility.yul\":18649:18768   */\n      iszero\n      tag_561\n      jumpi\n        /* \"#utility.yul\":18687:18766   */\n      tag_562\n      tag_291\n      jump\t// in\n    tag_562:\n        /* \"#utility.yul\":18649:18768   */\n    tag_561:\n        /* \"#utility.yul\":18807:18808   */\n      0x00\n        /* \"#utility.yul\":18832:18885   */\n      tag_563\n        /* \"#utility.yul\":18877:18884   */\n      dup7\n        /* \"#utility.yul\":18868:18874   */\n      dup3\n        /* \"#utility.yul\":18857:18866   */\n      dup8\n        /* \"#utility.yul\":18853:18875   */\n      add\n        /* \"#utility.yul\":18832:18885   */\n      tag_331\n      jump\t// in\n    tag_563:\n        /* \"#utility.yul\":18822:18885   */\n      swap4\n      pop\n        /* \"#utility.yul\":18778:18895   */\n      pop\n        /* \"#utility.yul\":18934:18936   */\n      0x20\n        /* \"#utility.yul\":18960:19013   */\n      tag_564\n        /* \"#utility.yul\":19005:19012   */\n      dup7\n        /* \"#utility.yul\":18996:19002   */\n      dup3\n        /* \"#utility.yul\":18985:18994   */\n      dup8\n        /* \"#utility.yul\":18981:19003   */\n      add\n        /* \"#utility.yul\":18960:19013   */\n      tag_302\n      jump\t// in\n    tag_564:\n        /* \"#utility.yul\":18950:19013   */\n      swap3\n      pop\n        /* \"#utility.yul\":18905:19023   */\n      pop\n        /* \"#utility.yul\":19062:19064   */\n      0x40\n        /* \"#utility.yul\":19088:19141   */\n      tag_565\n        /* \"#utility.yul\":19133:19140   */\n      dup7\n        /* \"#utility.yul\":19124:19130   */\n      dup3\n        /* \"#utility.yul\":19113:19122   */\n      dup8\n        /* \"#utility.yul\":19109:19131   */\n      add\n        /* \"#utility.yul\":19088:19141   */\n      tag_302\n      jump\t// in\n    tag_565:\n        /* \"#utility.yul\":19078:19141   */\n      swap2\n      pop\n        /* \"#utility.yul\":19033:19151   */\n      pop\n        /* \"#utility.yul\":18539:19158   */\n      swap3\n      pop\n      swap3\n      pop\n      swap3\n      jump\t// out\n        /* \"#utility.yul\":19164:19493   */\n    tag_80:\n        /* \"#utility.yul\":19223:19229   */\n      0x00\n        /* \"#utility.yul\":19272:19274   */\n      0x20\n        /* \"#utility.yul\":19260:19269   */\n      dup3\n        /* \"#utility.yul\":19251:19258   */\n      dup5\n        /* \"#utility.yul\":19247:19270   */\n      sub\n        /* \"#utility.yul\":19243:19275   */\n      slt\n        /* \"#utility.yul\":19240:19359   */\n      iszero\n      tag_567\n      jumpi\n        /* \"#utility.yul\":19278:19357   */\n      tag_568\n      tag_291\n      jump\t// in\n    tag_568:\n        /* \"#utility.yul\":19240:19359   */\n    tag_567:\n        /* \"#utility.yul\":19398:19399   */\n      0x00\n        /* \"#utility.yul\":19423:19476   */\n      tag_569\n        /* \"#utility.yul\":19468:19475   */\n      dup5\n        /* \"#utility.yul\":19459:19465   */\n      dup3\n        /* \"#utility.yul\":19448:19457   */\n      dup6\n        /* \"#utility.yul\":19444:19466   */\n      add\n        /* \"#utility.yul\":19423:19476   */\n      tag_302\n      jump\t// in\n    tag_569:\n        /* \"#utility.yul\":19413:19476   */\n      swap2\n      pop\n        /* \"#utility.yul\":19369:19486   */\n      pop\n        /* \"#utility.yul\":19164:19493   */\n      swap3\n      swap2\n      pop\n      pop\n      jump\t// out\n        /* \"#utility.yul\":19569:20503   */\n    tag_339:\n        /* \"#utility.yul\":19688:19691   */\n      0x00\n        /* \"#utility.yul\":19724:19728   */\n      0x60\n        /* \"#utility.yul\":19719:19722   */\n      dup4\n        /* \"#utility.yul\":19715:19729   */\n      add\n        /* \"#utility.yul\":19811:19815   */\n      0x00\n        /* \"#utility.yul\":19804:19809   */\n      dup4\n        /* \"#utility.yul\":19800:19816   */\n      add\n        /* \"#utility.yul\":19794:19817   */\n      mload\n        /* \"#utility.yul\":19864:19867   */\n      dup5\n        /* \"#utility.yul\":19858:19862   */\n      dup3\n        /* \"#utility.yul\":19854:19868   */\n      sub\n        /* \"#utility.yul\":19847:19851   */\n      0x00\n        /* \"#utility.yul\":19842:19845   */\n      dup7\n        /* \"#utility.yul\":19838:19852   */\n      add\n        /* \"#utility.yul\":19831:19869   */\n      mstore\n        /* \"#utility.yul\":19890:19963   */\n      tag_571\n        /* \"#utility.yul\":19958:19962   */\n      dup3\n        /* \"#utility.yul\":19944:19956   */\n      dup3\n        /* \"#utility.yul\":19890:19963   */\n      tag_318\n      jump\t// in\n    tag_571:\n        /* \"#utility.yul\":19882:19963   */\n      swap2\n      pop\n        /* \"#utility.yul\":19739:19974   */\n      pop\n        /* \"#utility.yul\":20057:20061   */\n      0x20\n        /* \"#utility.yul\":20050:20055   */\n      dup4\n        /* \"#utility.yul\":20046:20062   */\n      add\n        /* \"#utility.yul\":20040:20063   */\n      mload\n        /* \"#utility.yul\":20110:20113   */\n      dup5\n        /* \"#utility.yul\":20104:20108   */\n      dup3\n        /* \"#utility.yul\":20100:20114   */\n      sub\n        /* \"#utility.yul\":20093:20097   */\n      0x20\n        /* \"#utility.yul\":20088:20091   */\n      dup7\n        /* \"#utility.yul\":20084:20098   */\n      add\n        /* \"#utility.yul\":20077:20115   */\n      mstore\n        /* \"#utility.yul\":20136:20209   */\n      tag_572\n        /* \"#utility.yul\":20204:20208   */\n      dup3\n        /* \"#utility.yul\":20190:20202   */\n      dup3\n        /* \"#utility.yul\":20136:20209   */\n      tag_318\n      jump\t// in\n    tag_572:\n        /* \"#utility.yul\":20128:20209   */\n      swap2\n      pop\n        /* \"#utility.yul\":19984:20220   */\n      pop\n        /* \"#utility.yul\":20313:20317   */\n      0x40\n        /* \"#utility.yul\":20306:20311   */\n      dup4\n        /* \"#utility.yul\":20302:20318   */\n      add\n        /* \"#utility.yul\":20296:20319   */\n      mload\n        /* \"#utility.yul\":20366:20369   */\n      dup5\n        /* \"#utility.yul\":20360:20364   */\n      dup3\n        /* \"#utility.yul\":20356:20370   */\n      sub\n        /* \"#utility.yul\":20349:20353   */\n      0x40\n        /* \"#utility.yul\":20344:20347   */\n      dup7\n        /* \"#utility.yul\":20340:20354   */\n      add\n        /* \"#utility.yul\":20333:20371   */\n      mstore\n        /* \"#utility.yul\":20392:20465   */\n      tag_573\n        /* \"#utility.yul\":20460:20464   */\n      dup3\n        /* \"#utility.yul\":20446:20458   */\n      dup3\n        /* \"#utility.yul\":20392:20465   */\n      tag_318\n      jump\t// in\n    tag_573:\n        /* \"#utility.yul\":20384:20465   */\n      swap2\n      pop\n        /* \"#utility.yul\":20230:20476   */\n      pop\n        /* \"#utility.yul\":20493:20497   */\n      dup1\n        /* \"#utility.yul\":20486:20497   */\n      swap2\n      pop\n        /* \"#utility.yul\":19693:20503   */\n      pop\n        /* \"#utility.yul\":19569:20503   */\n      swap3\n      swap2\n      pop\n      pop\n      jump\t// out\n        /* \"#utility.yul\":20509:20882   */\n    tag_83:\n        /* \"#utility.yul\":20652:20656   */\n      0x00\n        /* \"#utility.yul\":20690:20692   */\n      0x20\n        /* \"#utility.yul\":20679:20688   */\n      dup3\n        /* \"#utility.yul\":20675:20693   */\n      add\n        /* \"#utility.yul\":20667:20693   */\n      swap1\n      pop\n        /* \"#utility.yul\":20739:20748   */\n      dup2\n        /* \"#utility.yul\":20733:20737   */\n      dup2\n        /* \"#utility.yul\":20729:20749   */\n      sub\n        /* \"#utility.yul\":20725:20726   */\n      0x00\n        /* \"#utility.yul\":20714:20723   */\n      dup4\n        /* \"#utility.yul\":20710:20727   */\n      add\n        /* \"#utility.yul\":20703:20750   */\n      mstore\n        /* \"#utility.yul\":20767:20875   */\n      tag_575\n        /* \"#utility.yul\":20870:20874   */\n      dup2\n        /* \"#utility.yul\":20861:20867   */\n      dup5\n        /* \"#utility.yul\":20767:20875   */\n      tag_339\n      jump\t// in\n    tag_575:\n        /* \"#utility.yul\":20759:20875   */\n      swap1\n      pop\n        /* \"#utility.yul\":20509:20882   */\n      swap3\n      swap2\n      pop\n      pop\n      jump\t// out\n        /* \"#utility.yul\":20888:21217   */\n    tag_89:\n        /* \"#utility.yul\":20947:20953   */\n      0x00\n        /* \"#utility.yul\":20996:20998   */\n      0x20\n        /* \"#utility.yul\":20984:20993   */\n      dup3\n        /* \"#utility.yul\":20975:20982   */\n      dup5\n        /* \"#utility.yul\":20971:20994   */\n      sub\n        /* \"#utility.yul\":20967:20999   */\n      slt\n        /* \"#utility.yul\":20964:21083   */\n      iszero\n      tag_577\n      jumpi\n        /* \"#utility.yul\":21002:21081   */\n      tag_578\n      tag_291\n      jump\t// in\n    tag_578:\n        /* \"#utility.yul\":20964:21083   */\n    tag_577:\n        /* \"#utility.yul\":21122:21123   */\n      0x00\n        /* \"#utility.yul\":21147:21200   */\n      tag_579\n        /* \"#utility.yul\":21192:21199   */\n      dup5\n        /* \"#utility.yul\":21183:21189   */\n      dup3\n        /* \"#utility.yul\":21172:21181   */\n      dup6\n        /* \"#utility.yul\":21168:21190   */\n      add\n        /* \"#utility.yul\":21147:21200   */\n      tag_324\n      jump\t// in\n    tag_579:\n        /* \"#utility.yul\":21137:21200   */\n      swap2\n      pop\n        /* \"#utility.yul\":21093:21210   */\n      pop\n        /* \"#utility.yul\":20888:21217   */\n      swap3\n      swap2\n      pop\n      pop\n      jump\t// out\n        /* \"#utility.yul\":21223:21337   */\n    tag_340:\n        /* \"#utility.yul\":21290:21296   */\n      0x00\n        /* \"#utility.yul\":21324:21329   */\n      dup2\n        /* \"#utility.yul\":21318:21330   */\n      mload\n        /* \"#utility.yul\":21308:21330   */\n      swap1\n      pop\n        /* \"#utility.yul\":21223:21337   */\n      swap2\n      swap1\n      pop\n      jump\t// out\n        /* \"#utility.yul\":21343:21527   */\n    tag_341:\n        /* \"#utility.yul\":21442:21453   */\n      0x00\n        /* \"#utility.yul\":21476:21482   */\n      dup3\n        /* \"#utility.yul\":21471:21474   */\n      dup3\n        /* \"#utility.yul\":21464:21483   */\n      mstore\n        /* \"#utility.yul\":21516:21520   */\n      0x20\n        /* \"#utility.yul\":21511:21514   */\n      dup3\n        /* \"#utility.yul\":21507:21521   */\n      add\n        /* \"#utility.yul\":21492:21521   */\n      swap1\n      pop\n        /* \"#utility.yul\":21343:21527   */\n      swap3\n      swap2\n      pop\n      pop\n      jump\t// out\n        /* \"#utility.yul\":21533:21665   */\n    tag_342:\n        /* \"#utility.yul\":21600:21604   */\n      0x00\n        /* \"#utility.yul\":21623:21626   */\n      dup2\n        /* \"#utility.yul\":21615:21626   */\n      swap1\n      pop\n        /* \"#utility.yul\":21653:21657   */\n      0x20\n        /* \"#utility.yul\":21648:21651   */\n      dup3\n        /* \"#utility.yul\":21644:21658   */\n      add\n        /* \"#utility.yul\":21636:21658   */\n      swap1\n      pop\n        /* \"#utility.yul\":21533:21665   */\n      swap2\n      swap1\n      pop\n      jump\t// out\n        /* \"#utility.yul\":21671:21779   */\n    tag_343:\n        /* \"#utility.yul\":21748:21772   */\n      tag_584\n        /* \"#utility.yul\":21766:21771   */\n      dup2\n        /* \"#utility.yul\":21748:21772   */\n      tag_300\n      jump\t// in\n    tag_584:\n        /* \"#utility.yul\":21743:21746   */\n      dup3\n        /* \"#utility.yul\":21736:21773   */\n      mstore\n        /* \"#utility.yul\":21671:21779   */\n      pop\n      pop\n      jump\t// out\n        /* \"#utility.yul\":21785:21964   */\n    tag_344:\n        /* \"#utility.yul\":21854:21864   */\n      0x00\n        /* \"#utility.yul\":21875:21921   */\n      tag_586\n        /* \"#utility.yul\":21917:21920   */\n      dup4\n        /* \"#utility.yul\":21909:21915   */\n      dup4\n        /* \"#utility.yul\":21875:21921   */\n      tag_343\n      jump\t// in\n    tag_586:\n        /* \"#utility.yul\":21953:21957   */\n      0x20\n        /* \"#utility.yul\":21948:21951   */\n      dup4\n        /* \"#utility.yul\":21944:21958   */\n      add\n        /* \"#utility.yul\":21930:21958   */\n      swap1\n      pop\n        /* \"#utility.yul\":21785:21964   */\n      swap3\n      swap2\n      pop\n      pop\n      jump\t// out\n        /* \"#utility.yul\":21970:22083   */\n    tag_345:\n        /* \"#utility.yul\":22040:22044   */\n      0x00\n        /* \"#utility.yul\":22072:22076   */\n      0x20\n        /* \"#utility.yul\":22067:22070   */\n      dup3\n        /* \"#utility.yul\":22063:22077   */\n      add\n        /* \"#utility.yul\":22055:22077   */\n      swap1\n      pop\n        /* \"#utility.yul\":21970:22083   */\n      swap2\n      swap1\n      pop\n      jump\t// out\n        /* \"#utility.yul\":22119:22851   */\n    tag_346:\n        /* \"#utility.yul\":22238:22241   */\n      0x00\n        /* \"#utility.yul\":22267:22321   */\n      tag_589\n        /* \"#utility.yul\":22315:22320   */\n      dup3\n        /* \"#utility.yul\":22267:22321   */\n      tag_340\n      jump\t// in\n    tag_589:\n        /* \"#utility.yul\":22337:22423   */\n      tag_590\n        /* \"#utility.yul\":22416:22422   */\n      dup2\n        /* \"#utility.yul\":22411:22414   */\n      dup6\n        /* \"#utility.yul\":22337:22423   */\n      tag_341\n      jump\t// in\n    tag_590:\n        /* \"#utility.yul\":22330:22423   */\n      swap4\n      pop\n        /* \"#utility.yul\":22447:22503   */\n      tag_591\n        /* \"#utility.yul\":22497:22502   */\n      dup4\n        /* \"#utility.yul\":22447:22503   */\n      tag_342\n      jump\t// in\n    tag_591:\n        /* \"#utility.yul\":22526:22533   */\n      dup1\n        /* \"#utility.yul\":22557:22558   */\n      0x00\n        /* \"#utility.yul\":22542:22826   */\n    tag_592:\n        /* \"#utility.yul\":22567:22573   */\n      dup4\n        /* \"#utility.yul\":22564:22565   */\n      dup2\n        /* \"#utility.yul\":22561:22574   */\n      lt\n        /* \"#utility.yul\":22542:22826   */\n      iszero\n      tag_594\n      jumpi\n        /* \"#utility.yul\":22643:22649   */\n      dup2\n        /* \"#utility.yul\":22637:22650   */\n      mload\n        /* \"#utility.yul\":22670:22733   */\n      tag_595\n        /* \"#utility.yul\":22729:22732   */\n      dup9\n        /* \"#utility.yul\":22714:22727   */\n      dup3\n        /* \"#utility.yul\":22670:22733   */\n      tag_344\n      jump\t// in\n    tag_595:\n        /* \"#utility.yul\":22663:22733   */\n      swap8\n      pop\n        /* \"#utility.yul\":22756:22816   */\n      tag_596\n        /* \"#utility.yul\":22809:22815   */\n      dup4\n        /* \"#utility.yul\":22756:22816   */\n      tag_345\n      jump\t// in\n    tag_596:\n        /* \"#utility.yul\":22746:22816   */\n      swap3\n      pop\n        /* \"#utility.yul\":22602:22826   */\n      pop\n        /* \"#utility.yul\":22589:22590   */\n      0x01\n        /* \"#utility.yul\":22586:22587   */\n      dup2\n        /* \"#utility.yul\":22582:22591   */\n      add\n        /* \"#utility.yul\":22577:22591   */\n      swap1\n      pop\n        /* \"#utility.yul\":22542:22826   */\n      jump(tag_592)\n    tag_594:\n        /* \"#utility.yul\":22546:22560   */\n      pop\n        /* \"#utility.yul\":22842:22845   */\n      dup6\n        /* \"#utility.yul\":22835:22845   */\n      swap4\n      pop\n        /* \"#utility.yul\":22243:22851   */\n      pop\n      pop\n      pop\n        /* \"#utility.yul\":22119:22851   */\n      swap3\n      swap2\n      pop\n      pop\n      jump\t// out\n        /* \"#utility.yul\":22857:23230   */\n    tag_96:\n        /* \"#utility.yul\":23000:23004   */\n      0x00\n        /* \"#utility.yul\":23038:23040   */\n      0x20\n        /* \"#utility.yul\":23027:23036   */\n      dup3\n        /* \"#utility.yul\":23023:23041   */\n      add\n        /* \"#utility.yul\":23015:23041   */\n      swap1\n      pop\n        /* \"#utility.yul\":23087:23096   */\n      dup2\n        /* \"#utility.yul\":23081:23085   */\n      dup2\n        /* \"#utility.yul\":23077:23097   */\n      sub\n        /* \"#utility.yul\":23073:23074   */\n      0x00\n        /* \"#utility.yul\":23062:23071   */\n      dup4\n        /* \"#utility.yul\":23058:23075   */\n      add\n        /* \"#utility.yul\":23051:23098   */\n      mstore\n        /* \"#utility.yul\":23115:23223   */\n      tag_598\n        /* \"#utility.yul\":23218:23222   */\n      dup2\n        /* \"#utility.yul\":23209:23215   */\n      dup5\n        /* \"#utility.yul\":23115:23223   */\n      tag_346\n      jump\t// in\n    tag_598:\n        /* \"#utility.yul\":23107:23223   */\n      swap1\n      pop\n        /* \"#utility.yul\":22857:23230   */\n      swap3\n      swap2\n      pop\n      pop\n      jump\t// out\n        /* \"#utility.yul\":23236:23416   */\n    tag_107:\n        /* \"#utility.yul\":23284:23361   */\n      0x4e487b7100000000000000000000000000000000000000000000000000000000\n        /* \"#utility.yul\":23281:23282   */\n      0x00\n        /* \"#utility.yul\":23274:23362   */\n      mstore\n        /* \"#utility.yul\":23381:23385   */\n      0x32\n        /* \"#utility.yul\":23378:23379   */\n      0x04\n        /* \"#utility.yul\":23371:23386   */\n      mstore\n        /* \"#utility.yul\":23405:23409   */\n      0x24\n        /* \"#utility.yul\":23402:23403   */\n      0x00\n        /* \"#utility.yul\":23395:23410   */\n      revert\n        /* \"#utility.yul\":23422:23602   */\n    tag_347:\n        /* \"#utility.yul\":23470:23547   */\n      0x4e487b7100000000000000000000000000000000000000000000000000000000\n        /* \"#utility.yul\":23467:23468   */\n      0x00\n        /* \"#utility.yul\":23460:23548   */\n      mstore\n        /* \"#utility.yul\":23567:23571   */\n      0x11\n        /* \"#utility.yul\":23564:23565   */\n      0x04\n        /* \"#utility.yul\":23557:23572   */\n      mstore\n        /* \"#utility.yul\":23591:23595   */\n      0x24\n        /* \"#utility.yul\":23588:23589   */\n      0x00\n        /* \"#utility.yul\":23581:23596   */\n      revert\n        /* \"#utility.yul\":23608:23841   */\n    tag_110:\n        /* \"#utility.yul\":23647:23650   */\n      0x00\n        /* \"#utility.yul\":23670:23694   */\n      tag_602\n        /* \"#utility.yul\":23688:23693   */\n      dup3\n        /* \"#utility.yul\":23670:23694   */\n      tag_305\n      jump\t// in\n    tag_602:\n        /* \"#utility.yul\":23661:23694   */\n      swap2\n      pop\n        /* \"#utility.yul\":23716:23782   */\n      0xffffffffffffffffffffffffffffffffffffffffffffffffffffffffffffffff\n        /* \"#utility.yul\":23709:23714   */\n      dup3\n        /* \"#utility.yul\":23706:23783   */\n      sub\n        /* \"#utility.yul\":23703:23806   */\n      tag_603\n      jumpi\n        /* \"#utility.yul\":23786:23804   */\n      tag_604\n      tag_347\n      jump\t// in\n    tag_604:\n        /* \"#utility.yul\":23703:23806   */\n    tag_603:\n        /* \"#utility.yul\":23833:23834   */\n      0x01\n        /* \"#utility.yul\":23826:23831   */\n      dup3\n        /* \"#utility.yul\":23822:23835   */\n      add\n        /* \"#utility.yul\":23815:23835   */\n      swap1\n      pop\n        /* \"#utility.yul\":23608:23841   */\n      swap2\n      swap1\n      pop\n      jump\t// out\n        /* \"#utility.yul\":23847:24027   */\n    tag_348:\n        /* \"#utility.yul\":23895:23972   */\n      0x4e487b7100000000000000000000000000000000000000000000000000000000\n        /* \"#utility.yul\":23892:23893   */\n      0x00\n        /* \"#utility.yul\":23885:23973   */\n      mstore\n        /* \"#utility.yul\":23992:23996   */\n      0x22\n        /* \"#utility.yul\":23989:23990   */\n      0x04\n        /* \"#utility.yul\":23982:23997   */\n      mstore\n        /* \"#utility.yul\":24016:24020   */\n      0x24\n        /* \"#utility.yul\":24013:24014   */\n      0x00\n        /* \"#utility.yul\":24006:24021   */\n      revert\n        /* \"#utility.yul\":24033:24353   */\n    tag_144:\n        /* \"#utility.yul\":24077:24083   */\n      0x00\n        /* \"#utility.yul\":24114:24115   */\n      0x02\n        /* \"#utility.yul\":24108:24112   */\n      dup3\n        /* \"#utility.yul\":24104:24116   */\n      div\n        /* \"#utility.yul\":24094:24116   */\n      swap1\n      pop\n        /* \"#utility.yul\":24161:24162   */\n      0x01\n        /* \"#utility.yul\":24155:24159   */\n      dup3\n        /* \"#utility.yul\":24151:24163   */\n      and\n        /* \"#utility.yul\":24182:24200   */\n      dup1\n        /* \"#utility.yul\":24172:24253   */\n      tag_607\n      jumpi\n        /* \"#utility.yul\":24238:24242   */\n      0x7f\n        /* \"#utility.yul\":24230:24236   */\n      dup3\n        /* \"#utility.yul\":24226:24243   */\n      and\n        /* \"#utility.yul\":24216:24243   */\n      swap2\n      pop\n        /* \"#utility.yul\":24172:24253   */\n    tag_607:\n        /* \"#utility.yul\":24300:24302   */\n      0x20\n        /* \"#utility.yul\":24292:24298   */\n      dup3\n        /* \"#utility.yul\":24289:24303   */\n      lt\n        /* \"#utility.yul\":24269:24287   */\n      dup2\n        /* \"#utility.yul\":24266:24304   */\n      sub\n        /* \"#utility.yul\":24263:24347   */\n      tag_608\n      jumpi\n        /* \"#utility.yul\":24319:24337   */\n      tag_609\n      tag_348\n      jump\t// in\n    tag_609:\n        /* \"#utility.yul\":24263:24347   */\n    tag_608:\n        /* \"#utility.yul\":24084:24353   */\n      pop\n        /* \"#utility.yul\":24033:24353   */\n      swap2\n      swap1\n      pop\n      jump\t// out\n        /* \"#utility.yul\":24359:24500   */\n    tag_349:\n        /* \"#utility.yul\":24408:24412   */\n      0x00\n        /* \"#utility.yul\":24431:24434   */\n      dup2\n        /* \"#utility.yul\":24423:24434   */\n      swap1\n      pop\n        /* \"#utility.yul\":24454:24457   */\n      dup2\n        /* \"#utility.yul\":24451:24452   */\n      0x00\n        /* \"#utility.yul\":24444:24458   */\n      mstore\n        /* \"#utility.yul\":24488:24492   */\n      0x20\n        /* \"#utility.yul\":24485:24486   */\n      0x00\n        /* \"#utility.yul\":24475:24493   */\n      keccak256\n        /* \"#utility.yul\":24467:24493   */\n      swap1\n      pop\n        /* \"#utility.yul\":24359:24500   */\n      swap2\n      swap1\n      pop\n      jump\t// out\n        /* \"#utility.yul\":24506:24599   */\n    tag_350:\n        /* \"#utility.yul\":24543:24549   */\n      0x00\n        /* \"#utility.yul\":24590:24592   */\n      0x20\n        /* \"#utility.yul\":24585:24587   */\n      0x1f\n        /* \"#utility.yul\":24578:24583   */\n      dup4\n        /* \"#utility.yul\":24574:24588   */\n      add\n        /* \"#utility.yul\":24570:24593   */\n      div\n        /* \"#utility.yul\":24560:24593   */\n      swap1\n      pop\n        /* \"#utility.yul\":24506:24599   */\n      swap2\n      swap1\n      pop\n      jump\t// out\n        /* \"#utility.yul\":24605:24712   */\n    tag_351:\n        /* \"#utility.yul\":24649:24657   */\n      0x00\n        /* \"#utility.yul\":24699:24704   */\n      dup3\n        /* \"#utility.yul\":24693:24697   */\n      dup3\n        /* \"#utility.yul\":24689:24705   */\n      shl\n        /* \"#utility.yul\":24668:24705   */\n      swap1\n      pop\n        /* \"#utility.yul\":24605:24712   */\n      swap3\n      swap2\n      pop\n      pop\n      jump\t// out\n        /* \"#utility.yul\":24718:25111   */\n    tag_352:\n        /* \"#utility.yul\":24787:24793   */\n      0x00\n        /* \"#utility.yul\":24837:24838   */\n      0x08\n        /* \"#utility.yul\":24825:24835   */\n      dup4\n        /* \"#utility.yul\":24821:24839   */\n      mul\n        /* \"#utility.yul\":24860:24957   */\n      tag_614\n        /* \"#utility.yul\":24890:24956   */\n      0xffffffffffffffffffffffffffffffffffffffffffffffffffffffffffffffff\n        /* \"#utility.yul\":24879:24888   */\n      dup3\n        /* \"#utility.yul\":24860:24957   */\n      tag_351\n      jump\t// in\n    tag_614:\n        /* \"#utility.yul\":24978:25017   */\n      tag_615\n        /* \"#utility.yul\":25008:25016   */\n      dup7\n        /* \"#utility.yul\":24997:25006   */\n      dup4\n        /* \"#utility.yul\":24978:25017   */\n      tag_351\n      jump\t// in\n    tag_615:\n        /* \"#utility.yul\":24966:25017   */\n      swap6\n      pop\n        /* \"#utility.yul\":25050:25054   */\n      dup1\n        /* \"#utility.yul\":25046:25055   */\n      not\n        /* \"#utility.yul\":25039:25044   */\n      dup5\n        /* \"#utility.yul\":25035:25056   */\n      and\n        /* \"#utility.yul\":25026:25056   */\n      swap4\n      pop\n        /* \"#utility.yul\":25099:25103   */\n      dup1\n        /* \"#utility.yul\":25089:25097   */\n      dup7\n        /* \"#utility.yul\":25085:25104   */\n      and\n        /* \"#utility.yul\":25078:25083   */\n      dup5\n        /* \"#utility.yul\":25075:25105   */\n      or\n        /* \"#utility.yul\":25065:25105   */\n      swap3\n      pop\n        /* \"#utility.yul\":24794:25111   */\n      pop\n      pop\n        /* \"#utility.yul\":24718:25111   */\n      swap4\n      swap3\n      pop\n      pop\n      pop\n      jump\t// out\n        /* \"#utility.yul\":25117:25177   */\n    tag_353:\n        /* \"#utility.yul\":25145:25148   */\n      0x00\n        /* \"#utility.yul\":25166:25171   */\n      dup2\n        /* \"#utility.yul\":25159:25171   */\n      swap1\n      pop\n        /* \"#utility.yul\":25117:25177   */\n      swap2\n      swap1\n      pop\n      jump\t// out\n        /* \"#utility.yul\":25183:25325   */\n    tag_354:\n        /* \"#utility.yul\":25233:25242   */\n      0x00\n        /* \"#utility.yul\":25266:25319   */\n      tag_618\n        /* \"#utility.yul\":25284:25318   */\n      tag_619\n        /* \"#utility.yul\":25293:25317   */\n      tag_620\n        /* \"#utility.yul\":25311:25316   */\n      dup5\n        /* \"#utility.yul\":25293:25317   */\n      tag_305\n      jump\t// in\n    tag_620:\n        /* \"#utility.yul\":25284:25318   */\n      tag_353\n      jump\t// in\n    tag_619:\n        /* \"#utility.yul\":25266:25319   */\n      tag_305\n      jump\t// in\n    tag_618:\n        /* \"#utility.yul\":25253:25319   */\n      swap1\n      pop\n        /* \"#utility.yul\":25183:25325   */\n      swap2\n      swap1\n      pop\n      jump\t// out\n        /* \"#utility.yul\":25331:25406   */\n    tag_355:\n        /* \"#utility.yul\":25374:25377   */\n      0x00\n        /* \"#utility.yul\":25395:25400   */\n      dup2\n        /* \"#utility.yul\":25388:25400   */\n      swap1\n      pop\n        /* \"#utility.yul\":25331:25406   */\n      swap2\n      swap1\n      pop\n      jump\t// out\n        /* \"#utility.yul\":25412:25681   */\n    tag_356:\n        /* \"#utility.yul\":25522:25561   */\n      tag_623\n        /* \"#utility.yul\":25553:25560   */\n      dup4\n        /* \"#utility.yul\":25522:25561   */\n      tag_354\n      jump\t// in\n    tag_623:\n        /* \"#utility.yul\":25583:25674   */\n      tag_624\n        /* \"#utility.yul\":25632:25673   */\n      tag_625\n        /* \"#utility.yul\":25656:25672   */\n      dup3\n        /* \"#utility.yul\":25632:25673   */\n      tag_355\n      jump\t// in\n    tag_625:\n        /* \"#utility.yul\":25624:25630   */\n      dup5\n        /* \"#utility.yul\":25617:25621   */\n      dup5\n        /* \"#utility.yul\":25611:25622   */\n      sload\n        /* \"#utility.yul\":25583:25674   */\n      tag_352\n      jump\t// in\n    tag_624:\n        /* \"#utility.yul\":25577:25581   */\n      dup3\n        /* \"#utility.yul\":25570:25675   */\n      sstore\n        /* \"#utility.yul\":25488:25681   */\n      pop\n        /* \"#utility.yul\":25412:25681   */\n      pop\n      pop\n      pop\n      jump\t// out\n        /* \"#utility.yul\":25687:25760   */\n    tag_357:\n        /* \"#utility.yul\":25732:25735   */\n      0x00\n        /* \"#utility.yul\":25687:25760   */\n      swap1\n      jump\t// out\n        /* \"#utility.yul\":25766:25955   */\n    tag_358:\n        /* \"#utility.yul\":25843:25875   */\n      tag_628\n      tag_357\n      jump\t// in\n    tag_628:\n        /* \"#utility.yul\":25884:25949   */\n      tag_629\n        /* \"#utility.yul\":25942:25948   */\n      dup2\n        /* \"#utility.yul\":25934:25940   */\n      dup5\n        /* \"#utility.yul\":25928:25932   */\n      dup5\n        /* \"#utility.yul\":25884:25949   */\n      tag_356\n      jump\t// in\n    tag_629:\n        /* \"#utility.yul\":25819:25955   */\n      pop\n        /* \"#utility.yul\":25766:25955   */\n      pop\n      pop\n      jump\t// out\n        /* \"#utility.yul\":25961:26147   */\n    tag_359:\n        /* \"#utility.yul\":26021:26141   */\n    tag_631:\n        /* \"#utility.yul\":26038:26041   */\n      dup2\n        /* \"#utility.yul\":26031:26036   */\n      dup2\n        /* \"#utility.yul\":26028:26042   */\n      lt\n        /* \"#utility.yul\":26021:26141   */\n      iszero\n      tag_633\n      jumpi\n        /* \"#utility.yul\":26092:26131   */\n      tag_634\n        /* \"#utility.yul\":26129:26130   */\n      0x00\n        /* \"#utility.yul\":26122:26127   */\n      dup3\n        /* \"#utility.yul\":26092:26131   */\n      tag_358\n      jump\t// in\n    tag_634:\n        /* \"#utility.yul\":26065:26066   */\n      0x01\n        /* \"#utility.yul\":26058:26063   */\n      dup2\n        /* \"#utility.yul\":26054:26067   */\n      add\n        /* \"#utility.yul\":26045:26067   */\n      swap1\n      pop\n        /* \"#utility.yul\":26021:26141   */\n      jump(tag_631)\n    tag_633:\n        /* \"#utility.yul\":25961:26147   */\n      pop\n      pop\n      jump\t// out\n        /* \"#utility.yul\":26153:26696   */\n    tag_360:\n        /* \"#utility.yul\":26254:26256   */\n      0x1f\n        /* \"#utility.yul\":26249:26252   */\n      dup3\n        /* \"#utility.yul\":26246:26257   */\n      gt\n        /* \"#utility.yul\":26243:26689   */\n      iszero\n      tag_636\n      jumpi\n        /* \"#utility.yul\":26288:26326   */\n      tag_637\n        /* \"#utility.yul\":26320:26325   */\n      dup2\n        /* \"#utility.yul\":26288:26326   */\n      tag_349\n      jump\t// in\n    tag_637:\n        /* \"#utility.yul\":26372:26401   */\n      tag_638\n        /* \"#utility.yul\":26390:26400   */\n      dup5\n        /* \"#utility.yul\":26372:26401   */\n      tag_350\n      jump\t// in\n    tag_638:\n        /* \"#utility.yul\":26362:26370   */\n      dup2\n        /* \"#utility.yul\":26358:26402   */\n      add\n        /* \"#utility.yul\":26555:26557   */\n      0x20\n        /* \"#utility.yul\":26543:26553   */\n      dup6\n        /* \"#utility.yul\":26540:26558   */\n      lt\n        /* \"#utility.yul\":26537:26586   */\n      iszero\n      tag_639\n      jumpi\n        /* \"#utility.yul\":26576:26584   */\n      dup2\n        /* \"#utility.yul\":26561:26584   */\n      swap1\n      pop\n        /* \"#utility.yul\":26537:26586   */\n    tag_639:\n        /* \"#utility.yul\":26599:26679   */\n      tag_640\n        /* \"#utility.yul\":26655:26677   */\n      tag_641\n        /* \"#utility.yul\":26673:26676   */\n      dup6\n        /* \"#utility.yul\":26655:26677   */\n      tag_350\n      jump\t// in\n    tag_641:\n        /* \"#utility.yul\":26645:26653   */\n      dup4\n        /* \"#utility.yul\":26641:26678   */\n      add\n        /* \"#utility.yul\":26628:26639   */\n      dup3\n        /* \"#utility.yul\":26599:26679   */\n      tag_359\n      jump\t// in\n    tag_640:\n        /* \"#utility.yul\":26258:26689   */\n      pop\n      pop\n        /* \"#utility.yul\":26243:26689   */\n    tag_636:\n        /* \"#utility.yul\":26153:26696   */\n      pop\n      pop\n      pop\n      jump\t// out\n        /* \"#utility.yul\":26702:26819   */\n    tag_361:\n        /* \"#utility.yul\":26756:26764   */\n      0x00\n        /* \"#utility.yul\":26806:26811   */\n      dup3\n        /* \"#utility.yul\":26800:26804   */\n      dup3\n        /* \"#utility.yul\":26796:26812   */\n      shr\n        /* \"#utility.yul\":26775:26812   */\n      swap1\n      pop\n        /* \"#utility.yul\":26702:26819   */\n      swap3\n      swap2\n      pop\n      pop\n      jump\t// out\n        /* \"#utility.yul\":26825:26994   */\n    tag_362:\n        /* \"#utility.yul\":26869:26875   */\n      0x00\n        /* \"#utility.yul\":26902:26953   */\n      tag_644\n        /* \"#utility.yul\":26950:26951   */\n      0x00\n        /* \"#utility.yul\":26946:26952   */\n      not\n        /* \"#utility.yul\":26938:26943   */\n      dup5\n        /* \"#utility.yul\":26935:26936   */\n      0x08\n        /* \"#utility.yul\":26931:26944   */\n      mul\n        /* \"#utility.yul\":26902:26953   */\n      tag_361\n      jump\t// in\n    tag_644:\n        /* \"#utility.yul\":26898:26954   */\n      not\n        /* \"#utility.yul\":26983:26987   */\n      dup1\n        /* \"#utility.yul\":26977:26981   */\n      dup4\n        /* \"#utility.yul\":26973:26988   */\n      and\n        /* \"#utility.yul\":26963:26988   */\n      swap2\n      pop\n        /* \"#utility.yul\":26876:26994   */\n      pop\n        /* \"#utility.yul\":26825:26994   */\n      swap3\n      swap2\n      pop\n      pop\n      jump\t// out\n        /* \"#utility.yul\":26999:27294   */\n    tag_363:\n        /* \"#utility.yul\":27075:27079   */\n      0x00\n        /* \"#utility.yul\":27221:27250   */\n      tag_646\n        /* \"#utility.yul\":27246:27249   */\n      dup4\n        /* \"#utility.yul\":27240:27244   */\n      dup4\n        /* \"#utility.yul\":27221:27250   */\n      tag_362\n      jump\t// in\n    tag_646:\n        /* \"#utility.yul\":27213:27250   */\n      swap2\n      pop\n        /* \"#utility.yul\":27283:27286   */\n      dup3\n        /* \"#utility.yul\":27280:27281   */\n      0x02\n        /* \"#utility.yul\":27276:27287   */\n      mul\n        /* \"#utility.yul\":27270:27274   */\n      dup3\n        /* \"#utility.yul\":27267:27288   */\n      or\n        /* \"#utility.yul\":27259:27288   */\n      swap1\n      pop\n        /* \"#utility.yul\":26999:27294   */\n      swap3\n      swap2\n      pop\n      pop\n      jump\t// out\n        /* \"#utility.yul\":27299:28694   */\n    tag_113:\n        /* \"#utility.yul\":27416:27453   */\n      tag_648\n        /* \"#utility.yul\":27449:27452   */\n      dup3\n        /* \"#utility.yul\":27416:27453   */\n      tag_315\n      jump\t// in\n    tag_648:\n        /* \"#utility.yul\":27518:27536   */\n      0xffffffffffffffff\n        /* \"#utility.yul\":27510:27516   */\n      dup2\n        /* \"#utility.yul\":27507:27537   */\n      gt\n        /* \"#utility.yul\":27504:27560   */\n      iszero\n      tag_649\n      jumpi\n        /* \"#utility.yul\":27540:27558   */\n      tag_650\n      tag_124\n      jump\t// in\n    tag_650:\n        /* \"#utility.yul\":27504:27560   */\n    tag_649:\n        /* \"#utility.yul\":27584:27622   */\n      tag_651\n        /* \"#utility.yul\":27616:27620   */\n      dup3\n        /* \"#utility.yul\":27610:27621   */\n      sload\n        /* \"#utility.yul\":27584:27622   */\n      tag_144\n      jump\t// in\n    tag_651:\n        /* \"#utility.yul\":27669:27736   */\n      tag_652\n        /* \"#utility.yul\":27729:27735   */\n      dup3\n        /* \"#utility.yul\":27721:27727   */\n      dup3\n        /* \"#utility.yul\":27715:27719   */\n      dup6\n        /* \"#utility.yul\":27669:27736   */\n      tag_360\n      jump\t// in\n    tag_652:\n        /* \"#utility.yul\":27763:27764   */\n      0x00\n        /* \"#utility.yul\":27787:27791   */\n      0x20\n        /* \"#utility.yul\":27774:27791   */\n      swap1\n      pop\n        /* \"#utility.yul\":27819:27821   */\n      0x1f\n        /* \"#utility.yul\":27811:27817   */\n      dup4\n        /* \"#utility.yul\":27808:27822   */\n      gt\n        /* \"#utility.yul\":27836:27837   */\n      0x01\n        /* \"#utility.yul\":27831:28449   */\n      dup2\n      eq\n      tag_654\n      jumpi\n        /* \"#utility.yul\":28493:28494   */\n      0x00\n        /* \"#utility.yul\":28510:28516   */\n      dup5\n        /* \"#utility.yul\":28507:28584   */\n      iszero\n      tag_655\n      jumpi\n        /* \"#utility.yul\":28559:28568   */\n      dup3\n        /* \"#utility.yul\":28554:28557   */\n      dup8\n        /* \"#utility.yul\":28550:28569   */\n      add\n        /* \"#utility.yul\":28544:28570   */\n      mload\n        /* \"#utility.yul\":28535:28570   */\n      swap1\n      pop\n        /* \"#utility.yul\":28507:28584   */\n    tag_655:\n        /* \"#utility.yul\":28610:28677   */\n      tag_656\n        /* \"#utility.yul\":28670:28676   */\n      dup6\n        /* \"#utility.yul\":28663:28668   */\n      dup3\n        /* \"#utility.yul\":28610:28677   */\n      tag_363\n      jump\t// in\n    tag_656:\n        /* \"#utility.yul\":28604:28608   */\n      dup7\n        /* \"#utility.yul\":28597:28678   */\n      sstore\n        /* \"#utility.yul\":28466:28688   */\n      pop\n        /* \"#utility.yul\":27801:28688   */\n      jump(tag_653)\n        /* \"#utility.yul\":27831:28449   */\n    tag_654:\n        /* \"#utility.yul\":27883:27887   */\n      0x1f\n        /* \"#utility.yul\":27879:27888   */\n      not\n        /* \"#utility.yul\":27871:27877   */\n      dup5\n        /* \"#utility.yul\":27867:27889   */\n      and\n        /* \"#utility.yul\":27917:27954   */\n      tag_657\n        /* \"#utility.yul\":27949:27953   */\n      dup7\n        /* \"#utility.yul\":27917:27954   */\n      tag_349\n      jump\t// in\n    tag_657:\n        /* \"#utility.yul\":27976:27977   */\n      0x00\n        /* \"#utility.yul\":27990:28198   */\n    tag_658:\n        /* \"#utility.yul\":28004:28011   */\n      dup3\n        /* \"#utility.yul\":28001:28002   */\n      dup2\n        /* \"#utility.yul\":27998:28012   */\n      lt\n        /* \"#utility.yul\":27990:28198   */\n      iszero\n      tag_660\n      jumpi\n        /* \"#utility.yul\":28083:28092   */\n      dup5\n        /* \"#utility.yul\":28078:28081   */\n      dup10\n        /* \"#utility.yul\":28074:28093   */\n      add\n        /* \"#utility.yul\":28068:28094   */\n      mload\n        /* \"#utility.yul\":28060:28066   */\n      dup3\n        /* \"#utility.yul\":28053:28095   */\n      sstore\n        /* \"#utility.yul\":28134:28135   */\n      0x01\n        /* \"#utility.yul\":28126:28132   */\n      dup3\n        /* \"#utility.yul\":28122:28136   */\n      add\n        /* \"#utility.yul\":28112:28136   */\n      swap2\n      pop\n        /* \"#utility.yul\":28181:28183   */\n      0x20\n        /* \"#utility.yul\":28170:28179   */\n      dup6\n        /* \"#utility.yul\":28166:28184   */\n      add\n        /* \"#utility.yul\":28153:28184   */\n      swap5\n      pop\n        /* \"#utility.yul\":28027:28031   */\n      0x20\n        /* \"#utility.yul\":28024:28025   */\n      dup2\n        /* \"#utility.yul\":28020:28032   */\n      add\n        /* \"#utility.yul\":28015:28032   */\n      swap1\n      pop\n        /* \"#utility.yul\":27990:28198   */\n      jump(tag_658)\n    tag_660:\n        /* \"#utility.yul\":28226:28232   */\n      dup7\n        /* \"#utility.yul\":28217:28224   */\n      dup4\n        /* \"#utility.yul\":28214:28233   */\n      lt\n        /* \"#utility.yul\":28211:28390   */\n      iszero\n      tag_661\n      jumpi\n        /* \"#utility.yul\":28284:28293   */\n      dup5\n        /* \"#utility.yul\":28279:28282   */\n      dup10\n        /* \"#utility.yul\":28275:28294   */\n      add\n        /* \"#utility.yul\":28269:28295   */\n      mload\n        /* \"#utility.yul\":28327:28375   */\n      tag_662\n        /* \"#utility.yul\":28369:28373   */\n      0x1f\n        /* \"#utility.yul\":28361:28367   */\n      dup10\n        /* \"#utility.yul\":28357:28374   */\n      and\n        /* \"#utility.yul\":28346:28355   */\n      dup3\n        /* \"#utility.yul\":28327:28375   */\n      tag_362\n      jump\t// in\n    tag_662:\n        /* \"#utility.yul\":28319:28325   */\n      dup4\n        /* \"#utility.yul\":28312:28376   */\n      sstore\n        /* \"#utility.yul\":28234:28390   */\n      pop\n        /* \"#utility.yul\":28211:28390   */\n    tag_661:\n        /* \"#utility.yul\":28436:28437   */\n      0x01\n        /* \"#utility.yul\":28432:28433   */\n      0x02\n        /* \"#utility.yul\":28424:28430   */\n      dup9\n        /* \"#utility.yul\":28420:28434   */\n      mul\n        /* \"#utility.yul\":28416:28438   */\n      add\n        /* \"#utility.yul\":28410:28414   */\n      dup9\n        /* \"#utility.yul\":28403:28439   */\n      sstore\n        /* \"#utility.yul\":27838:28449   */\n      pop\n      pop\n      pop\n        /* \"#utility.yul\":27801:28688   */\n    tag_653:\n      pop\n        /* \"#utility.yul\":27391:28694   */\n      pop\n      pop\n      pop\n        /* \"#utility.yul\":27299:28694   */\n      pop\n      pop\n      jump\t// out\n        /* \"#utility.yul\":28700:28848   */\n    tag_364:\n        /* \"#utility.yul\":28802:28813   */\n      0x00\n        /* \"#utility.yul\":28839:28842   */\n      dup2\n        /* \"#utility.yul\":28824:28842   */\n      swap1\n      pop\n        /* \"#utility.yul\":28700:28848   */\n      swap3\n      swap2\n      pop\n      pop\n      jump\t// out\n        /* \"#utility.yul\":28854:29244   */\n    tag_365:\n        /* \"#utility.yul\":28960:28963   */\n      0x00\n        /* \"#utility.yul\":28988:29027   */\n      tag_665\n        /* \"#utility.yul\":29021:29026   */\n      dup3\n        /* \"#utility.yul\":28988:29027   */\n      tag_315\n      jump\t// in\n    tag_665:\n        /* \"#utility.yul\":29043:29132   */\n      tag_666\n        /* \"#utility.yul\":29125:29131   */\n      dup2\n        /* \"#utility.yul\":29120:29123   */\n      dup6\n        /* \"#utility.yul\":29043:29132   */\n      tag_364\n      jump\t// in\n    tag_666:\n        /* \"#utility.yul\":29036:29132   */\n      swap4\n      pop\n        /* \"#utility.yul\":29141:29206   */\n      tag_667\n        /* \"#utility.yul\":29199:29205   */\n      dup2\n        /* \"#utility.yul\":29194:29197   */\n      dup6\n        /* \"#utility.yul\":29187:29191   */\n      0x20\n        /* \"#utility.yul\":29180:29185   */\n      dup7\n        /* \"#utility.yul\":29176:29192   */\n      add\n        /* \"#utility.yul\":29141:29206   */\n      tag_317\n      jump\t// in\n    tag_667:\n        /* \"#utility.yul\":29231:29237   */\n      dup1\n        /* \"#utility.yul\":29226:29229   */\n      dup5\n        /* \"#utility.yul\":29222:29238   */\n      add\n        /* \"#utility.yul\":29215:29238   */\n      swap2\n      pop\n        /* \"#utility.yul\":28964:29244   */\n      pop\n        /* \"#utility.yul\":28854:29244   */\n      swap3\n      swap2\n      pop\n      pop\n      jump\t// out\n        /* \"#utility.yul\":29250:29525   */\n    tag_155:\n        /* \"#utility.yul\":29382:29385   */\n      0x00\n        /* \"#utility.yul\":29404:29499   */\n      tag_669\n        /* \"#utility.yul\":29495:29498   */\n      dup3\n        /* \"#utility.yul\":29486:29492   */\n      dup5\n        /* \"#utility.yul\":29404:29499   */\n      tag_365\n      jump\t// in\n    tag_669:\n        /* \"#utility.yul\":29397:29499   */\n      swap2\n      pop\n        /* \"#utility.yul\":29516:29519   */\n      dup2\n        /* \"#utility.yul\":29509:29519   */\n      swap1\n      pop\n        /* \"#utility.yul\":29250:29525   */\n      swap3\n      swap2\n      pop\n      pop\n      jump\t// out\n        /* \"#utility.yul\":29531:29700   */\n    tag_366:\n        /* \"#utility.yul\":29615:29626   */\n      0x00\n        /* \"#utility.yul\":29649:29655   */\n      dup3\n        /* \"#utility.yul\":29644:29647   */\n      dup3\n        /* \"#utility.yul\":29637:29656   */\n      mstore\n        /* \"#utility.yul\":29689:29693   */\n      0x20\n        /* \"#utility.yul\":29684:29687   */\n      dup3\n        /* \"#utility.yul\":29680:29694   */\n      add\n        /* \"#utility.yul\":29665:29694   */\n      swap1\n      pop\n        /* \"#utility.yul\":29531:29700   */\n      swap3\n      swap2\n      pop\n      pop\n      jump\t// out\n        /* \"#utility.yul\":29706:29875   */\n    tag_367:\n        /* \"#utility.yul\":29846:29867   */\n      0x43616e646964617465206e6f7420666f756e6400000000000000000000000000\n        /* \"#utility.yul\":29842:29843   */\n      0x00\n        /* \"#utility.yul\":29834:29840   */\n      dup3\n        /* \"#utility.yul\":29830:29844   */\n      add\n        /* \"#utility.yul\":29823:29868   */\n      mstore\n        /* \"#utility.yul\":29706:29875   */\n      pop\n      jump\t// out\n        /* \"#utility.yul\":29881:30247   */\n    tag_368:\n        /* \"#utility.yul\":30023:30026   */\n      0x00\n        /* \"#utility.yul\":30044:30111   */\n      tag_673\n        /* \"#utility.yul\":30108:30110   */\n      0x13\n        /* \"#utility.yul\":30103:30106   */\n      dup4\n        /* \"#utility.yul\":30044:30111   */\n      tag_366\n      jump\t// in\n    tag_673:\n        /* \"#utility.yul\":30037:30111   */\n      swap2\n      pop\n        /* \"#utility.yul\":30120:30213   */\n      tag_674\n        /* \"#utility.yul\":30209:30212   */\n      dup3\n        /* \"#utility.yul\":30120:30213   */\n      tag_367\n      jump\t// in\n    tag_674:\n        /* \"#utility.yul\":30238:30240   */\n      0x20\n        /* \"#utility.yul\":30233:30236   */\n      dup3\n        /* \"#utility.yul\":30229:30241   */\n      add\n        /* \"#utility.yul\":30222:30241   */\n      swap1\n      pop\n        /* \"#utility.yul\":29881:30247   */\n      swap2\n      swap1\n      pop\n      jump\t// out\n        /* \"#utility.yul\":30253:30672   */\n    tag_196:\n        /* \"#utility.yul\":30419:30423   */\n      0x00\n        /* \"#utility.yul\":30457:30459   */\n      0x20\n        /* \"#utility.yul\":30446:30455   */\n      dup3\n        /* \"#utility.yul\":30442:30460   */\n      add\n        /* \"#utility.yul\":30434:30460   */\n      swap1\n      pop\n        /* \"#utility.yul\":30506:30515   */\n      dup2\n        /* \"#utility.yul\":30500:30504   */\n      dup2\n        /* \"#utility.yul\":30496:30516   */\n      sub\n        /* \"#utility.yul\":30492:30493   */\n      0x00\n        /* \"#utility.yul\":30481:30490   */\n      dup4\n        /* \"#utility.yul\":30477:30494   */\n      add\n        /* \"#utility.yul\":30470:30517   */\n      mstore\n        /* \"#utility.yul\":30534:30665   */\n      tag_676\n        /* \"#utility.yul\":30660:30664   */\n      dup2\n        /* \"#utility.yul\":30534:30665   */\n      tag_368\n      jump\t// in\n    tag_676:\n        /* \"#utility.yul\":30526:30665   */\n      swap1\n      pop\n        /* \"#utility.yul\":30253:30672   */\n      swap2\n      swap1\n      pop\n      jump\t// out\n        /* \"#utility.yul\":30678:30845   */\n    tag_369:\n        /* \"#utility.yul\":30818:30837   */\n      0x496e76616c69642063616e646964617465000000000000000000000000000000\n        /* \"#utility.yul\":30814:30815   */\n      0x00\n        /* \"#utility.yul\":30806:30812   */\n      dup3\n        /* \"#utility.yul\":30802:30816   */\n      add\n        /* \"#utility.yul\":30795:30838   */\n      mstore\n        /* \"#utility.yul\":30678:30845   */\n      pop\n      jump\t// out\n        /* \"#utility.yul\":30851:31217   */\n    tag_370:\n        /* \"#utility.yul\":30993:30996   */\n      0x00\n        /* \"#utility.yul\":31014:31081   */\n      tag_679\n        /* \"#utility.yul\":31078:31080   */\n      0x11\n        /* \"#utility.yul\":31073:31076   */\n      dup4\n        /* \"#utility.yul\":31014:31081   */\n      tag_366\n      jump\t// in\n    tag_679:\n        /* \"#utility.yul\":31007:31081   */\n      swap2\n      pop\n        /* \"#utility.yul\":31090:31183   */\n      tag_680\n        /* \"#utility.yul\":31179:31182   */\n      dup3\n        /* \"#utility.yul\":31090:31183   */\n      tag_369\n      jump\t// in\n    tag_680:\n        /* \"#utility.yul\":31208:31210   */\n      0x20\n        /* \"#utility.yul\":31203:31206   */\n      dup3\n        /* \"#utility.yul\":31199:31211   */\n      add\n        /* \"#utility.yul\":31192:31211   */\n      swap1\n      pop\n        /* \"#utility.yul\":30851:31217   */\n      swap2\n      swap1\n      pop\n      jump\t// out\n        /* \"#utility.yul\":31223:31642   */\n    tag_238:\n        /* \"#utility.yul\":31389:31393   */\n      0x00\n        /* \"#utility.yul\":31427:31429   */\n      0x20\n        /* \"#utility.yul\":31416:31425   */\n      dup3\n        /* \"#utility.yul\":31412:31430   */\n      add\n        /* \"#utility.yul\":31404:31430   */\n      swap1\n      pop\n        /* \"#utility.yul\":31476:31485   */\n      dup2\n        /* \"#utility.yul\":31470:31474   */\n      dup2\n        /* \"#utility.yul\":31466:31486   */\n      sub\n        /* \"#utility.yul\":31462:31463   */\n      0x00\n        /* \"#utility.yul\":31451:31460   */\n      dup4\n        /* \"#utility.yul\":31447:31464   */\n      add\n        /* \"#utility.yul\":31440:31487   */\n      mstore\n        /* \"#utility.yul\":31504:31635   */\n      tag_682\n        /* \"#utility.yul\":31630:31634   */\n      dup2\n        /* \"#utility.yul\":31504:31635   */\n      tag_370\n      jump\t// in\n    tag_682:\n        /* \"#utility.yul\":31496:31635   */\n      swap1\n      pop\n        /* \"#utility.yul\":31223:31642   */\n      swap2\n      swap1\n      pop\n      jump\t// out\n        /* \"#utility.yul\":31648:31808   */\n    tag_371:\n        /* \"#utility.yul\":31788:31800   */\n      0x5573657220566f74656400000000000000000000000000000000000000000000\n        /* \"#utility.yul\":31784:31785   */\n      0x00\n        /* \"#utility.yul\":31776:31782   */\n      dup3\n        /* \"#utility.yul\":31772:31786   */\n      add\n        /* \"#utility.yul\":31765:31801   */\n      mstore\n        /* \"#utility.yul\":31648:31808   */\n      pop\n      jump\t// out\n        /* \"#utility.yul\":31814:32180   */\n    tag_372:\n        /* \"#utility.yul\":31956:31959   */\n      0x00\n        /* \"#utility.yul\":31977:32044   */\n      tag_685\n        /* \"#utility.yul\":32041:32043   */\n      0x0a\n        /* \"#utility.yul\":32036:32039   */\n      dup4\n        /* \"#utility.yul\":31977:32044   */\n      tag_366\n      jump\t// in\n    tag_685:\n        /* \"#utility.yul\":31970:32044   */\n      swap2\n      pop\n        /* \"#utility.yul\":32053:32146   */\n      tag_686\n        /* \"#utility.yul\":32142:32145   */\n      dup3\n        /* \"#utility.yul\":32053:32146   */\n      tag_371\n      jump\t// in\n    tag_686:\n        /* \"#utility.yul\":32171:32173   */\n      0x20\n        /* \"#utility.yul\":32166:32169   */\n      dup3\n        /* \"#utility.yul\":32162:32174   */\n      add\n        /* \"#utility.yul\":32155:32174   */\n      swap1\n      pop\n        /* \"#utility.yul\":31814:32180   */\n      swap2\n      swap1\n      pop\n      jump\t// out\n        /* \"#utility.yul\":32186:32605   */\n    tag_241:\n        /* \"#utility.yul\":32352:32356   */\n      0x00\n        /* \"#utility.yul\":32390:32392   */\n      0x20\n        /* \"#utility.yul\":32379:32388   */\n      dup3\n        /* \"#utility.yul\":32375:32393   */\n      add\n        /* \"#utility.yul\":32367:32393   */\n      swap1\n      pop\n        /* \"#utility.yul\":32439:32448   */\n      dup2\n        /* \"#utility.yul\":32433:32437   */\n      dup2\n        /* \"#utility.yul\":32429:32449   */\n      sub\n        /* \"#utility.yul\":32425:32426   */\n      0x00\n        /* \"#utility.yul\":32414:32423   */\n      dup4\n        /* \"#utility.yul\":32410:32427   */\n      add\n        /* \"#utility.yul\":32403:32450   */\n      mstore\n        /* \"#utility.yul\":32467:32598   */\n      tag_688\n        /* \"#utility.yul\":32593:32597   */\n      dup2\n        /* \"#utility.yul\":32467:32598   */\n      tag_372\n      jump\t// in\n    tag_688:\n        /* \"#utility.yul\":32459:32598   */\n      swap1\n      pop\n        /* \"#utility.yul\":32186:32605   */\n      swap2\n      swap1\n      pop\n      jump\t// out\n        /* \"#utility.yul\":32611:32802   */\n    tag_273:\n        /* \"#utility.yul\":32651:32654   */\n      0x00\n        /* \"#utility.yul\":32670:32690   */\n      tag_690\n        /* \"#utility.yul\":32688:32689   */\n      dup3\n        /* \"#utility.yul\":32670:32690   */\n      tag_305\n      jump\t// in\n    tag_690:\n        /* \"#utility.yul\":32665:32690   */\n      swap2\n      pop\n        /* \"#utility.yul\":32704:32724   */\n      tag_691\n        /* \"#utility.yul\":32722:32723   */\n      dup4\n        /* \"#utility.yul\":32704:32724   */\n      tag_305\n      jump\t// in\n    tag_691:\n        /* \"#utility.yul\":32699:32724   */\n      swap3\n      pop\n        /* \"#utility.yul\":32747:32748   */\n      dup3\n        /* \"#utility.yul\":32744:32745   */\n      dup3\n        /* \"#utility.yul\":32740:32749   */\n      add\n        /* \"#utility.yul\":32733:32749   */\n      swap1\n      pop\n        /* \"#utility.yul\":32768:32771   */\n      dup1\n        /* \"#utility.yul\":32765:32766   */\n      dup3\n        /* \"#utility.yul\":32762:32772   */\n      gt\n        /* \"#utility.yul\":32759:32795   */\n      iszero\n      tag_692\n      jumpi\n        /* \"#utility.yul\":32775:32793   */\n      tag_693\n      tag_347\n      jump\t// in\n    tag_693:\n        /* \"#utility.yul\":32759:32795   */\n    tag_692:\n        /* \"#utility.yul\":32611:32802   */\n      swap3\n      swap2\n      pop\n      pop\n      jump\t// out\n\n    auxdata: 0xa2646970667358221220a56f4d34de148fd5c56b8a5f4b517969d51a3105cfb90539ee9fa0f22b4a295664736f6c63430008120033\n}\n",
				"bytecode": {
					"linkReferences": {},
					"object": "608060405234801561001057600080fd5b50612875806100206000396000f3fe608060405234801561001057600080fd5b506004361061010b5760003560e01c80637def7fe1116100a2578063b7adcf1d11610071578063b7adcf1d146102cb578063bad04632146102fb578063d55d73c514610317578063df6501ed14610347578063ee08ece5146103775761010b565b80637def7fe11461021e578063aadc3b721461024e578063ae64399b1461027e578063b66409cf146102af5761010b565b806349cbceb3116100de57806349cbceb314610196578063544541b3146101b25780635c06b06e146101e257806361e37417146102005761010b565b8063309fc1d41461011057806335c3c876146101405780633ffbd47f1461015c5780634717f97c14610178575b600080fd5b61012a600480360381019061012591906119a7565b6103a7565b6040516101379190611a1c565b60405180910390f35b61015a60048036038101906101559190611aec565b61044c565b005b61017660048036038101906101719190611b93565b610559565b005b6101806105df565b60405161018d9190611daa565b60405180910390f35b6101b060048036038101906101ab9190611df8565b61069b565b005b6101cc60048036038101906101c79190611b93565b6106fc565b6040516101d99190611e82565b60405180910390f35b6101ea610925565b6040516101f79190611a1c565b60405180910390f35b610208610965565b6040516102159190611eb6565b60405180910390f35b61023860048036038101906102339190611ed1565b61096b565b6040516102459190611f29565b60405180910390f35b61026860048036038101906102639190611f70565b610cb6565b6040516102759190611e82565b60405180910390f35b61029860048036038101906102939190611fb0565b610d21565b6040516102a692919061209b565b60405180910390f35b6102c960048036038101906102c491906120d2565b6110df565b005b6102e560048036038101906102e09190612125565b61127b565b6040516102f291906121b0565b60405180910390f35b61031560048036038101906103109190611f70565b61148a565b005b610331600480360381019061032c91906121d2565b611505565b60405161033e9190611f29565b60405180910390f35b610361600480360381019061035c9190611fb0565b611544565b60405161036e91906122bd565b60405180910390f35b610391600480360381019061038c91906121d2565b6115e8565b60405161039e9190611f29565b60405180910390f35b600080600090505b8351811015610421578273ffffffffffffffffffffffffffffffffffffffff168482815181106103e2576103e16122df565b5b602002602001015173ffffffffffffffffffffffffffffffffffffffff160361040e5780915050610446565b80806104199061233d565b9150506103af565b507fffffffffffffffffffffffffffffffffffffffffffffffffffffffffffffffff90505b92915050565b6000339050604051806060016040528085815260200184815260200183815250600160003373ffffffffffffffffffffffffffffffffffffffff1673ffffffffffffffffffffffffffffffffffffffff16815260200190815260200160002060008201518160000190816104c09190612591565b5060208201518160010190816104d69190612591565b5060408201518160020190816104ec9190612591565b509050506003819080600181540180825580915050600190039060005260206000200160009091909190916101000a81548173ffffffffffffffffffffffffffffffffffffffff021916908373ffffffffffffffffffffffffffffffffffffffff16021790555050505050565b6040518060400160405280838152602001828152506000803373ffffffffffffffffffffffffffffffffffffffff1673ffffffffffffffffffffffffffffffffffffffff16815260200190815260200160002060008201518160000190816105c19190612591565b5060208201518160010190816105d79190612591565b509050505050565b606060006105eb610925565b905060008167ffffffffffffffff81111561060957610608611806565b5b60405190808252806020026020018201604052801561064257816020015b61062f611714565b8152602001906001900390816106275790505b50905060005b828110156106925761066161065c826115e8565b61127b565b828281518110610674576106736122df565b5b6020026020010181905250808061068a9061233d565b915050610648565b50809250505090565b600060045490506106ad600454611630565b6004819055506000600260008381526020019081526020016000209050848160000181905550838160010181905550828160020190805190602001906106f4929190611735565b505050505050565b6000806000803373ffffffffffffffffffffffffffffffffffffffff1673ffffffffffffffffffffffffffffffffffffffff168152602001908152602001600020604051806040016040529081600082018054610758906123b4565b80601f0160208091040260200160405190810160405280929190818152602001828054610784906123b4565b80156107d15780601f106107a6576101008083540402835291602001916107d1565b820191906000526020600020905b8154815290600101906020018083116107b457829003601f168201915b505050505081526020016001820180546107ea906123b4565b80601f0160208091040260200160405190810160405280929190818152602001828054610816906123b4565b80156108635780601f1061083857610100808354040283529160200191610863565b820191906000526020600020905b81548152906001019060200180831161084657829003601f168201915b50505050508152505090508060000151604051602001610883919061269f565b60405160208183030381529060405280519060200120846040516020016108aa919061269f565b6040516020818303038152906040528051906020012014801561091c575080602001516040516020016108dd919061269f565b6040516020818303038152906040528051906020012083604051602001610904919061269f565b60405160208183030381529060405280519060200120145b91505092915050565b6000806000905060005b60038054905081101561095d5781806109479061233d565b92505080806109559061233d565b91505061092f565b508091505090565b60045481565b600080600090505b600380549050811015610c75576000600160006003848154811061099a576109996122df565b5b9060005260206000200160009054906101000a900473ffffffffffffffffffffffffffffffffffffffff1673ffffffffffffffffffffffffffffffffffffffff1673ffffffffffffffffffffffffffffffffffffffff168152602001908152602001600020604051806060016040529081600082018054610a1a906123b4565b80601f0160208091040260200160405190810160405280929190818152602001828054610a46906123b4565b8015610a935780601f10610a6857610100808354040283529160200191610a93565b820191906000526020600020905b815481529060010190602001808311610a7657829003601f168201915b50505050508152602001600182018054610aac906123b4565b80601f0160208091040260200160405190810160405280929190818152602001828054610ad8906123b4565b8015610b255780601f10610afa57610100808354040283529160200191610b25565b820191906000526020600020905b815481529060010190602001808311610b0857829003601f168201915b50505050508152602001600282018054610b3e906123b4565b80601f0160208091040260200160405190810160405280929190818152602001828054610b6a906123b4565b8015610bb75780601f10610b8c57610100808354040283529160200191610bb7565b820191906000526020600020905b815481529060010190602001808311610b9a57829003601f168201915b505050505081525050905083604051602001610bd3919061269f565b604051602081830303815290604052805190602001208160000151604051602001610bfe919061269f565b6040516020818303038152906040528051906020012003610c615760038281548110610c2d57610c2c6122df565b5b9060005260206000200160009054906101000a900473ffffffffffffffffffffffffffffffffffffffff1692505050610cb1565b508080610c6d9061233d565b915050610973565b506040517f08c379a0000000000000000000000000000000000000000000000000000000008152600401610ca890612713565b60405180910390fd5b919050565b60006002600084815260200190815260200160002060050160008373ffffffffffffffffffffffffffffffffffffffff1673ffffffffffffffffffffffffffffffffffffffff16815260200190815260200160002060009054906101000a900460ff16905092915050565b606080600060026000858152602001908152602001600020905060008160020180549050905060008167ffffffffffffffff811115610d6357610d62611806565b5b604051908082528060200260200182016040528015610d9c57816020015b610d89611714565b815260200190600190039081610d815790505b50905060008267ffffffffffffffff811115610dbb57610dba611806565b5b604051908082528060200260200182016040528015610de95781602001602082028036833780820191505090505b50905060005b838110156110cf576000856002018281548110610e0f57610e0e6122df565b5b9060005260206000200160009054906101000a900473ffffffffffffffffffffffffffffffffffffffff169050600160008273ffffffffffffffffffffffffffffffffffffffff1673ffffffffffffffffffffffffffffffffffffffff168152602001908152602001600020604051806060016040529081600082018054610e96906123b4565b80601f0160208091040260200160405190810160405280929190818152602001828054610ec2906123b4565b8015610f0f5780601f10610ee457610100808354040283529160200191610f0f565b820191906000526020600020905b815481529060010190602001808311610ef257829003601f168201915b50505050508152602001600182018054610f28906123b4565b80601f0160208091040260200160405190810160405280929190818152602001828054610f54906123b4565b8015610fa15780601f10610f7657610100808354040283529160200191610fa1565b820191906000526020600020905b815481529060010190602001808311610f8457829003601f168201915b50505050508152602001600282018054610fba906123b4565b80601f0160208091040260200160405190810160405280929190818152602001828054610fe6906123b4565b80156110335780601f1061100857610100808354040283529160200191611033565b820191906000526020600020905b81548152906001019060200180831161101657829003601f168201915b50505050508152505084838151811061104f5761104e6122df565b5b60200260200101819052508560040160008273ffffffffffffffffffffffffffffffffffffffff1673ffffffffffffffffffffffffffffffffffffffff168152602001908152602001600020548383815181106110af576110ae6122df565b5b6020026020010181815250505080806110c79061233d565b915050610def565b5081819550955050505050915091565b6110e9838261164c565b611123577fcc8610635659273962514cbb1e149386cc83625cb5595394a01869a0c3fbf7cb60405161111a9061277f565b60405180910390a15b60006002600085815260200190815260200160002090508060050160008473ffffffffffffffffffffffffffffffffffffffff1673ffffffffffffffffffffffffffffffffffffffff16815260200190815260200160002060009054906101000a900460ff16156111c4577fcc8610635659273962514cbb1e149386cc83625cb5595394a01869a0c3fbf7cb6040516111bb906127eb565b60405180910390a15b60018160050160008573ffffffffffffffffffffffffffffffffffffffff1673ffffffffffffffffffffffffffffffffffffffff16815260200190815260200160002060006101000a81548160ff0219169083151502179055508060040160008373ffffffffffffffffffffffffffffffffffffffff1673ffffffffffffffffffffffffffffffffffffffff16815260200190815260200160002060008154809291906112709061233d565b919050555050505050565b611283611714565b600160008373ffffffffffffffffffffffffffffffffffffffff1673ffffffffffffffffffffffffffffffffffffffff1681526020019081526020016000206040518060600160405290816000820180546112dd906123b4565b80601f0160208091040260200160405190810160405280929190818152602001828054611309906123b4565b80156113565780601f1061132b57610100808354040283529160200191611356565b820191906000526020600020905b81548152906001019060200180831161133957829003601f168201915b5050505050815260200160018201805461136f906123b4565b80601f016020809104026020016040519081016040528092919081815260200182805461139b906123b4565b80156113e85780601f106113bd576101008083540402835291602001916113e8565b820191906000526020600020905b8154815290600101906020018083116113cb57829003601f168201915b50505050508152602001600282018054611401906123b4565b80601f016020809104026020016040519081016040528092919081815260200182805461142d906123b4565b801561147a5780601f1061144f5761010080835404028352916020019161147a565b820191906000526020600020905b81548152906001019060200180831161145d57829003601f168201915b5050505050815250509050919050565b60026000838152602001908152602001600020600201819080600181540180825580915050600190039060005260206000200160009091909190916101000a81548173ffffffffffffffffffffffffffffffffffffffff021916908373ffffffffffffffffffffffffffffffffffffffff1602179055505050565b6003818154811061151557600080fd5b906000526020600020016000915054906101000a900473ffffffffffffffffffffffffffffffffffffffff1681565b6060600260008381526020019081526020016000206002018054806020026020016040519081016040528092919081815260200182805480156115dc57602002820191906000526020600020905b8160009054906101000a900473ffffffffffffffffffffffffffffffffffffffff1673ffffffffffffffffffffffffffffffffffffffff1681526020019060010190808311611592575b50505050509050919050565b6000600382815481106115fe576115fd6122df565b5b9060005260206000200160009054906101000a900473ffffffffffffffffffffffffffffffffffffffff169050919050565b600060018260001c611642919061280b565b60001b9050919050565b60008060026000858152602001908152602001600020905060005b8160020180549050811015611707578373ffffffffffffffffffffffffffffffffffffffff168260020182815481106116a3576116a26122df565b5b9060005260206000200160009054906101000a900473ffffffffffffffffffffffffffffffffffffffff1673ffffffffffffffffffffffffffffffffffffffff16036116f45760019250505061170e565b80806116ff9061233d565b915050611667565b5060009150505b92915050565b60405180606001604052806060815260200160608152602001606081525090565b8280548282559060005260206000209081019282156117ae579160200282015b828111156117ad5782518260006101000a81548173ffffffffffffffffffffffffffffffffffffffff021916908373ffffffffffffffffffffffffffffffffffffffff16021790555091602001919060010190611755565b5b5090506117bb91906117bf565b5090565b5b808211156117d85760008160009055506001016117c0565b5090565b6000604051905090565b600080fd5b600080fd5b600080fd5b6000601f19601f8301169050919050565b7f4e487b7100000000000000000000000000000000000000000000000000000000600052604160045260246000fd5b61183e826117f5565b810181811067ffffffffffffffff8211171561185d5761185c611806565b5b80604052505050565b60006118706117dc565b905061187c8282611835565b919050565b600067ffffffffffffffff82111561189c5761189b611806565b5b602082029050602081019050919050565b600080fd5b600073ffffffffffffffffffffffffffffffffffffffff82169050919050565b60006118dd826118b2565b9050919050565b6118ed816118d2565b81146118f857600080fd5b50565b60008135905061190a816118e4565b92915050565b600061192361191e84611881565b611866565b90508083825260208201905060208402830185811115611946576119456118ad565b5b835b8181101561196f578061195b88826118fb565b845260208401935050602081019050611948565b5050509392505050565b600082601f83011261198e5761198d6117f0565b5b813561199e848260208601611910565b91505092915050565b600080604083850312156119be576119bd6117e6565b5b600083013567ffffffffffffffff8111156119dc576119db6117eb565b5b6119e885828601611979565b92505060206119f9858286016118fb565b9150509250929050565b6000819050919050565b611a1681611a03565b82525050565b6000602082019050611a316000830184611a0d565b92915050565b600080fd5b600067ffffffffffffffff821115611a5757611a56611806565b5b611a60826117f5565b9050602081019050919050565b82818337600083830152505050565b6000611a8f611a8a84611a3c565b611866565b905082815260208101848484011115611aab57611aaa611a37565b5b611ab6848285611a6d565b509392505050565b600082601f830112611ad357611ad26117f0565b5b8135611ae3848260208601611a7c565b91505092915050565b600080600060608486031215611b0557611b046117e6565b5b600084013567ffffffffffffffff811115611b2357611b226117eb565b5b611b2f86828701611abe565b935050602084013567ffffffffffffffff811115611b5057611b4f6117eb565b5b611b5c86828701611abe565b925050604084013567ffffffffffffffff811115611b7d57611b7c6117eb565b5b611b8986828701611abe565b9150509250925092565b60008060408385031215611baa57611ba96117e6565b5b600083013567ffffffffffffffff811115611bc857611bc76117eb565b5b611bd485828601611abe565b925050602083013567ffffffffffffffff811115611bf557611bf46117eb565b5b611c0185828601611abe565b9150509250929050565b600081519050919050565b600082825260208201905092915050565b6000819050602082019050919050565b600081519050919050565b600082825260208201905092915050565b60005b83811015611c71578082015181840152602081019050611c56565b60008484015250505050565b6000611c8882611c37565b611c928185611c42565b9350611ca2818560208601611c53565b611cab816117f5565b840191505092915050565b60006060830160008301518482036000860152611cd38282611c7d565b91505060208301518482036020860152611ced8282611c7d565b91505060408301518482036040860152611d078282611c7d565b9150508091505092915050565b6000611d208383611cb6565b905092915050565b6000602082019050919050565b6000611d4082611c0b565b611d4a8185611c16565b935083602082028501611d5c85611c27565b8060005b85811015611d985784840389528151611d798582611d14565b9450611d8483611d28565b925060208a01995050600181019050611d60565b50829750879550505050505092915050565b60006020820190508181036000830152611dc48184611d35565b905092915050565b611dd581611a03565b8114611de057600080fd5b50565b600081359050611df281611dcc565b92915050565b600080600060608486031215611e1157611e106117e6565b5b6000611e1f86828701611de3565b9350506020611e3086828701611de3565b925050604084013567ffffffffffffffff811115611e5157611e506117eb565b5b611e5d86828701611979565b9150509250925092565b60008115159050919050565b611e7c81611e67565b82525050565b6000602082019050611e976000830184611e73565b92915050565b6000819050919050565b611eb081611e9d565b82525050565b6000602082019050611ecb6000830184611ea7565b92915050565b600060208284031215611ee757611ee66117e6565b5b600082013567ffffffffffffffff811115611f0557611f046117eb565b5b611f1184828501611abe565b91505092915050565b611f23816118d2565b82525050565b6000602082019050611f3e6000830184611f1a565b92915050565b611f4d81611e9d565b8114611f5857600080fd5b50565b600081359050611f6a81611f44565b92915050565b60008060408385031215611f8757611f866117e6565b5b6000611f9585828601611f5b565b9250506020611fa6858286016118fb565b9150509250929050565b600060208284031215611fc657611fc56117e6565b5b6000611fd484828501611f5b565b91505092915050565b600081519050919050565b600082825260208201905092915050565b6000819050602082019050919050565b61201281611a03565b82525050565b60006120248383612009565b60208301905092915050565b6000602082019050919050565b600061204882611fdd565b6120528185611fe8565b935061205d83611ff9565b8060005b8381101561208e5781516120758882612018565b975061208083612030565b925050600181019050612061565b5085935050505092915050565b600060408201905081810360008301526120b58185611d35565b905081810360208301526120c9818461203d565b90509392505050565b6000806000606084860312156120eb576120ea6117e6565b5b60006120f986828701611f5b565b935050602061210a868287016118fb565b925050604061211b868287016118fb565b9150509250925092565b60006020828403121561213b5761213a6117e6565b5b6000612149848285016118fb565b91505092915050565b6000606083016000830151848203600086015261216f8282611c7d565b915050602083015184820360208601526121898282611c7d565b915050604083015184820360408601526121a38282611c7d565b9150508091505092915050565b600060208201905081810360008301526121ca8184612152565b905092915050565b6000602082840312156121e8576121e76117e6565b5b60006121f684828501611de3565b91505092915050565b600081519050919050565b600082825260208201905092915050565b6000819050602082019050919050565b612234816118d2565b82525050565b6000612246838361222b565b60208301905092915050565b6000602082019050919050565b600061226a826121ff565b612274818561220a565b935061227f8361221b565b8060005b838110156122b0578151612297888261223a565b97506122a283612252565b925050600181019050612283565b5085935050505092915050565b600060208201905081810360008301526122d7818461225f565b905092915050565b7f4e487b7100000000000000000000000000000000000000000000000000000000600052603260045260246000fd5b7f4e487b7100000000000000000000000000000000000000000000000000000000600052601160045260246000fd5b600061234882611a03565b91507fffffffffffffffffffffffffffffffffffffffffffffffffffffffffffffffff820361237a5761237961230e565b5b600182019050919050565b7f4e487b7100000000000000000000000000000000000000000000000000000000600052602260045260246000fd5b600060028204905060018216806123cc57607f821691505b6020821081036123df576123de612385565b5b50919050565b60008190508160005260206000209050919050565b60006020601f8301049050919050565b600082821b905092915050565b6000600883026124477fffffffffffffffffffffffffffffffffffffffffffffffffffffffffffffffff8261240a565b612451868361240a565b95508019841693508086168417925050509392505050565b6000819050919050565b600061248e61248961248484611a03565b612469565b611a03565b9050919050565b6000819050919050565b6124a883612473565b6124bc6124b482612495565b848454612417565b825550505050565b600090565b6124d16124c4565b6124dc81848461249f565b505050565b5b81811015612500576124f56000826124c9565b6001810190506124e2565b5050565b601f82111561254557612516816123e5565b61251f846123fa565b8101602085101561252e578190505b61254261253a856123fa565b8301826124e1565b50505b505050565b600082821c905092915050565b60006125686000198460080261254a565b1980831691505092915050565b60006125818383612557565b9150826002028217905092915050565b61259a82611c37565b67ffffffffffffffff8111156125b3576125b2611806565b5b6125bd82546123b4565b6125c8828285612504565b600060209050601f8311600181146125fb57600084156125e9578287015190505b6125f38582612575565b86555061265b565b601f198416612609866123e5565b60005b828110156126315784890151825560018201915060208501945060208101905061260c565b8683101561264e578489015161264a601f891682612557565b8355505b6001600288020188555050505b505050505050565b600081905092915050565b600061267982611c37565b6126838185612663565b9350612693818560208601611c53565b80840191505092915050565b60006126ab828461266e565b915081905092915050565b600082825260208201905092915050565b7f43616e646964617465206e6f7420666f756e6400000000000000000000000000600082015250565b60006126fd6013836126b6565b9150612708826126c7565b602082019050919050565b6000602082019050818103600083015261272c816126f0565b9050919050565b7f496e76616c69642063616e646964617465000000000000000000000000000000600082015250565b60006127696011836126b6565b915061277482612733565b602082019050919050565b600060208201905081810360008301526127988161275c565b9050919050565b7f5573657220566f74656400000000000000000000000000000000000000000000600082015250565b60006127d5600a836126b6565b91506127e08261279f565b602082019050919050565b60006020820190508181036000830152612804816127c8565b9050919050565b600061281682611a03565b915061282183611a03565b92508282019050808211156128395761283861230e565b5b9291505056fea2646970667358221220a56f4d34de148fd5c56b8a5f4b517969d51a3105cfb90539ee9fa0f22b4a295664736f6c63430008120033",
					"opcodes": "PUSH1 0x80 PUSH1 0x40 MSTORE CALLVALUE DUP1 ISZERO PUSH2 0x10 JUMPI PUSH1 0x0 DUP1 REVERT JUMPDEST POP PUSH2 0x2875 DUP1 PUSH2 0x20 PUSH1 0x0 CODECOPY PUSH1 0x0 RETURN INVALID PUSH1 0x80 PUSH1 0x40 MSTORE CALLVALUE DUP1 ISZERO PUSH2 0x10 JUMPI PUSH1 0x0 DUP1 REVERT JUMPDEST POP PUSH1 0x4 CALLDATASIZE LT PUSH2 0x10B JUMPI PUSH1 0x0 CALLDATALOAD PUSH1 0xE0 SHR DUP1 PUSH4 0x7DEF7FE1 GT PUSH2 0xA2 JUMPI DUP1 PUSH4 0xB7ADCF1D GT PUSH2 0x71 JUMPI DUP1 PUSH4 0xB7ADCF1D EQ PUSH2 0x2CB JUMPI DUP1 PUSH4 0xBAD04632 EQ PUSH2 0x2FB JUMPI DUP1 PUSH4 0xD55D73C5 EQ PUSH2 0x317 JUMPI DUP1 PUSH4 0xDF6501ED EQ PUSH2 0x347 JUMPI DUP1 PUSH4 0xEE08ECE5 EQ PUSH2 0x377 JUMPI PUSH2 0x10B JUMP JUMPDEST DUP1 PUSH4 0x7DEF7FE1 EQ PUSH2 0x21E JUMPI DUP1 PUSH4 0xAADC3B72 EQ PUSH2 0x24E JUMPI DUP1 PUSH4 0xAE64399B EQ PUSH2 0x27E JUMPI DUP1 PUSH4 0xB66409CF EQ PUSH2 0x2AF JUMPI PUSH2 0x10B JUMP JUMPDEST DUP1 PUSH4 0x49CBCEB3 GT PUSH2 0xDE JUMPI DUP1 PUSH4 0x49CBCEB3 EQ PUSH2 0x196 JUMPI DUP1 PUSH4 0x544541B3 EQ PUSH2 0x1B2 JUMPI DUP1 PUSH4 0x5C06B06E EQ PUSH2 0x1E2 JUMPI DUP1 PUSH4 0x61E37417 EQ PUSH2 0x200 JUMPI PUSH2 0x10B JUMP JUMPDEST DUP1 PUSH4 0x309FC1D4 EQ PUSH2 0x110 JUMPI DUP1 PUSH4 0x35C3C876 EQ PUSH2 0x140 JUMPI DUP1 PUSH4 0x3FFBD47F EQ PUSH2 0x15C JUMPI DUP1 PUSH4 0x4717F97C EQ PUSH2 0x178 JUMPI JUMPDEST PUSH1 0x0 DUP1 REVERT JUMPDEST PUSH2 0x12A PUSH1 0x4 DUP1 CALLDATASIZE SUB DUP2 ADD SWAP1 PUSH2 0x125 SWAP2 SWAP1 PUSH2 0x19A7 JUMP JUMPDEST PUSH2 0x3A7 JUMP JUMPDEST PUSH1 0x40 MLOAD PUSH2 0x137 SWAP2 SWAP1 PUSH2 0x1A1C JUMP JUMPDEST PUSH1 0x40 MLOAD DUP1 SWAP2 SUB SWAP1 RETURN JUMPDEST PUSH2 0x15A PUSH1 0x4 DUP1 CALLDATASIZE SUB DUP2 ADD SWAP1 PUSH2 0x155 SWAP2 SWAP1 PUSH2 0x1AEC JUMP JUMPDEST PUSH2 0x44C JUMP JUMPDEST STOP JUMPDEST PUSH2 0x176 PUSH1 0x4 DUP1 CALLDATASIZE SUB DUP2 ADD SWAP1 PUSH2 0x171 SWAP2 SWAP1 PUSH2 0x1B93 JUMP JUMPDEST PUSH2 0x559 JUMP JUMPDEST STOP JUMPDEST PUSH2 0x180 PUSH2 0x5DF JUMP JUMPDEST PUSH1 0x40 MLOAD PUSH2 0x18D SWAP2 SWAP1 PUSH2 0x1DAA JUMP JUMPDEST PUSH1 0x40 MLOAD DUP1 SWAP2 SUB SWAP1 RETURN JUMPDEST PUSH2 0x1B0 PUSH1 0x4 DUP1 CALLDATASIZE SUB DUP2 ADD SWAP1 PUSH2 0x1AB SWAP2 SWAP1 PUSH2 0x1DF8 JUMP JUMPDEST PUSH2 0x69B JUMP JUMPDEST STOP JUMPDEST PUSH2 0x1CC PUSH1 0x4 DUP1 CALLDATASIZE SUB DUP2 ADD SWAP1 PUSH2 0x1C7 SWAP2 SWAP1 PUSH2 0x1B93 JUMP JUMPDEST PUSH2 0x6FC JUMP JUMPDEST PUSH1 0x40 MLOAD PUSH2 0x1D9 SWAP2 SWAP1 PUSH2 0x1E82 JUMP JUMPDEST PUSH1 0x40 MLOAD DUP1 SWAP2 SUB SWAP1 RETURN JUMPDEST PUSH2 0x1EA PUSH2 0x925 JUMP JUMPDEST PUSH1 0x40 MLOAD PUSH2 0x1F7 SWAP2 SWAP1 PUSH2 0x1A1C JUMP JUMPDEST PUSH1 0x40 MLOAD DUP1 SWAP2 SUB SWAP1 RETURN JUMPDEST PUSH2 0x208 PUSH2 0x965 JUMP JUMPDEST PUSH1 0x40 MLOAD PUSH2 0x215 SWAP2 SWAP1 PUSH2 0x1EB6 JUMP JUMPDEST PUSH1 0x40 MLOAD DUP1 SWAP2 SUB SWAP1 RETURN JUMPDEST PUSH2 0x238 PUSH1 0x4 DUP1 CALLDATASIZE SUB DUP2 ADD SWAP1 PUSH2 0x233 SWAP2 SWAP1 PUSH2 0x1ED1 JUMP JUMPDEST PUSH2 0x96B JUMP JUMPDEST PUSH1 0x40 MLOAD PUSH2 0x245 SWAP2 SWAP1 PUSH2 0x1F29 JUMP JUMPDEST PUSH1 0x40 MLOAD DUP1 SWAP2 SUB SWAP1 RETURN JUMPDEST PUSH2 0x268 PUSH1 0x4 DUP1 CALLDATASIZE SUB DUP2 ADD SWAP1 PUSH2 0x263 SWAP2 SWAP1 PUSH2 0x1F70 JUMP JUMPDEST PUSH2 0xCB6 JUMP JUMPDEST PUSH1 0x40 MLOAD PUSH2 0x275 SWAP2 SWAP1 PUSH2 0x1E82 JUMP JUMPDEST PUSH1 0x40 MLOAD DUP1 SWAP2 SUB SWAP1 RETURN JUMPDEST PUSH2 0x298 PUSH1 0x4 DUP1 CALLDATASIZE SUB DUP2 ADD SWAP1 PUSH2 0x293 SWAP2 SWAP1 PUSH2 0x1FB0 JUMP JUMPDEST PUSH2 0xD21 JUMP JUMPDEST PUSH1 0x40 MLOAD PUSH2 0x2A6 SWAP3 SWAP2 SWAP1 PUSH2 0x209B JUMP JUMPDEST PUSH1 0x40 MLOAD DUP1 SWAP2 SUB SWAP1 RETURN JUMPDEST PUSH2 0x2C9 PUSH1 0x4 DUP1 CALLDATASIZE SUB DUP2 ADD SWAP1 PUSH2 0x2C4 SWAP2 SWAP1 PUSH2 0x20D2 JUMP JUMPDEST PUSH2 0x10DF JUMP JUMPDEST STOP JUMPDEST PUSH2 0x2E5 PUSH1 0x4 DUP1 CALLDATASIZE SUB DUP2 ADD SWAP1 PUSH2 0x2E0 SWAP2 SWAP1 PUSH2 0x2125 JUMP JUMPDEST PUSH2 0x127B JUMP JUMPDEST PUSH1 0x40 MLOAD PUSH2 0x2F2 SWAP2 SWAP1 PUSH2 0x21B0 JUMP JUMPDEST PUSH1 0x40 MLOAD DUP1 SWAP2 SUB SWAP1 RETURN JUMPDEST PUSH2 0x315 PUSH1 0x4 DUP1 CALLDATASIZE SUB DUP2 ADD SWAP1 PUSH2 0x310 SWAP2 SWAP1 PUSH2 0x1F70 JUMP JUMPDEST PUSH2 0x148A JUMP JUMPDEST STOP JUMPDEST PUSH2 0x331 PUSH1 0x4 DUP1 CALLDATASIZE SUB DUP2 ADD SWAP1 PUSH2 0x32C SWAP2 SWAP1 PUSH2 0x21D2 JUMP JUMPDEST PUSH2 0x1505 JUMP JUMPDEST PUSH1 0x40 MLOAD PUSH2 0x33E SWAP2 SWAP1 PUSH2 0x1F29 JUMP JUMPDEST PUSH1 0x40 MLOAD DUP1 SWAP2 SUB SWAP1 RETURN JUMPDEST PUSH2 0x361 PUSH1 0x4 DUP1 CALLDATASIZE SUB DUP2 ADD SWAP1 PUSH2 0x35C SWAP2 SWAP1 PUSH2 0x1FB0 JUMP JUMPDEST PUSH2 0x1544 JUMP JUMPDEST PUSH1 0x40 MLOAD PUSH2 0x36E SWAP2 SWAP1 PUSH2 0x22BD JUMP JUMPDEST PUSH1 0x40 MLOAD DUP1 SWAP2 SUB SWAP1 RETURN JUMPDEST PUSH2 0x391 PUSH1 0x4 DUP1 CALLDATASIZE SUB DUP2 ADD SWAP1 PUSH2 0x38C SWAP2 SWAP1 PUSH2 0x21D2 JUMP JUMPDEST PUSH2 0x15E8 JUMP JUMPDEST PUSH1 0x40 MLOAD PUSH2 0x39E SWAP2 SWAP1 PUSH2 0x1F29 JUMP JUMPDEST PUSH1 0x40 MLOAD DUP1 SWAP2 SUB SWAP1 RETURN JUMPDEST PUSH1 0x0 DUP1 PUSH1 0x0 SWAP1 POP JUMPDEST DUP4 MLOAD DUP2 LT ISZERO PUSH2 0x421 JUMPI DUP3 PUSH20 0xFFFFFFFFFFFFFFFFFFFFFFFFFFFFFFFFFFFFFFFF AND DUP5 DUP3 DUP2 MLOAD DUP2 LT PUSH2 0x3E2 JUMPI PUSH2 0x3E1 PUSH2 0x22DF JUMP JUMPDEST JUMPDEST PUSH1 0x20 MUL PUSH1 0x20 ADD ADD MLOAD PUSH20 0xFFFFFFFFFFFFFFFFFFFFFFFFFFFFFFFFFFFFFFFF AND SUB PUSH2 0x40E JUMPI DUP1 SWAP2 POP POP PUSH2 0x446 JUMP JUMPDEST DUP1 DUP1 PUSH2 0x419 SWAP1 PUSH2 0x233D JUMP JUMPDEST SWAP2 POP POP PUSH2 0x3AF JUMP JUMPDEST POP PUSH32 0xFFFFFFFFFFFFFFFFFFFFFFFFFFFFFFFFFFFFFFFFFFFFFFFFFFFFFFFFFFFFFFFF SWAP1 POP JUMPDEST SWAP3 SWAP2 POP POP JUMP JUMPDEST PUSH1 0x0 CALLER SWAP1 POP PUSH1 0x40 MLOAD DUP1 PUSH1 0x60 ADD PUSH1 0x40 MSTORE DUP1 DUP6 DUP2 MSTORE PUSH1 0x20 ADD DUP5 DUP2 MSTORE PUSH1 0x20 ADD DUP4 DUP2 MSTORE POP PUSH1 0x1 PUSH1 0x0 CALLER PUSH20 0xFFFFFFFFFFFFFFFFFFFFFFFFFFFFFFFFFFFFFFFF AND PUSH20 0xFFFFFFFFFFFFFFFFFFFFFFFFFFFFFFFFFFFFFFFF AND DUP2 MSTORE PUSH1 0x20 ADD SWAP1 DUP2 MSTORE PUSH1 0x20 ADD PUSH1 0x0 KECCAK256 PUSH1 0x0 DUP3 ADD MLOAD DUP2 PUSH1 0x0 ADD SWAP1 DUP2 PUSH2 0x4C0 SWAP2 SWAP1 PUSH2 0x2591 JUMP JUMPDEST POP PUSH1 0x20 DUP3 ADD MLOAD DUP2 PUSH1 0x1 ADD SWAP1 DUP2 PUSH2 0x4D6 SWAP2 SWAP1 PUSH2 0x2591 JUMP JUMPDEST POP PUSH1 0x40 DUP3 ADD MLOAD DUP2 PUSH1 0x2 ADD SWAP1 DUP2 PUSH2 0x4EC SWAP2 SWAP1 PUSH2 0x2591 JUMP JUMPDEST POP SWAP1 POP POP PUSH1 0x3 DUP2 SWAP1 DUP1 PUSH1 0x1 DUP2 SLOAD ADD DUP1 DUP3 SSTORE DUP1 SWAP2 POP POP PUSH1 0x1 SWAP1 SUB SWAP1 PUSH1 0x0 MSTORE PUSH1 0x20 PUSH1 0x0 KECCAK256 ADD PUSH1 0x0 SWAP1 SWAP2 SWAP1 SWAP2 SWAP1 SWAP2 PUSH2 0x100 EXP DUP2 SLOAD DUP2 PUSH20 0xFFFFFFFFFFFFFFFFFFFFFFFFFFFFFFFFFFFFFFFF MUL NOT AND SWAP1 DUP4 PUSH20 0xFFFFFFFFFFFFFFFFFFFFFFFFFFFFFFFFFFFFFFFF AND MUL OR SWAP1 SSTORE POP POP POP POP POP JUMP JUMPDEST PUSH1 0x40 MLOAD DUP1 PUSH1 0x40 ADD PUSH1 0x40 MSTORE DUP1 DUP4 DUP2 MSTORE PUSH1 0x20 ADD DUP3 DUP2 MSTORE POP PUSH1 0x0 DUP1 CALLER PUSH20 0xFFFFFFFFFFFFFFFFFFFFFFFFFFFFFFFFFFFFFFFF AND PUSH20 0xFFFFFFFFFFFFFFFFFFFFFFFFFFFFFFFFFFFFFFFF AND DUP2 MSTORE PUSH1 0x20 ADD SWAP1 DUP2 MSTORE PUSH1 0x20 ADD PUSH1 0x0 KECCAK256 PUSH1 0x0 DUP3 ADD MLOAD DUP2 PUSH1 0x0 ADD SWAP1 DUP2 PUSH2 0x5C1 SWAP2 SWAP1 PUSH2 0x2591 JUMP JUMPDEST POP PUSH1 0x20 DUP3 ADD MLOAD DUP2 PUSH1 0x1 ADD SWAP1 DUP2 PUSH2 0x5D7 SWAP2 SWAP1 PUSH2 0x2591 JUMP JUMPDEST POP SWAP1 POP POP POP POP JUMP JUMPDEST PUSH1 0x60 PUSH1 0x0 PUSH2 0x5EB PUSH2 0x925 JUMP JUMPDEST SWAP1 POP PUSH1 0x0 DUP2 PUSH8 0xFFFFFFFFFFFFFFFF DUP2 GT ISZERO PUSH2 0x609 JUMPI PUSH2 0x608 PUSH2 0x1806 JUMP JUMPDEST JUMPDEST PUSH1 0x40 MLOAD SWAP1 DUP1 DUP3 MSTORE DUP1 PUSH1 0x20 MUL PUSH1 0x20 ADD DUP3 ADD PUSH1 0x40 MSTORE DUP1 ISZERO PUSH2 0x642 JUMPI DUP2 PUSH1 0x20 ADD JUMPDEST PUSH2 0x62F PUSH2 0x1714 JUMP JUMPDEST DUP2 MSTORE PUSH1 0x20 ADD SWAP1 PUSH1 0x1 SWAP1 SUB SWAP1 DUP2 PUSH2 0x627 JUMPI SWAP1 POP JUMPDEST POP SWAP1 POP PUSH1 0x0 JUMPDEST DUP3 DUP2 LT ISZERO PUSH2 0x692 JUMPI PUSH2 0x661 PUSH2 0x65C DUP3 PUSH2 0x15E8 JUMP JUMPDEST PUSH2 0x127B JUMP JUMPDEST DUP3 DUP3 DUP2 MLOAD DUP2 LT PUSH2 0x674 JUMPI PUSH2 0x673 PUSH2 0x22DF JUMP JUMPDEST JUMPDEST PUSH1 0x20 MUL PUSH1 0x20 ADD ADD DUP2 SWAP1 MSTORE POP DUP1 DUP1 PUSH2 0x68A SWAP1 PUSH2 0x233D JUMP JUMPDEST SWAP2 POP POP PUSH2 0x648 JUMP JUMPDEST POP DUP1 SWAP3 POP POP POP SWAP1 JUMP JUMPDEST PUSH1 0x0 PUSH1 0x4 SLOAD SWAP1 POP PUSH2 0x6AD PUSH1 0x4 SLOAD PUSH2 0x1630 JUMP JUMPDEST PUSH1 0x4 DUP2 SWAP1 SSTORE POP PUSH1 0x0 PUSH1 0x2 PUSH1 0x0 DUP4 DUP2 MSTORE PUSH1 0x20 ADD SWAP1 DUP2 MSTORE PUSH1 0x20 ADD PUSH1 0x0 KECCAK256 SWAP1 POP DUP5 DUP2 PUSH1 0x0 ADD DUP2 SWAP1 SSTORE POP DUP4 DUP2 PUSH1 0x1 ADD DUP2 SWAP1 SSTORE POP DUP3 DUP2 PUSH1 0x2 ADD SWAP1 DUP1 MLOAD SWAP1 PUSH1 0x20 ADD SWAP1 PUSH2 0x6F4 SWAP3 SWAP2 SWAP1 PUSH2 0x1735 JUMP JUMPDEST POP POP POP POP POP POP JUMP JUMPDEST PUSH1 0x0 DUP1 PUSH1 0x0 DUP1 CALLER PUSH20 0xFFFFFFFFFFFFFFFFFFFFFFFFFFFFFFFFFFFFFFFF AND PUSH20 0xFFFFFFFFFFFFFFFFFFFFFFFFFFFFFFFFFFFFFFFF AND DUP2 MSTORE PUSH1 0x20 ADD SWAP1 DUP2 MSTORE PUSH1 0x20 ADD PUSH1 0x0 KECCAK256 PUSH1 0x40 MLOAD DUP1 PUSH1 0x40 ADD PUSH1 0x40 MSTORE SWAP1 DUP2 PUSH1 0x0 DUP3 ADD DUP1 SLOAD PUSH2 0x758 SWAP1 PUSH2 0x23B4 JUMP JUMPDEST DUP1 PUSH1 0x1F ADD PUSH1 0x20 DUP1 SWAP2 DIV MUL PUSH1 0x20 ADD PUSH1 0x40 MLOAD SWAP1 DUP2 ADD PUSH1 0x40 MSTORE DUP1 SWAP3 SWAP2 SWAP1 DUP2 DUP2 MSTORE PUSH1 0x20 ADD DUP3 DUP1 SLOAD PUSH2 0x784 SWAP1 PUSH2 0x23B4 JUMP JUMPDEST DUP1 ISZERO PUSH2 0x7D1 JUMPI DUP1 PUSH1 0x1F LT PUSH2 0x7A6 JUMPI PUSH2 0x100 DUP1 DUP4 SLOAD DIV MUL DUP4 MSTORE SWAP2 PUSH1 0x20 ADD SWAP2 PUSH2 0x7D1 JUMP JUMPDEST DUP3 ADD SWAP2 SWAP1 PUSH1 0x0 MSTORE PUSH1 0x20 PUSH1 0x0 KECCAK256 SWAP1 JUMPDEST DUP2 SLOAD DUP2 MSTORE SWAP1 PUSH1 0x1 ADD SWAP1 PUSH1 0x20 ADD DUP1 DUP4 GT PUSH2 0x7B4 JUMPI DUP3 SWAP1 SUB PUSH1 0x1F AND DUP3 ADD SWAP2 JUMPDEST POP POP POP POP POP DUP2 MSTORE PUSH1 0x20 ADD PUSH1 0x1 DUP3 ADD DUP1 SLOAD PUSH2 0x7EA SWAP1 PUSH2 0x23B4 JUMP JUMPDEST DUP1 PUSH1 0x1F ADD PUSH1 0x20 DUP1 SWAP2 DIV MUL PUSH1 0x20 ADD PUSH1 0x40 MLOAD SWAP1 DUP2 ADD PUSH1 0x40 MSTORE DUP1 SWAP3 SWAP2 SWAP1 DUP2 DUP2 MSTORE PUSH1 0x20 ADD DUP3 DUP1 SLOAD PUSH2 0x816 SWAP1 PUSH2 0x23B4 JUMP JUMPDEST DUP1 ISZERO PUSH2 0x863 JUMPI DUP1 PUSH1 0x1F LT PUSH2 0x838 JUMPI PUSH2 0x100 DUP1 DUP4 SLOAD DIV MUL DUP4 MSTORE SWAP2 PUSH1 0x20 ADD SWAP2 PUSH2 0x863 JUMP JUMPDEST DUP3 ADD SWAP2 SWAP1 PUSH1 0x0 MSTORE PUSH1 0x20 PUSH1 0x0 KECCAK256 SWAP1 JUMPDEST DUP2 SLOAD DUP2 MSTORE SWAP1 PUSH1 0x1 ADD SWAP1 PUSH1 0x20 ADD DUP1 DUP4 GT PUSH2 0x846 JUMPI DUP3 SWAP1 SUB PUSH1 0x1F AND DUP3 ADD SWAP2 JUMPDEST POP POP POP POP POP DUP2 MSTORE POP POP SWAP1 POP DUP1 PUSH1 0x0 ADD MLOAD PUSH1 0x40 MLOAD PUSH1 0x20 ADD PUSH2 0x883 SWAP2 SWAP1 PUSH2 0x269F JUMP JUMPDEST PUSH1 0x40 MLOAD PUSH1 0x20 DUP2 DUP4 SUB SUB DUP2 MSTORE SWAP1 PUSH1 0x40 MSTORE DUP1 MLOAD SWAP1 PUSH1 0x20 ADD KECCAK256 DUP5 PUSH1 0x40 MLOAD PUSH1 0x20 ADD PUSH2 0x8AA SWAP2 SWAP1 PUSH2 0x269F JUMP JUMPDEST PUSH1 0x40 MLOAD PUSH1 0x20 DUP2 DUP4 SUB SUB DUP2 MSTORE SWAP1 PUSH1 0x40 MSTORE DUP1 MLOAD SWAP1 PUSH1 0x20 ADD KECCAK256 EQ DUP1 ISZERO PUSH2 0x91C JUMPI POP DUP1 PUSH1 0x20 ADD MLOAD PUSH1 0x40 MLOAD PUSH1 0x20 ADD PUSH2 0x8DD SWAP2 SWAP1 PUSH2 0x269F JUMP JUMPDEST PUSH1 0x40 MLOAD PUSH1 0x20 DUP2 DUP4 SUB SUB DUP2 MSTORE SWAP1 PUSH1 0x40 MSTORE DUP1 MLOAD SWAP1 PUSH1 0x20 ADD KECCAK256 DUP4 PUSH1 0x40 MLOAD PUSH1 0x20 ADD PUSH2 0x904 SWAP2 SWAP1 PUSH2 0x269F JUMP JUMPDEST PUSH1 0x40 MLOAD PUSH1 0x20 DUP2 DUP4 SUB SUB DUP2 MSTORE SWAP1 PUSH1 0x40 MSTORE DUP1 MLOAD SWAP1 PUSH1 0x20 ADD KECCAK256 EQ JUMPDEST SWAP2 POP POP SWAP3 SWAP2 POP POP JUMP JUMPDEST PUSH1 0x0 DUP1 PUSH1 0x0 SWAP1 POP PUSH1 0x0 JUMPDEST PUSH1 0x3 DUP1 SLOAD SWAP1 POP DUP2 LT ISZERO PUSH2 0x95D JUMPI DUP2 DUP1 PUSH2 0x947 SWAP1 PUSH2 0x233D JUMP JUMPDEST SWAP3 POP POP DUP1 DUP1 PUSH2 0x955 SWAP1 PUSH2 0x233D JUMP JUMPDEST SWAP2 POP POP PUSH2 0x92F JUMP JUMPDEST POP DUP1 SWAP2 POP POP SWAP1 JUMP JUMPDEST PUSH1 0x4 SLOAD DUP2 JUMP JUMPDEST PUSH1 0x0 DUP1 PUSH1 0x0 SWAP1 POP JUMPDEST PUSH1 0x3 DUP1 SLOAD SWAP1 POP DUP2 LT ISZERO PUSH2 0xC75 JUMPI PUSH1 0x0 PUSH1 0x1 PUSH1 0x0 PUSH1 0x3 DUP5 DUP2 SLOAD DUP2 LT PUSH2 0x99A JUMPI PUSH2 0x999 PUSH2 0x22DF JUMP JUMPDEST JUMPDEST SWAP1 PUSH1 0x0 MSTORE PUSH1 0x20 PUSH1 0x0 KECCAK256 ADD PUSH1 0x0 SWAP1 SLOAD SWAP1 PUSH2 0x100 EXP SWAP1 DIV PUSH20 0xFFFFFFFFFFFFFFFFFFFFFFFFFFFFFFFFFFFFFFFF AND PUSH20 0xFFFFFFFFFFFFFFFFFFFFFFFFFFFFFFFFFFFFFFFF AND PUSH20 0xFFFFFFFFFFFFFFFFFFFFFFFFFFFFFFFFFFFFFFFF AND DUP2 MSTORE PUSH1 0x20 ADD SWAP1 DUP2 MSTORE PUSH1 0x20 ADD PUSH1 0x0 KECCAK256 PUSH1 0x40 MLOAD DUP1 PUSH1 0x60 ADD PUSH1 0x40 MSTORE SWAP1 DUP2 PUSH1 0x0 DUP3 ADD DUP1 SLOAD PUSH2 0xA1A SWAP1 PUSH2 0x23B4 JUMP JUMPDEST DUP1 PUSH1 0x1F ADD PUSH1 0x20 DUP1 SWAP2 DIV MUL PUSH1 0x20 ADD PUSH1 0x40 MLOAD SWAP1 DUP2 ADD PUSH1 0x40 MSTORE DUP1 SWAP3 SWAP2 SWAP1 DUP2 DUP2 MSTORE PUSH1 0x20 ADD DUP3 DUP1 SLOAD PUSH2 0xA46 SWAP1 PUSH2 0x23B4 JUMP JUMPDEST DUP1 ISZERO PUSH2 0xA93 JUMPI DUP1 PUSH1 0x1F LT PUSH2 0xA68 JUMPI PUSH2 0x100 DUP1 DUP4 SLOAD DIV MUL DUP4 MSTORE SWAP2 PUSH1 0x20 ADD SWAP2 PUSH2 0xA93 JUMP JUMPDEST DUP3 ADD SWAP2 SWAP1 PUSH1 0x0 MSTORE PUSH1 0x20 PUSH1 0x0 KECCAK256 SWAP1 JUMPDEST DUP2 SLOAD DUP2 MSTORE SWAP1 PUSH1 0x1 ADD SWAP1 PUSH1 0x20 ADD DUP1 DUP4 GT PUSH2 0xA76 JUMPI DUP3 SWAP1 SUB PUSH1 0x1F AND DUP3 ADD SWAP2 JUMPDEST POP POP POP POP POP DUP2 MSTORE PUSH1 0x20 ADD PUSH1 0x1 DUP3 ADD DUP1 SLOAD PUSH2 0xAAC SWAP1 PUSH2 0x23B4 JUMP JUMPDEST DUP1 PUSH1 0x1F ADD PUSH1 0x20 DUP1 SWAP2 DIV MUL PUSH1 0x20 ADD PUSH1 0x40 MLOAD SWAP1 DUP2 ADD PUSH1 0x40 MSTORE DUP1 SWAP3 SWAP2 SWAP1 DUP2 DUP2 MSTORE PUSH1 0x20 ADD DUP3 DUP1 SLOAD PUSH2 0xAD8 SWAP1 PUSH2 0x23B4 JUMP JUMPDEST DUP1 ISZERO PUSH2 0xB25 JUMPI DUP1 PUSH1 0x1F LT PUSH2 0xAFA JUMPI PUSH2 0x100 DUP1 DUP4 SLOAD DIV MUL DUP4 MSTORE SWAP2 PUSH1 0x20 ADD SWAP2 PUSH2 0xB25 JUMP JUMPDEST DUP3 ADD SWAP2 SWAP1 PUSH1 0x0 MSTORE PUSH1 0x20 PUSH1 0x0 KECCAK256 SWAP1 JUMPDEST DUP2 SLOAD DUP2 MSTORE SWAP1 PUSH1 0x1 ADD SWAP1 PUSH1 0x20 ADD DUP1 DUP4 GT PUSH2 0xB08 JUMPI DUP3 SWAP1 SUB PUSH1 0x1F AND DUP3 ADD SWAP2 JUMPDEST POP POP POP POP POP DUP2 MSTORE PUSH1 0x20 ADD PUSH1 0x2 DUP3 ADD DUP1 SLOAD PUSH2 0xB3E SWAP1 PUSH2 0x23B4 JUMP JUMPDEST DUP1 PUSH1 0x1F ADD PUSH1 0x20 DUP1 SWAP2 DIV MUL PUSH1 0x20 ADD PUSH1 0x40 MLOAD SWAP1 DUP2 ADD PUSH1 0x40 MSTORE DUP1 SWAP3 SWAP2 SWAP1 DUP2 DUP2 MSTORE PUSH1 0x20 ADD DUP3 DUP1 SLOAD PUSH2 0xB6A SWAP1 PUSH2 0x23B4 JUMP JUMPDEST DUP1 ISZERO PUSH2 0xBB7 JUMPI DUP1 PUSH1 0x1F LT PUSH2 0xB8C JUMPI PUSH2 0x100 DUP1 DUP4 SLOAD DIV MUL DUP4 MSTORE SWAP2 PUSH1 0x20 ADD SWAP2 PUSH2 0xBB7 JUMP JUMPDEST DUP3 ADD SWAP2 SWAP1 PUSH1 0x0 MSTORE PUSH1 0x20 PUSH1 0x0 KECCAK256 SWAP1 JUMPDEST DUP2 SLOAD DUP2 MSTORE SWAP1 PUSH1 0x1 ADD SWAP1 PUSH1 0x20 ADD DUP1 DUP4 GT PUSH2 0xB9A JUMPI DUP3 SWAP1 SUB PUSH1 0x1F AND DUP3 ADD SWAP2 JUMPDEST POP POP POP POP POP DUP2 MSTORE POP POP SWAP1 POP DUP4 PUSH1 0x40 MLOAD PUSH1 0x20 ADD PUSH2 0xBD3 SWAP2 SWAP1 PUSH2 0x269F JUMP JUMPDEST PUSH1 0x40 MLOAD PUSH1 0x20 DUP2 DUP4 SUB SUB DUP2 MSTORE SWAP1 PUSH1 0x40 MSTORE DUP1 MLOAD SWAP1 PUSH1 0x20 ADD KECCAK256 DUP2 PUSH1 0x0 ADD MLOAD PUSH1 0x40 MLOAD PUSH1 0x20 ADD PUSH2 0xBFE SWAP2 SWAP1 PUSH2 0x269F JUMP JUMPDEST PUSH1 0x40 MLOAD PUSH1 0x20 DUP2 DUP4 SUB SUB DUP2 MSTORE SWAP1 PUSH1 0x40 MSTORE DUP1 MLOAD SWAP1 PUSH1 0x20 ADD KECCAK256 SUB PUSH2 0xC61 JUMPI PUSH1 0x3 DUP3 DUP2 SLOAD DUP2 LT PUSH2 0xC2D JUMPI PUSH2 0xC2C PUSH2 0x22DF JUMP JUMPDEST JUMPDEST SWAP1 PUSH1 0x0 MSTORE PUSH1 0x20 PUSH1 0x0 KECCAK256 ADD PUSH1 0x0 SWAP1 SLOAD SWAP1 PUSH2 0x100 EXP SWAP1 DIV PUSH20 0xFFFFFFFFFFFFFFFFFFFFFFFFFFFFFFFFFFFFFFFF AND SWAP3 POP POP POP PUSH2 0xCB1 JUMP JUMPDEST POP DUP1 DUP1 PUSH2 0xC6D SWAP1 PUSH2 0x233D JUMP JUMPDEST SWAP2 POP POP PUSH2 0x973 JUMP JUMPDEST POP PUSH1 0x40 MLOAD PUSH32 0x8C379A000000000000000000000000000000000000000000000000000000000 DUP2 MSTORE PUSH1 0x4 ADD PUSH2 0xCA8 SWAP1 PUSH2 0x2713 JUMP JUMPDEST PUSH1 0x40 MLOAD DUP1 SWAP2 SUB SWAP1 REVERT JUMPDEST SWAP2 SWAP1 POP JUMP JUMPDEST PUSH1 0x0 PUSH1 0x2 PUSH1 0x0 DUP5 DUP2 MSTORE PUSH1 0x20 ADD SWAP1 DUP2 MSTORE PUSH1 0x20 ADD PUSH1 0x0 KECCAK256 PUSH1 0x5 ADD PUSH1 0x0 DUP4 PUSH20 0xFFFFFFFFFFFFFFFFFFFFFFFFFFFFFFFFFFFFFFFF AND PUSH20 0xFFFFFFFFFFFFFFFFFFFFFFFFFFFFFFFFFFFFFFFF AND DUP2 MSTORE PUSH1 0x20 ADD SWAP1 DUP2 MSTORE PUSH1 0x20 ADD PUSH1 0x0 KECCAK256 PUSH1 0x0 SWAP1 SLOAD SWAP1 PUSH2 0x100 EXP SWAP1 DIV PUSH1 0xFF AND SWAP1 POP SWAP3 SWAP2 POP POP JUMP JUMPDEST PUSH1 0x60 DUP1 PUSH1 0x0 PUSH1 0x2 PUSH1 0x0 DUP6 DUP2 MSTORE PUSH1 0x20 ADD SWAP1 DUP2 MSTORE PUSH1 0x20 ADD PUSH1 0x0 KECCAK256 SWAP1 POP PUSH1 0x0 DUP2 PUSH1 0x2 ADD DUP1 SLOAD SWAP1 POP SWAP1 POP PUSH1 0x0 DUP2 PUSH8 0xFFFFFFFFFFFFFFFF DUP2 GT ISZERO PUSH2 0xD63 JUMPI PUSH2 0xD62 PUSH2 0x1806 JUMP JUMPDEST JUMPDEST PUSH1 0x40 MLOAD SWAP1 DUP1 DUP3 MSTORE DUP1 PUSH1 0x20 MUL PUSH1 0x20 ADD DUP3 ADD PUSH1 0x40 MSTORE DUP1 ISZERO PUSH2 0xD9C JUMPI DUP2 PUSH1 0x20 ADD JUMPDEST PUSH2 0xD89 PUSH2 0x1714 JUMP JUMPDEST DUP2 MSTORE PUSH1 0x20 ADD SWAP1 PUSH1 0x1 SWAP1 SUB SWAP1 DUP2 PUSH2 0xD81 JUMPI SWAP1 POP JUMPDEST POP SWAP1 POP PUSH1 0x0 DUP3 PUSH8 0xFFFFFFFFFFFFFFFF DUP2 GT ISZERO PUSH2 0xDBB JUMPI PUSH2 0xDBA PUSH2 0x1806 JUMP JUMPDEST JUMPDEST PUSH1 0x40 MLOAD SWAP1 DUP1 DUP3 MSTORE DUP1 PUSH1 0x20 MUL PUSH1 0x20 ADD DUP3 ADD PUSH1 0x40 MSTORE DUP1 ISZERO PUSH2 0xDE9 JUMPI DUP2 PUSH1 0x20 ADD PUSH1 0x20 DUP3 MUL DUP1 CALLDATASIZE DUP4 CALLDATACOPY DUP1 DUP3 ADD SWAP2 POP POP SWAP1 POP JUMPDEST POP SWAP1 POP PUSH1 0x0 JUMPDEST DUP4 DUP2 LT ISZERO PUSH2 0x10CF JUMPI PUSH1 0x0 DUP6 PUSH1 0x2 ADD DUP3 DUP2 SLOAD DUP2 LT PUSH2 0xE0F JUMPI PUSH2 0xE0E PUSH2 0x22DF JUMP JUMPDEST JUMPDEST SWAP1 PUSH1 0x0 MSTORE PUSH1 0x20 PUSH1 0x0 KECCAK256 ADD PUSH1 0x0 SWAP1 SLOAD SWAP1 PUSH2 0x100 EXP SWAP1 DIV PUSH20 0xFFFFFFFFFFFFFFFFFFFFFFFFFFFFFFFFFFFFFFFF AND SWAP1 POP PUSH1 0x1 PUSH1 0x0 DUP3 PUSH20 0xFFFFFFFFFFFFFFFFFFFFFFFFFFFFFFFFFFFFFFFF AND PUSH20 0xFFFFFFFFFFFFFFFFFFFFFFFFFFFFFFFFFFFFFFFF AND DUP2 MSTORE PUSH1 0x20 ADD SWAP1 DUP2 MSTORE PUSH1 0x20 ADD PUSH1 0x0 KECCAK256 PUSH1 0x40 MLOAD DUP1 PUSH1 0x60 ADD PUSH1 0x40 MSTORE SWAP1 DUP2 PUSH1 0x0 DUP3 ADD DUP1 SLOAD PUSH2 0xE96 SWAP1 PUSH2 0x23B4 JUMP JUMPDEST DUP1 PUSH1 0x1F ADD PUSH1 0x20 DUP1 SWAP2 DIV MUL PUSH1 0x20 ADD PUSH1 0x40 MLOAD SWAP1 DUP2 ADD PUSH1 0x40 MSTORE DUP1 SWAP3 SWAP2 SWAP1 DUP2 DUP2 MSTORE PUSH1 0x20 ADD DUP3 DUP1 SLOAD PUSH2 0xEC2 SWAP1 PUSH2 0x23B4 JUMP JUMPDEST DUP1 ISZERO PUSH2 0xF0F JUMPI DUP1 PUSH1 0x1F LT PUSH2 0xEE4 JUMPI PUSH2 0x100 DUP1 DUP4 SLOAD DIV MUL DUP4 MSTORE SWAP2 PUSH1 0x20 ADD SWAP2 PUSH2 0xF0F JUMP JUMPDEST DUP3 ADD SWAP2 SWAP1 PUSH1 0x0 MSTORE PUSH1 0x20 PUSH1 0x0 KECCAK256 SWAP1 JUMPDEST DUP2 SLOAD DUP2 MSTORE SWAP1 PUSH1 0x1 ADD SWAP1 PUSH1 0x20 ADD DUP1 DUP4 GT PUSH2 0xEF2 JUMPI DUP3 SWAP1 SUB PUSH1 0x1F AND DUP3 ADD SWAP2 JUMPDEST POP POP POP POP POP DUP2 MSTORE PUSH1 0x20 ADD PUSH1 0x1 DUP3 ADD DUP1 SLOAD PUSH2 0xF28 SWAP1 PUSH2 0x23B4 JUMP JUMPDEST DUP1 PUSH1 0x1F ADD PUSH1 0x20 DUP1 SWAP2 DIV MUL PUSH1 0x20 ADD PUSH1 0x40 MLOAD SWAP1 DUP2 ADD PUSH1 0x40 MSTORE DUP1 SWAP3 SWAP2 SWAP1 DUP2 DUP2 MSTORE PUSH1 0x20 ADD DUP3 DUP1 SLOAD PUSH2 0xF54 SWAP1 PUSH2 0x23B4 JUMP JUMPDEST DUP1 ISZERO PUSH2 0xFA1 JUMPI DUP1 PUSH1 0x1F LT PUSH2 0xF76 JUMPI PUSH2 0x100 DUP1 DUP4 SLOAD DIV MUL DUP4 MSTORE SWAP2 PUSH1 0x20 ADD SWAP2 PUSH2 0xFA1 JUMP JUMPDEST DUP3 ADD SWAP2 SWAP1 PUSH1 0x0 MSTORE PUSH1 0x20 PUSH1 0x0 KECCAK256 SWAP1 JUMPDEST DUP2 SLOAD DUP2 MSTORE SWAP1 PUSH1 0x1 ADD SWAP1 PUSH1 0x20 ADD DUP1 DUP4 GT PUSH2 0xF84 JUMPI DUP3 SWAP1 SUB PUSH1 0x1F AND DUP3 ADD SWAP2 JUMPDEST POP POP POP POP POP DUP2 MSTORE PUSH1 0x20 ADD PUSH1 0x2 DUP3 ADD DUP1 SLOAD PUSH2 0xFBA SWAP1 PUSH2 0x23B4 JUMP JUMPDEST DUP1 PUSH1 0x1F ADD PUSH1 0x20 DUP1 SWAP2 DIV MUL PUSH1 0x20 ADD PUSH1 0x40 MLOAD SWAP1 DUP2 ADD PUSH1 0x40 MSTORE DUP1 SWAP3 SWAP2 SWAP1 DUP2 DUP2 MSTORE PUSH1 0x20 ADD DUP3 DUP1 SLOAD PUSH2 0xFE6 SWAP1 PUSH2 0x23B4 JUMP JUMPDEST DUP1 ISZERO PUSH2 0x1033 JUMPI DUP1 PUSH1 0x1F LT PUSH2 0x1008 JUMPI PUSH2 0x100 DUP1 DUP4 SLOAD DIV MUL DUP4 MSTORE SWAP2 PUSH1 0x20 ADD SWAP2 PUSH2 0x1033 JUMP JUMPDEST DUP3 ADD SWAP2 SWAP1 PUSH1 0x0 MSTORE PUSH1 0x20 PUSH1 0x0 KECCAK256 SWAP1 JUMPDEST DUP2 SLOAD DUP2 MSTORE SWAP1 PUSH1 0x1 ADD SWAP1 PUSH1 0x20 ADD DUP1 DUP4 GT PUSH2 0x1016 JUMPI DUP3 SWAP1 SUB PUSH1 0x1F AND DUP3 ADD SWAP2 JUMPDEST POP POP POP POP POP DUP2 MSTORE POP POP DUP5 DUP4 DUP2 MLOAD DUP2 LT PUSH2 0x104F JUMPI PUSH2 0x104E PUSH2 0x22DF JUMP JUMPDEST JUMPDEST PUSH1 0x20 MUL PUSH1 0x20 ADD ADD DUP2 SWAP1 MSTORE POP DUP6 PUSH1 0x4 ADD PUSH1 0x0 DUP3 PUSH20 0xFFFFFFFFFFFFFFFFFFFFFFFFFFFFFFFFFFFFFFFF AND PUSH20 0xFFFFFFFFFFFFFFFFFFFFFFFFFFFFFFFFFFFFFFFF AND DUP2 MSTORE PUSH1 0x20 ADD SWAP1 DUP2 MSTORE PUSH1 0x20 ADD PUSH1 0x0 KECCAK256 SLOAD DUP4 DUP4 DUP2 MLOAD DUP2 LT PUSH2 0x10AF JUMPI PUSH2 0x10AE PUSH2 0x22DF JUMP JUMPDEST JUMPDEST PUSH1 0x20 MUL PUSH1 0x20 ADD ADD DUP2 DUP2 MSTORE POP POP POP DUP1 DUP1 PUSH2 0x10C7 SWAP1 PUSH2 0x233D JUMP JUMPDEST SWAP2 POP POP PUSH2 0xDEF JUMP JUMPDEST POP DUP2 DUP2 SWAP6 POP SWAP6 POP POP POP POP POP SWAP2 POP SWAP2 JUMP JUMPDEST PUSH2 0x10E9 DUP4 DUP3 PUSH2 0x164C JUMP JUMPDEST PUSH2 0x1123 JUMPI PUSH32 0xCC8610635659273962514CBB1E149386CC83625CB5595394A01869A0C3FBF7CB PUSH1 0x40 MLOAD PUSH2 0x111A SWAP1 PUSH2 0x277F JUMP JUMPDEST PUSH1 0x40 MLOAD DUP1 SWAP2 SUB SWAP1 LOG1 JUMPDEST PUSH1 0x0 PUSH1 0x2 PUSH1 0x0 DUP6 DUP2 MSTORE PUSH1 0x20 ADD SWAP1 DUP2 MSTORE PUSH1 0x20 ADD PUSH1 0x0 KECCAK256 SWAP1 POP DUP1 PUSH1 0x5 ADD PUSH1 0x0 DUP5 PUSH20 0xFFFFFFFFFFFFFFFFFFFFFFFFFFFFFFFFFFFFFFFF AND PUSH20 0xFFFFFFFFFFFFFFFFFFFFFFFFFFFFFFFFFFFFFFFF AND DUP2 MSTORE PUSH1 0x20 ADD SWAP1 DUP2 MSTORE PUSH1 0x20 ADD PUSH1 0x0 KECCAK256 PUSH1 0x0 SWAP1 SLOAD SWAP1 PUSH2 0x100 EXP SWAP1 DIV PUSH1 0xFF AND ISZERO PUSH2 0x11C4 JUMPI PUSH32 0xCC8610635659273962514CBB1E149386CC83625CB5595394A01869A0C3FBF7CB PUSH1 0x40 MLOAD PUSH2 0x11BB SWAP1 PUSH2 0x27EB JUMP JUMPDEST PUSH1 0x40 MLOAD DUP1 SWAP2 SUB SWAP1 LOG1 JUMPDEST PUSH1 0x1 DUP2 PUSH1 0x5 ADD PUSH1 0x0 DUP6 PUSH20 0xFFFFFFFFFFFFFFFFFFFFFFFFFFFFFFFFFFFFFFFF AND PUSH20 0xFFFFFFFFFFFFFFFFFFFFFFFFFFFFFFFFFFFFFFFF AND DUP2 MSTORE PUSH1 0x20 ADD SWAP1 DUP2 MSTORE PUSH1 0x20 ADD PUSH1 0x0 KECCAK256 PUSH1 0x0 PUSH2 0x100 EXP DUP2 SLOAD DUP2 PUSH1 0xFF MUL NOT AND SWAP1 DUP4 ISZERO ISZERO MUL OR SWAP1 SSTORE POP DUP1 PUSH1 0x4 ADD PUSH1 0x0 DUP4 PUSH20 0xFFFFFFFFFFFFFFFFFFFFFFFFFFFFFFFFFFFFFFFF AND PUSH20 0xFFFFFFFFFFFFFFFFFFFFFFFFFFFFFFFFFFFFFFFF AND DUP2 MSTORE PUSH1 0x20 ADD SWAP1 DUP2 MSTORE PUSH1 0x20 ADD PUSH1 0x0 KECCAK256 PUSH1 0x0 DUP2 SLOAD DUP1 SWAP3 SWAP2 SWAP1 PUSH2 0x1270 SWAP1 PUSH2 0x233D JUMP JUMPDEST SWAP2 SWAP1 POP SSTORE POP POP POP POP POP JUMP JUMPDEST PUSH2 0x1283 PUSH2 0x1714 JUMP JUMPDEST PUSH1 0x1 PUSH1 0x0 DUP4 PUSH20 0xFFFFFFFFFFFFFFFFFFFFFFFFFFFFFFFFFFFFFFFF AND PUSH20 0xFFFFFFFFFFFFFFFFFFFFFFFFFFFFFFFFFFFFFFFF AND DUP2 MSTORE PUSH1 0x20 ADD SWAP1 DUP2 MSTORE PUSH1 0x20 ADD PUSH1 0x0 KECCAK256 PUSH1 0x40 MLOAD DUP1 PUSH1 0x60 ADD PUSH1 0x40 MSTORE SWAP1 DUP2 PUSH1 0x0 DUP3 ADD DUP1 SLOAD PUSH2 0x12DD SWAP1 PUSH2 0x23B4 JUMP JUMPDEST DUP1 PUSH1 0x1F ADD PUSH1 0x20 DUP1 SWAP2 DIV MUL PUSH1 0x20 ADD PUSH1 0x40 MLOAD SWAP1 DUP2 ADD PUSH1 0x40 MSTORE DUP1 SWAP3 SWAP2 SWAP1 DUP2 DUP2 MSTORE PUSH1 0x20 ADD DUP3 DUP1 SLOAD PUSH2 0x1309 SWAP1 PUSH2 0x23B4 JUMP JUMPDEST DUP1 ISZERO PUSH2 0x1356 JUMPI DUP1 PUSH1 0x1F LT PUSH2 0x132B JUMPI PUSH2 0x100 DUP1 DUP4 SLOAD DIV MUL DUP4 MSTORE SWAP2 PUSH1 0x20 ADD SWAP2 PUSH2 0x1356 JUMP JUMPDEST DUP3 ADD SWAP2 SWAP1 PUSH1 0x0 MSTORE PUSH1 0x20 PUSH1 0x0 KECCAK256 SWAP1 JUMPDEST DUP2 SLOAD DUP2 MSTORE SWAP1 PUSH1 0x1 ADD SWAP1 PUSH1 0x20 ADD DUP1 DUP4 GT PUSH2 0x1339 JUMPI DUP3 SWAP1 SUB PUSH1 0x1F AND DUP3 ADD SWAP2 JUMPDEST POP POP POP POP POP DUP2 MSTORE PUSH1 0x20 ADD PUSH1 0x1 DUP3 ADD DUP1 SLOAD PUSH2 0x136F SWAP1 PUSH2 0x23B4 JUMP JUMPDEST DUP1 PUSH1 0x1F ADD PUSH1 0x20 DUP1 SWAP2 DIV MUL PUSH1 0x20 ADD PUSH1 0x40 MLOAD SWAP1 DUP2 ADD PUSH1 0x40 MSTORE DUP1 SWAP3 SWAP2 SWAP1 DUP2 DUP2 MSTORE PUSH1 0x20 ADD DUP3 DUP1 SLOAD PUSH2 0x139B SWAP1 PUSH2 0x23B4 JUMP JUMPDEST DUP1 ISZERO PUSH2 0x13E8 JUMPI DUP1 PUSH1 0x1F LT PUSH2 0x13BD JUMPI PUSH2 0x100 DUP1 DUP4 SLOAD DIV MUL DUP4 MSTORE SWAP2 PUSH1 0x20 ADD SWAP2 PUSH2 0x13E8 JUMP JUMPDEST DUP3 ADD SWAP2 SWAP1 PUSH1 0x0 MSTORE PUSH1 0x20 PUSH1 0x0 KECCAK256 SWAP1 JUMPDEST DUP2 SLOAD DUP2 MSTORE SWAP1 PUSH1 0x1 ADD SWAP1 PUSH1 0x20 ADD DUP1 DUP4 GT PUSH2 0x13CB JUMPI DUP3 SWAP1 SUB PUSH1 0x1F AND DUP3 ADD SWAP2 JUMPDEST POP POP POP POP POP DUP2 MSTORE PUSH1 0x20 ADD PUSH1 0x2 DUP3 ADD DUP1 SLOAD PUSH2 0x1401 SWAP1 PUSH2 0x23B4 JUMP JUMPDEST DUP1 PUSH1 0x1F ADD PUSH1 0x20 DUP1 SWAP2 DIV MUL PUSH1 0x20 ADD PUSH1 0x40 MLOAD SWAP1 DUP2 ADD PUSH1 0x40 MSTORE DUP1 SWAP3 SWAP2 SWAP1 DUP2 DUP2 MSTORE PUSH1 0x20 ADD DUP3 DUP1 SLOAD PUSH2 0x142D SWAP1 PUSH2 0x23B4 JUMP JUMPDEST DUP1 ISZERO PUSH2 0x147A JUMPI DUP1 PUSH1 0x1F LT PUSH2 0x144F JUMPI PUSH2 0x100 DUP1 DUP4 SLOAD DIV MUL DUP4 MSTORE SWAP2 PUSH1 0x20 ADD SWAP2 PUSH2 0x147A JUMP JUMPDEST DUP3 ADD SWAP2 SWAP1 PUSH1 0x0 MSTORE PUSH1 0x20 PUSH1 0x0 KECCAK256 SWAP1 JUMPDEST DUP2 SLOAD DUP2 MSTORE SWAP1 PUSH1 0x1 ADD SWAP1 PUSH1 0x20 ADD DUP1 DUP4 GT PUSH2 0x145D JUMPI DUP3 SWAP1 SUB PUSH1 0x1F AND DUP3 ADD SWAP2 JUMPDEST POP POP POP POP POP DUP2 MSTORE POP POP SWAP1 POP SWAP2 SWAP1 POP JUMP JUMPDEST PUSH1 0x2 PUSH1 0x0 DUP4 DUP2 MSTORE PUSH1 0x20 ADD SWAP1 DUP2 MSTORE PUSH1 0x20 ADD PUSH1 0x0 KECCAK256 PUSH1 0x2 ADD DUP2 SWAP1 DUP1 PUSH1 0x1 DUP2 SLOAD ADD DUP1 DUP3 SSTORE DUP1 SWAP2 POP POP PUSH1 0x1 SWAP1 SUB SWAP1 PUSH1 0x0 MSTORE PUSH1 0x20 PUSH1 0x0 KECCAK256 ADD PUSH1 0x0 SWAP1 SWAP2 SWAP1 SWAP2 SWAP1 SWAP2 PUSH2 0x100 EXP DUP2 SLOAD DUP2 PUSH20 0xFFFFFFFFFFFFFFFFFFFFFFFFFFFFFFFFFFFFFFFF MUL NOT AND SWAP1 DUP4 PUSH20 0xFFFFFFFFFFFFFFFFFFFFFFFFFFFFFFFFFFFFFFFF AND MUL OR SWAP1 SSTORE POP POP POP JUMP JUMPDEST PUSH1 0x3 DUP2 DUP2 SLOAD DUP2 LT PUSH2 0x1515 JUMPI PUSH1 0x0 DUP1 REVERT JUMPDEST SWAP1 PUSH1 0x0 MSTORE PUSH1 0x20 PUSH1 0x0 KECCAK256 ADD PUSH1 0x0 SWAP2 POP SLOAD SWAP1 PUSH2 0x100 EXP SWAP1 DIV PUSH20 0xFFFFFFFFFFFFFFFFFFFFFFFFFFFFFFFFFFFFFFFF AND DUP2 JUMP JUMPDEST PUSH1 0x60 PUSH1 0x2 PUSH1 0x0 DUP4 DUP2 MSTORE PUSH1 0x20 ADD SWAP1 DUP2 MSTORE PUSH1 0x20 ADD PUSH1 0x0 KECCAK256 PUSH1 0x2 ADD DUP1 SLOAD DUP1 PUSH1 0x20 MUL PUSH1 0x20 ADD PUSH1 0x40 MLOAD SWAP1 DUP2 ADD PUSH1 0x40 MSTORE DUP1 SWAP3 SWAP2 SWAP1 DUP2 DUP2 MSTORE PUSH1 0x20 ADD DUP3 DUP1 SLOAD DUP1 ISZERO PUSH2 0x15DC JUMPI PUSH1 0x20 MUL DUP3 ADD SWAP2 SWAP1 PUSH1 0x0 MSTORE PUSH1 0x20 PUSH1 0x0 KECCAK256 SWAP1 JUMPDEST DUP2 PUSH1 0x0 SWAP1 SLOAD SWAP1 PUSH2 0x100 EXP SWAP1 DIV PUSH20 0xFFFFFFFFFFFFFFFFFFFFFFFFFFFFFFFFFFFFFFFF AND PUSH20 0xFFFFFFFFFFFFFFFFFFFFFFFFFFFFFFFFFFFFFFFF AND DUP2 MSTORE PUSH1 0x20 ADD SWAP1 PUSH1 0x1 ADD SWAP1 DUP1 DUP4 GT PUSH2 0x1592 JUMPI JUMPDEST POP POP POP POP POP SWAP1 POP SWAP2 SWAP1 POP JUMP JUMPDEST PUSH1 0x0 PUSH1 0x3 DUP3 DUP2 SLOAD DUP2 LT PUSH2 0x15FE JUMPI PUSH2 0x15FD PUSH2 0x22DF JUMP JUMPDEST JUMPDEST SWAP1 PUSH1 0x0 MSTORE PUSH1 0x20 PUSH1 0x0 KECCAK256 ADD PUSH1 0x0 SWAP1 SLOAD SWAP1 PUSH2 0x100 EXP SWAP1 DIV PUSH20 0xFFFFFFFFFFFFFFFFFFFFFFFFFFFFFFFFFFFFFFFF AND SWAP1 POP SWAP2 SWAP1 POP JUMP JUMPDEST PUSH1 0x0 PUSH1 0x1 DUP3 PUSH1 0x0 SHR PUSH2 0x1642 SWAP2 SWAP1 PUSH2 0x280B JUMP JUMPDEST PUSH1 0x0 SHL SWAP1 POP SWAP2 SWAP1 POP JUMP JUMPDEST PUSH1 0x0 DUP1 PUSH1 0x2 PUSH1 0x0 DUP6 DUP2 MSTORE PUSH1 0x20 ADD SWAP1 DUP2 MSTORE PUSH1 0x20 ADD PUSH1 0x0 KECCAK256 SWAP1 POP PUSH1 0x0 JUMPDEST DUP2 PUSH1 0x2 ADD DUP1 SLOAD SWAP1 POP DUP2 LT ISZERO PUSH2 0x1707 JUMPI DUP4 PUSH20 0xFFFFFFFFFFFFFFFFFFFFFFFFFFFFFFFFFFFFFFFF AND DUP3 PUSH1 0x2 ADD DUP3 DUP2 SLOAD DUP2 LT PUSH2 0x16A3 JUMPI PUSH2 0x16A2 PUSH2 0x22DF JUMP JUMPDEST JUMPDEST SWAP1 PUSH1 0x0 MSTORE PUSH1 0x20 PUSH1 0x0 KECCAK256 ADD PUSH1 0x0 SWAP1 SLOAD SWAP1 PUSH2 0x100 EXP SWAP1 DIV PUSH20 0xFFFFFFFFFFFFFFFFFFFFFFFFFFFFFFFFFFFFFFFF AND PUSH20 0xFFFFFFFFFFFFFFFFFFFFFFFFFFFFFFFFFFFFFFFF AND SUB PUSH2 0x16F4 JUMPI PUSH1 0x1 SWAP3 POP POP POP PUSH2 0x170E JUMP JUMPDEST DUP1 DUP1 PUSH2 0x16FF SWAP1 PUSH2 0x233D JUMP JUMPDEST SWAP2 POP POP PUSH2 0x1667 JUMP JUMPDEST POP PUSH1 0x0 SWAP2 POP POP JUMPDEST SWAP3 SWAP2 POP POP JUMP JUMPDEST PUSH1 0x40 MLOAD DUP1 PUSH1 0x60 ADD PUSH1 0x40 MSTORE DUP1 PUSH1 0x60 DUP2 MSTORE PUSH1 0x20 ADD PUSH1 0x60 DUP2 MSTORE PUSH1 0x20 ADD PUSH1 0x60 DUP2 MSTORE POP SWAP1 JUMP JUMPDEST DUP3 DUP1 SLOAD DUP3 DUP3 SSTORE SWAP1 PUSH1 0x0 MSTORE PUSH1 0x20 PUSH1 0x0 KECCAK256 SWAP1 DUP2 ADD SWAP3 DUP3 ISZERO PUSH2 0x17AE JUMPI SWAP2 PUSH1 0x20 MUL DUP3 ADD JUMPDEST DUP3 DUP2 GT ISZERO PUSH2 0x17AD JUMPI DUP3 MLOAD DUP3 PUSH1 0x0 PUSH2 0x100 EXP DUP2 SLOAD DUP2 PUSH20 0xFFFFFFFFFFFFFFFFFFFFFFFFFFFFFFFFFFFFFFFF MUL NOT AND SWAP1 DUP4 PUSH20 0xFFFFFFFFFFFFFFFFFFFFFFFFFFFFFFFFFFFFFFFF AND MUL OR SWAP1 SSTORE POP SWAP2 PUSH1 0x20 ADD SWAP2 SWAP1 PUSH1 0x1 ADD SWAP1 PUSH2 0x1755 JUMP JUMPDEST JUMPDEST POP SWAP1 POP PUSH2 0x17BB SWAP2 SWAP1 PUSH2 0x17BF JUMP JUMPDEST POP SWAP1 JUMP JUMPDEST JUMPDEST DUP1 DUP3 GT ISZERO PUSH2 0x17D8 JUMPI PUSH1 0x0 DUP2 PUSH1 0x0 SWAP1 SSTORE POP PUSH1 0x1 ADD PUSH2 0x17C0 JUMP JUMPDEST POP SWAP1 JUMP JUMPDEST PUSH1 0x0 PUSH1 0x40 MLOAD SWAP1 POP SWAP1 JUMP JUMPDEST PUSH1 0x0 DUP1 REVERT JUMPDEST PUSH1 0x0 DUP1 REVERT JUMPDEST PUSH1 0x0 DUP1 REVERT JUMPDEST PUSH1 0x0 PUSH1 0x1F NOT PUSH1 0x1F DUP4 ADD AND SWAP1 POP SWAP2 SWAP1 POP JUMP JUMPDEST PUSH32 0x4E487B7100000000000000000000000000000000000000000000000000000000 PUSH1 0x0 MSTORE PUSH1 0x41 PUSH1 0x4 MSTORE PUSH1 0x24 PUSH1 0x0 REVERT JUMPDEST PUSH2 0x183E DUP3 PUSH2 0x17F5 JUMP JUMPDEST DUP2 ADD DUP2 DUP2 LT PUSH8 0xFFFFFFFFFFFFFFFF DUP3 GT OR ISZERO PUSH2 0x185D JUMPI PUSH2 0x185C PUSH2 0x1806 JUMP JUMPDEST JUMPDEST DUP1 PUSH1 0x40 MSTORE POP POP POP JUMP JUMPDEST PUSH1 0x0 PUSH2 0x1870 PUSH2 0x17DC JUMP JUMPDEST SWAP1 POP PUSH2 0x187C DUP3 DUP3 PUSH2 0x1835 JUMP JUMPDEST SWAP2 SWAP1 POP JUMP JUMPDEST PUSH1 0x0 PUSH8 0xFFFFFFFFFFFFFFFF DUP3 GT ISZERO PUSH2 0x189C JUMPI PUSH2 0x189B PUSH2 0x1806 JUMP JUMPDEST JUMPDEST PUSH1 0x20 DUP3 MUL SWAP1 POP PUSH1 0x20 DUP2 ADD SWAP1 POP SWAP2 SWAP1 POP JUMP JUMPDEST PUSH1 0x0 DUP1 REVERT JUMPDEST PUSH1 0x0 PUSH20 0xFFFFFFFFFFFFFFFFFFFFFFFFFFFFFFFFFFFFFFFF DUP3 AND SWAP1 POP SWAP2 SWAP1 POP JUMP JUMPDEST PUSH1 0x0 PUSH2 0x18DD DUP3 PUSH2 0x18B2 JUMP JUMPDEST SWAP1 POP SWAP2 SWAP1 POP JUMP JUMPDEST PUSH2 0x18ED DUP2 PUSH2 0x18D2 JUMP JUMPDEST DUP2 EQ PUSH2 0x18F8 JUMPI PUSH1 0x0 DUP1 REVERT JUMPDEST POP JUMP JUMPDEST PUSH1 0x0 DUP2 CALLDATALOAD SWAP1 POP PUSH2 0x190A DUP2 PUSH2 0x18E4 JUMP JUMPDEST SWAP3 SWAP2 POP POP JUMP JUMPDEST PUSH1 0x0 PUSH2 0x1923 PUSH2 0x191E DUP5 PUSH2 0x1881 JUMP JUMPDEST PUSH2 0x1866 JUMP JUMPDEST SWAP1 POP DUP1 DUP4 DUP3 MSTORE PUSH1 0x20 DUP3 ADD SWAP1 POP PUSH1 0x20 DUP5 MUL DUP4 ADD DUP6 DUP2 GT ISZERO PUSH2 0x1946 JUMPI PUSH2 0x1945 PUSH2 0x18AD JUMP JUMPDEST JUMPDEST DUP4 JUMPDEST DUP2 DUP2 LT ISZERO PUSH2 0x196F JUMPI DUP1 PUSH2 0x195B DUP9 DUP3 PUSH2 0x18FB JUMP JUMPDEST DUP5 MSTORE PUSH1 0x20 DUP5 ADD SWAP4 POP POP PUSH1 0x20 DUP2 ADD SWAP1 POP PUSH2 0x1948 JUMP JUMPDEST POP POP POP SWAP4 SWAP3 POP POP POP JUMP JUMPDEST PUSH1 0x0 DUP3 PUSH1 0x1F DUP4 ADD SLT PUSH2 0x198E JUMPI PUSH2 0x198D PUSH2 0x17F0 JUMP JUMPDEST JUMPDEST DUP2 CALLDATALOAD PUSH2 0x199E DUP5 DUP3 PUSH1 0x20 DUP7 ADD PUSH2 0x1910 JUMP JUMPDEST SWAP2 POP POP SWAP3 SWAP2 POP POP JUMP JUMPDEST PUSH1 0x0 DUP1 PUSH1 0x40 DUP4 DUP6 SUB SLT ISZERO PUSH2 0x19BE JUMPI PUSH2 0x19BD PUSH2 0x17E6 JUMP JUMPDEST JUMPDEST PUSH1 0x0 DUP4 ADD CALLDATALOAD PUSH8 0xFFFFFFFFFFFFFFFF DUP2 GT ISZERO PUSH2 0x19DC JUMPI PUSH2 0x19DB PUSH2 0x17EB JUMP JUMPDEST JUMPDEST PUSH2 0x19E8 DUP6 DUP3 DUP7 ADD PUSH2 0x1979 JUMP JUMPDEST SWAP3 POP POP PUSH1 0x20 PUSH2 0x19F9 DUP6 DUP3 DUP7 ADD PUSH2 0x18FB JUMP JUMPDEST SWAP2 POP POP SWAP3 POP SWAP3 SWAP1 POP JUMP JUMPDEST PUSH1 0x0 DUP2 SWAP1 POP SWAP2 SWAP1 POP JUMP JUMPDEST PUSH2 0x1A16 DUP2 PUSH2 0x1A03 JUMP JUMPDEST DUP3 MSTORE POP POP JUMP JUMPDEST PUSH1 0x0 PUSH1 0x20 DUP3 ADD SWAP1 POP PUSH2 0x1A31 PUSH1 0x0 DUP4 ADD DUP5 PUSH2 0x1A0D JUMP JUMPDEST SWAP3 SWAP2 POP POP JUMP JUMPDEST PUSH1 0x0 DUP1 REVERT JUMPDEST PUSH1 0x0 PUSH8 0xFFFFFFFFFFFFFFFF DUP3 GT ISZERO PUSH2 0x1A57 JUMPI PUSH2 0x1A56 PUSH2 0x1806 JUMP JUMPDEST JUMPDEST PUSH2 0x1A60 DUP3 PUSH2 0x17F5 JUMP JUMPDEST SWAP1 POP PUSH1 0x20 DUP2 ADD SWAP1 POP SWAP2 SWAP1 POP JUMP JUMPDEST DUP3 DUP2 DUP4 CALLDATACOPY PUSH1 0x0 DUP4 DUP4 ADD MSTORE POP POP POP JUMP JUMPDEST PUSH1 0x0 PUSH2 0x1A8F PUSH2 0x1A8A DUP5 PUSH2 0x1A3C JUMP JUMPDEST PUSH2 0x1866 JUMP JUMPDEST SWAP1 POP DUP3 DUP2 MSTORE PUSH1 0x20 DUP2 ADD DUP5 DUP5 DUP5 ADD GT ISZERO PUSH2 0x1AAB JUMPI PUSH2 0x1AAA PUSH2 0x1A37 JUMP JUMPDEST JUMPDEST PUSH2 0x1AB6 DUP5 DUP3 DUP6 PUSH2 0x1A6D JUMP JUMPDEST POP SWAP4 SWAP3 POP POP POP JUMP JUMPDEST PUSH1 0x0 DUP3 PUSH1 0x1F DUP4 ADD SLT PUSH2 0x1AD3 JUMPI PUSH2 0x1AD2 PUSH2 0x17F0 JUMP JUMPDEST JUMPDEST DUP2 CALLDATALOAD PUSH2 0x1AE3 DUP5 DUP3 PUSH1 0x20 DUP7 ADD PUSH2 0x1A7C JUMP JUMPDEST SWAP2 POP POP SWAP3 SWAP2 POP POP JUMP JUMPDEST PUSH1 0x0 DUP1 PUSH1 0x0 PUSH1 0x60 DUP5 DUP7 SUB SLT ISZERO PUSH2 0x1B05 JUMPI PUSH2 0x1B04 PUSH2 0x17E6 JUMP JUMPDEST JUMPDEST PUSH1 0x0 DUP5 ADD CALLDATALOAD PUSH8 0xFFFFFFFFFFFFFFFF DUP2 GT ISZERO PUSH2 0x1B23 JUMPI PUSH2 0x1B22 PUSH2 0x17EB JUMP JUMPDEST JUMPDEST PUSH2 0x1B2F DUP7 DUP3 DUP8 ADD PUSH2 0x1ABE JUMP JUMPDEST SWAP4 POP POP PUSH1 0x20 DUP5 ADD CALLDATALOAD PUSH8 0xFFFFFFFFFFFFFFFF DUP2 GT ISZERO PUSH2 0x1B50 JUMPI PUSH2 0x1B4F PUSH2 0x17EB JUMP JUMPDEST JUMPDEST PUSH2 0x1B5C DUP7 DUP3 DUP8 ADD PUSH2 0x1ABE JUMP JUMPDEST SWAP3 POP POP PUSH1 0x40 DUP5 ADD CALLDATALOAD PUSH8 0xFFFFFFFFFFFFFFFF DUP2 GT ISZERO PUSH2 0x1B7D JUMPI PUSH2 0x1B7C PUSH2 0x17EB JUMP JUMPDEST JUMPDEST PUSH2 0x1B89 DUP7 DUP3 DUP8 ADD PUSH2 0x1ABE JUMP JUMPDEST SWAP2 POP POP SWAP3 POP SWAP3 POP SWAP3 JUMP JUMPDEST PUSH1 0x0 DUP1 PUSH1 0x40 DUP4 DUP6 SUB SLT ISZERO PUSH2 0x1BAA JUMPI PUSH2 0x1BA9 PUSH2 0x17E6 JUMP JUMPDEST JUMPDEST PUSH1 0x0 DUP4 ADD CALLDATALOAD PUSH8 0xFFFFFFFFFFFFFFFF DUP2 GT ISZERO PUSH2 0x1BC8 JUMPI PUSH2 0x1BC7 PUSH2 0x17EB JUMP JUMPDEST JUMPDEST PUSH2 0x1BD4 DUP6 DUP3 DUP7 ADD PUSH2 0x1ABE JUMP JUMPDEST SWAP3 POP POP PUSH1 0x20 DUP4 ADD CALLDATALOAD PUSH8 0xFFFFFFFFFFFFFFFF DUP2 GT ISZERO PUSH2 0x1BF5 JUMPI PUSH2 0x1BF4 PUSH2 0x17EB JUMP JUMPDEST JUMPDEST PUSH2 0x1C01 DUP6 DUP3 DUP7 ADD PUSH2 0x1ABE JUMP JUMPDEST SWAP2 POP POP SWAP3 POP SWAP3 SWAP1 POP JUMP JUMPDEST PUSH1 0x0 DUP2 MLOAD SWAP1 POP SWAP2 SWAP1 POP JUMP JUMPDEST PUSH1 0x0 DUP3 DUP3 MSTORE PUSH1 0x20 DUP3 ADD SWAP1 POP SWAP3 SWAP2 POP POP JUMP JUMPDEST PUSH1 0x0 DUP2 SWAP1 POP PUSH1 0x20 DUP3 ADD SWAP1 POP SWAP2 SWAP1 POP JUMP JUMPDEST PUSH1 0x0 DUP2 MLOAD SWAP1 POP SWAP2 SWAP1 POP JUMP JUMPDEST PUSH1 0x0 DUP3 DUP3 MSTORE PUSH1 0x20 DUP3 ADD SWAP1 POP SWAP3 SWAP2 POP POP JUMP JUMPDEST PUSH1 0x0 JUMPDEST DUP4 DUP2 LT ISZERO PUSH2 0x1C71 JUMPI DUP1 DUP3 ADD MLOAD DUP2 DUP5 ADD MSTORE PUSH1 0x20 DUP2 ADD SWAP1 POP PUSH2 0x1C56 JUMP JUMPDEST PUSH1 0x0 DUP5 DUP5 ADD MSTORE POP POP POP POP JUMP JUMPDEST PUSH1 0x0 PUSH2 0x1C88 DUP3 PUSH2 0x1C37 JUMP JUMPDEST PUSH2 0x1C92 DUP2 DUP6 PUSH2 0x1C42 JUMP JUMPDEST SWAP4 POP PUSH2 0x1CA2 DUP2 DUP6 PUSH1 0x20 DUP7 ADD PUSH2 0x1C53 JUMP JUMPDEST PUSH2 0x1CAB DUP2 PUSH2 0x17F5 JUMP JUMPDEST DUP5 ADD SWAP2 POP POP SWAP3 SWAP2 POP POP JUMP JUMPDEST PUSH1 0x0 PUSH1 0x60 DUP4 ADD PUSH1 0x0 DUP4 ADD MLOAD DUP5 DUP3 SUB PUSH1 0x0 DUP7 ADD MSTORE PUSH2 0x1CD3 DUP3 DUP3 PUSH2 0x1C7D JUMP JUMPDEST SWAP2 POP POP PUSH1 0x20 DUP4 ADD MLOAD DUP5 DUP3 SUB PUSH1 0x20 DUP7 ADD MSTORE PUSH2 0x1CED DUP3 DUP3 PUSH2 0x1C7D JUMP JUMPDEST SWAP2 POP POP PUSH1 0x40 DUP4 ADD MLOAD DUP5 DUP3 SUB PUSH1 0x40 DUP7 ADD MSTORE PUSH2 0x1D07 DUP3 DUP3 PUSH2 0x1C7D JUMP JUMPDEST SWAP2 POP POP DUP1 SWAP2 POP POP SWAP3 SWAP2 POP POP JUMP JUMPDEST PUSH1 0x0 PUSH2 0x1D20 DUP4 DUP4 PUSH2 0x1CB6 JUMP JUMPDEST SWAP1 POP SWAP3 SWAP2 POP POP JUMP JUMPDEST PUSH1 0x0 PUSH1 0x20 DUP3 ADD SWAP1 POP SWAP2 SWAP1 POP JUMP JUMPDEST PUSH1 0x0 PUSH2 0x1D40 DUP3 PUSH2 0x1C0B JUMP JUMPDEST PUSH2 0x1D4A DUP2 DUP6 PUSH2 0x1C16 JUMP JUMPDEST SWAP4 POP DUP4 PUSH1 0x20 DUP3 MUL DUP6 ADD PUSH2 0x1D5C DUP6 PUSH2 0x1C27 JUMP JUMPDEST DUP1 PUSH1 0x0 JUMPDEST DUP6 DUP2 LT ISZERO PUSH2 0x1D98 JUMPI DUP5 DUP5 SUB DUP10 MSTORE DUP2 MLOAD PUSH2 0x1D79 DUP6 DUP3 PUSH2 0x1D14 JUMP JUMPDEST SWAP5 POP PUSH2 0x1D84 DUP4 PUSH2 0x1D28 JUMP JUMPDEST SWAP3 POP PUSH1 0x20 DUP11 ADD SWAP10 POP POP PUSH1 0x1 DUP2 ADD SWAP1 POP PUSH2 0x1D60 JUMP JUMPDEST POP DUP3 SWAP8 POP DUP8 SWAP6 POP POP POP POP POP POP SWAP3 SWAP2 POP POP JUMP JUMPDEST PUSH1 0x0 PUSH1 0x20 DUP3 ADD SWAP1 POP DUP2 DUP2 SUB PUSH1 0x0 DUP4 ADD MSTORE PUSH2 0x1DC4 DUP2 DUP5 PUSH2 0x1D35 JUMP JUMPDEST SWAP1 POP SWAP3 SWAP2 POP POP JUMP JUMPDEST PUSH2 0x1DD5 DUP2 PUSH2 0x1A03 JUMP JUMPDEST DUP2 EQ PUSH2 0x1DE0 JUMPI PUSH1 0x0 DUP1 REVERT JUMPDEST POP JUMP JUMPDEST PUSH1 0x0 DUP2 CALLDATALOAD SWAP1 POP PUSH2 0x1DF2 DUP2 PUSH2 0x1DCC JUMP JUMPDEST SWAP3 SWAP2 POP POP JUMP JUMPDEST PUSH1 0x0 DUP1 PUSH1 0x0 PUSH1 0x60 DUP5 DUP7 SUB SLT ISZERO PUSH2 0x1E11 JUMPI PUSH2 0x1E10 PUSH2 0x17E6 JUMP JUMPDEST JUMPDEST PUSH1 0x0 PUSH2 0x1E1F DUP7 DUP3 DUP8 ADD PUSH2 0x1DE3 JUMP JUMPDEST SWAP4 POP POP PUSH1 0x20 PUSH2 0x1E30 DUP7 DUP3 DUP8 ADD PUSH2 0x1DE3 JUMP JUMPDEST SWAP3 POP POP PUSH1 0x40 DUP5 ADD CALLDATALOAD PUSH8 0xFFFFFFFFFFFFFFFF DUP2 GT ISZERO PUSH2 0x1E51 JUMPI PUSH2 0x1E50 PUSH2 0x17EB JUMP JUMPDEST JUMPDEST PUSH2 0x1E5D DUP7 DUP3 DUP8 ADD PUSH2 0x1979 JUMP JUMPDEST SWAP2 POP POP SWAP3 POP SWAP3 POP SWAP3 JUMP JUMPDEST PUSH1 0x0 DUP2 ISZERO ISZERO SWAP1 POP SWAP2 SWAP1 POP JUMP JUMPDEST PUSH2 0x1E7C DUP2 PUSH2 0x1E67 JUMP JUMPDEST DUP3 MSTORE POP POP JUMP JUMPDEST PUSH1 0x0 PUSH1 0x20 DUP3 ADD SWAP1 POP PUSH2 0x1E97 PUSH1 0x0 DUP4 ADD DUP5 PUSH2 0x1E73 JUMP JUMPDEST SWAP3 SWAP2 POP POP JUMP JUMPDEST PUSH1 0x0 DUP2 SWAP1 POP SWAP2 SWAP1 POP JUMP JUMPDEST PUSH2 0x1EB0 DUP2 PUSH2 0x1E9D JUMP JUMPDEST DUP3 MSTORE POP POP JUMP JUMPDEST PUSH1 0x0 PUSH1 0x20 DUP3 ADD SWAP1 POP PUSH2 0x1ECB PUSH1 0x0 DUP4 ADD DUP5 PUSH2 0x1EA7 JUMP JUMPDEST SWAP3 SWAP2 POP POP JUMP JUMPDEST PUSH1 0x0 PUSH1 0x20 DUP3 DUP5 SUB SLT ISZERO PUSH2 0x1EE7 JUMPI PUSH2 0x1EE6 PUSH2 0x17E6 JUMP JUMPDEST JUMPDEST PUSH1 0x0 DUP3 ADD CALLDATALOAD PUSH8 0xFFFFFFFFFFFFFFFF DUP2 GT ISZERO PUSH2 0x1F05 JUMPI PUSH2 0x1F04 PUSH2 0x17EB JUMP JUMPDEST JUMPDEST PUSH2 0x1F11 DUP5 DUP3 DUP6 ADD PUSH2 0x1ABE JUMP JUMPDEST SWAP2 POP POP SWAP3 SWAP2 POP POP JUMP JUMPDEST PUSH2 0x1F23 DUP2 PUSH2 0x18D2 JUMP JUMPDEST DUP3 MSTORE POP POP JUMP JUMPDEST PUSH1 0x0 PUSH1 0x20 DUP3 ADD SWAP1 POP PUSH2 0x1F3E PUSH1 0x0 DUP4 ADD DUP5 PUSH2 0x1F1A JUMP JUMPDEST SWAP3 SWAP2 POP POP JUMP JUMPDEST PUSH2 0x1F4D DUP2 PUSH2 0x1E9D JUMP JUMPDEST DUP2 EQ PUSH2 0x1F58 JUMPI PUSH1 0x0 DUP1 REVERT JUMPDEST POP JUMP JUMPDEST PUSH1 0x0 DUP2 CALLDATALOAD SWAP1 POP PUSH2 0x1F6A DUP2 PUSH2 0x1F44 JUMP JUMPDEST SWAP3 SWAP2 POP POP JUMP JUMPDEST PUSH1 0x0 DUP1 PUSH1 0x40 DUP4 DUP6 SUB SLT ISZERO PUSH2 0x1F87 JUMPI PUSH2 0x1F86 PUSH2 0x17E6 JUMP JUMPDEST JUMPDEST PUSH1 0x0 PUSH2 0x1F95 DUP6 DUP3 DUP7 ADD PUSH2 0x1F5B JUMP JUMPDEST SWAP3 POP POP PUSH1 0x20 PUSH2 0x1FA6 DUP6 DUP3 DUP7 ADD PUSH2 0x18FB JUMP JUMPDEST SWAP2 POP POP SWAP3 POP SWAP3 SWAP1 POP JUMP JUMPDEST PUSH1 0x0 PUSH1 0x20 DUP3 DUP5 SUB SLT ISZERO PUSH2 0x1FC6 JUMPI PUSH2 0x1FC5 PUSH2 0x17E6 JUMP JUMPDEST JUMPDEST PUSH1 0x0 PUSH2 0x1FD4 DUP5 DUP3 DUP6 ADD PUSH2 0x1F5B JUMP JUMPDEST SWAP2 POP POP SWAP3 SWAP2 POP POP JUMP JUMPDEST PUSH1 0x0 DUP2 MLOAD SWAP1 POP SWAP2 SWAP1 POP JUMP JUMPDEST PUSH1 0x0 DUP3 DUP3 MSTORE PUSH1 0x20 DUP3 ADD SWAP1 POP SWAP3 SWAP2 POP POP JUMP JUMPDEST PUSH1 0x0 DUP2 SWAP1 POP PUSH1 0x20 DUP3 ADD SWAP1 POP SWAP2 SWAP1 POP JUMP JUMPDEST PUSH2 0x2012 DUP2 PUSH2 0x1A03 JUMP JUMPDEST DUP3 MSTORE POP POP JUMP JUMPDEST PUSH1 0x0 PUSH2 0x2024 DUP4 DUP4 PUSH2 0x2009 JUMP JUMPDEST PUSH1 0x20 DUP4 ADD SWAP1 POP SWAP3 SWAP2 POP POP JUMP JUMPDEST PUSH1 0x0 PUSH1 0x20 DUP3 ADD SWAP1 POP SWAP2 SWAP1 POP JUMP JUMPDEST PUSH1 0x0 PUSH2 0x2048 DUP3 PUSH2 0x1FDD JUMP JUMPDEST PUSH2 0x2052 DUP2 DUP6 PUSH2 0x1FE8 JUMP JUMPDEST SWAP4 POP PUSH2 0x205D DUP4 PUSH2 0x1FF9 JUMP JUMPDEST DUP1 PUSH1 0x0 JUMPDEST DUP4 DUP2 LT ISZERO PUSH2 0x208E JUMPI DUP2 MLOAD PUSH2 0x2075 DUP9 DUP3 PUSH2 0x2018 JUMP JUMPDEST SWAP8 POP PUSH2 0x2080 DUP4 PUSH2 0x2030 JUMP JUMPDEST SWAP3 POP POP PUSH1 0x1 DUP2 ADD SWAP1 POP PUSH2 0x2061 JUMP JUMPDEST POP DUP6 SWAP4 POP POP POP POP SWAP3 SWAP2 POP POP JUMP JUMPDEST PUSH1 0x0 PUSH1 0x40 DUP3 ADD SWAP1 POP DUP2 DUP2 SUB PUSH1 0x0 DUP4 ADD MSTORE PUSH2 0x20B5 DUP2 DUP6 PUSH2 0x1D35 JUMP JUMPDEST SWAP1 POP DUP2 DUP2 SUB PUSH1 0x20 DUP4 ADD MSTORE PUSH2 0x20C9 DUP2 DUP5 PUSH2 0x203D JUMP JUMPDEST SWAP1 POP SWAP4 SWAP3 POP POP POP JUMP JUMPDEST PUSH1 0x0 DUP1 PUSH1 0x0 PUSH1 0x60 DUP5 DUP7 SUB SLT ISZERO PUSH2 0x20EB JUMPI PUSH2 0x20EA PUSH2 0x17E6 JUMP JUMPDEST JUMPDEST PUSH1 0x0 PUSH2 0x20F9 DUP7 DUP3 DUP8 ADD PUSH2 0x1F5B JUMP JUMPDEST SWAP4 POP POP PUSH1 0x20 PUSH2 0x210A DUP7 DUP3 DUP8 ADD PUSH2 0x18FB JUMP JUMPDEST SWAP3 POP POP PUSH1 0x40 PUSH2 0x211B DUP7 DUP3 DUP8 ADD PUSH2 0x18FB JUMP JUMPDEST SWAP2 POP POP SWAP3 POP SWAP3 POP SWAP3 JUMP JUMPDEST PUSH1 0x0 PUSH1 0x20 DUP3 DUP5 SUB SLT ISZERO PUSH2 0x213B JUMPI PUSH2 0x213A PUSH2 0x17E6 JUMP JUMPDEST JUMPDEST PUSH1 0x0 PUSH2 0x2149 DUP5 DUP3 DUP6 ADD PUSH2 0x18FB JUMP JUMPDEST SWAP2 POP POP SWAP3 SWAP2 POP POP JUMP JUMPDEST PUSH1 0x0 PUSH1 0x60 DUP4 ADD PUSH1 0x0 DUP4 ADD MLOAD DUP5 DUP3 SUB PUSH1 0x0 DUP7 ADD MSTORE PUSH2 0x216F DUP3 DUP3 PUSH2 0x1C7D JUMP JUMPDEST SWAP2 POP POP PUSH1 0x20 DUP4 ADD MLOAD DUP5 DUP3 SUB PUSH1 0x20 DUP7 ADD MSTORE PUSH2 0x2189 DUP3 DUP3 PUSH2 0x1C7D JUMP JUMPDEST SWAP2 POP POP PUSH1 0x40 DUP4 ADD MLOAD DUP5 DUP3 SUB PUSH1 0x40 DUP7 ADD MSTORE PUSH2 0x21A3 DUP3 DUP3 PUSH2 0x1C7D JUMP JUMPDEST SWAP2 POP POP DUP1 SWAP2 POP POP SWAP3 SWAP2 POP POP JUMP JUMPDEST PUSH1 0x0 PUSH1 0x20 DUP3 ADD SWAP1 POP DUP2 DUP2 SUB PUSH1 0x0 DUP4 ADD MSTORE PUSH2 0x21CA DUP2 DUP5 PUSH2 0x2152 JUMP JUMPDEST SWAP1 POP SWAP3 SWAP2 POP POP JUMP JUMPDEST PUSH1 0x0 PUSH1 0x20 DUP3 DUP5 SUB SLT ISZERO PUSH2 0x21E8 JUMPI PUSH2 0x21E7 PUSH2 0x17E6 JUMP JUMPDEST JUMPDEST PUSH1 0x0 PUSH2 0x21F6 DUP5 DUP3 DUP6 ADD PUSH2 0x1DE3 JUMP JUMPDEST SWAP2 POP POP SWAP3 SWAP2 POP POP JUMP JUMPDEST PUSH1 0x0 DUP2 MLOAD SWAP1 POP SWAP2 SWAP1 POP JUMP JUMPDEST PUSH1 0x0 DUP3 DUP3 MSTORE PUSH1 0x20 DUP3 ADD SWAP1 POP SWAP3 SWAP2 POP POP JUMP JUMPDEST PUSH1 0x0 DUP2 SWAP1 POP PUSH1 0x20 DUP3 ADD SWAP1 POP SWAP2 SWAP1 POP JUMP JUMPDEST PUSH2 0x2234 DUP2 PUSH2 0x18D2 JUMP JUMPDEST DUP3 MSTORE POP POP JUMP JUMPDEST PUSH1 0x0 PUSH2 0x2246 DUP4 DUP4 PUSH2 0x222B JUMP JUMPDEST PUSH1 0x20 DUP4 ADD SWAP1 POP SWAP3 SWAP2 POP POP JUMP JUMPDEST PUSH1 0x0 PUSH1 0x20 DUP3 ADD SWAP1 POP SWAP2 SWAP1 POP JUMP JUMPDEST PUSH1 0x0 PUSH2 0x226A DUP3 PUSH2 0x21FF JUMP JUMPDEST PUSH2 0x2274 DUP2 DUP6 PUSH2 0x220A JUMP JUMPDEST SWAP4 POP PUSH2 0x227F DUP4 PUSH2 0x221B JUMP JUMPDEST DUP1 PUSH1 0x0 JUMPDEST DUP4 DUP2 LT ISZERO PUSH2 0x22B0 JUMPI DUP2 MLOAD PUSH2 0x2297 DUP9 DUP3 PUSH2 0x223A JUMP JUMPDEST SWAP8 POP PUSH2 0x22A2 DUP4 PUSH2 0x2252 JUMP JUMPDEST SWAP3 POP POP PUSH1 0x1 DUP2 ADD SWAP1 POP PUSH2 0x2283 JUMP JUMPDEST POP DUP6 SWAP4 POP POP POP POP SWAP3 SWAP2 POP POP JUMP JUMPDEST PUSH1 0x0 PUSH1 0x20 DUP3 ADD SWAP1 POP DUP2 DUP2 SUB PUSH1 0x0 DUP4 ADD MSTORE PUSH2 0x22D7 DUP2 DUP5 PUSH2 0x225F JUMP JUMPDEST SWAP1 POP SWAP3 SWAP2 POP POP JUMP JUMPDEST PUSH32 0x4E487B7100000000000000000000000000000000000000000000000000000000 PUSH1 0x0 MSTORE PUSH1 0x32 PUSH1 0x4 MSTORE PUSH1 0x24 PUSH1 0x0 REVERT JUMPDEST PUSH32 0x4E487B7100000000000000000000000000000000000000000000000000000000 PUSH1 0x0 MSTORE PUSH1 0x11 PUSH1 0x4 MSTORE PUSH1 0x24 PUSH1 0x0 REVERT JUMPDEST PUSH1 0x0 PUSH2 0x2348 DUP3 PUSH2 0x1A03 JUMP JUMPDEST SWAP2 POP PUSH32 0xFFFFFFFFFFFFFFFFFFFFFFFFFFFFFFFFFFFFFFFFFFFFFFFFFFFFFFFFFFFFFFFF DUP3 SUB PUSH2 0x237A JUMPI PUSH2 0x2379 PUSH2 0x230E JUMP JUMPDEST JUMPDEST PUSH1 0x1 DUP3 ADD SWAP1 POP SWAP2 SWAP1 POP JUMP JUMPDEST PUSH32 0x4E487B7100000000000000000000000000000000000000000000000000000000 PUSH1 0x0 MSTORE PUSH1 0x22 PUSH1 0x4 MSTORE PUSH1 0x24 PUSH1 0x0 REVERT JUMPDEST PUSH1 0x0 PUSH1 0x2 DUP3 DIV SWAP1 POP PUSH1 0x1 DUP3 AND DUP1 PUSH2 0x23CC JUMPI PUSH1 0x7F DUP3 AND SWAP2 POP JUMPDEST PUSH1 0x20 DUP3 LT DUP2 SUB PUSH2 0x23DF JUMPI PUSH2 0x23DE PUSH2 0x2385 JUMP JUMPDEST JUMPDEST POP SWAP2 SWAP1 POP JUMP JUMPDEST PUSH1 0x0 DUP2 SWAP1 POP DUP2 PUSH1 0x0 MSTORE PUSH1 0x20 PUSH1 0x0 KECCAK256 SWAP1 POP SWAP2 SWAP1 POP JUMP JUMPDEST PUSH1 0x0 PUSH1 0x20 PUSH1 0x1F DUP4 ADD DIV SWAP1 POP SWAP2 SWAP1 POP JUMP JUMPDEST PUSH1 0x0 DUP3 DUP3 SHL SWAP1 POP SWAP3 SWAP2 POP POP JUMP JUMPDEST PUSH1 0x0 PUSH1 0x8 DUP4 MUL PUSH2 0x2447 PUSH32 0xFFFFFFFFFFFFFFFFFFFFFFFFFFFFFFFFFFFFFFFFFFFFFFFFFFFFFFFFFFFFFFFF DUP3 PUSH2 0x240A JUMP JUMPDEST PUSH2 0x2451 DUP7 DUP4 PUSH2 0x240A JUMP JUMPDEST SWAP6 POP DUP1 NOT DUP5 AND SWAP4 POP DUP1 DUP7 AND DUP5 OR SWAP3 POP POP POP SWAP4 SWAP3 POP POP POP JUMP JUMPDEST PUSH1 0x0 DUP2 SWAP1 POP SWAP2 SWAP1 POP JUMP JUMPDEST PUSH1 0x0 PUSH2 0x248E PUSH2 0x2489 PUSH2 0x2484 DUP5 PUSH2 0x1A03 JUMP JUMPDEST PUSH2 0x2469 JUMP JUMPDEST PUSH2 0x1A03 JUMP JUMPDEST SWAP1 POP SWAP2 SWAP1 POP JUMP JUMPDEST PUSH1 0x0 DUP2 SWAP1 POP SWAP2 SWAP1 POP JUMP JUMPDEST PUSH2 0x24A8 DUP4 PUSH2 0x2473 JUMP JUMPDEST PUSH2 0x24BC PUSH2 0x24B4 DUP3 PUSH2 0x2495 JUMP JUMPDEST DUP5 DUP5 SLOAD PUSH2 0x2417 JUMP JUMPDEST DUP3 SSTORE POP POP POP POP JUMP JUMPDEST PUSH1 0x0 SWAP1 JUMP JUMPDEST PUSH2 0x24D1 PUSH2 0x24C4 JUMP JUMPDEST PUSH2 0x24DC DUP2 DUP5 DUP5 PUSH2 0x249F JUMP JUMPDEST POP POP POP JUMP JUMPDEST JUMPDEST DUP2 DUP2 LT ISZERO PUSH2 0x2500 JUMPI PUSH2 0x24F5 PUSH1 0x0 DUP3 PUSH2 0x24C9 JUMP JUMPDEST PUSH1 0x1 DUP2 ADD SWAP1 POP PUSH2 0x24E2 JUMP JUMPDEST POP POP JUMP JUMPDEST PUSH1 0x1F DUP3 GT ISZERO PUSH2 0x2545 JUMPI PUSH2 0x2516 DUP2 PUSH2 0x23E5 JUMP JUMPDEST PUSH2 0x251F DUP5 PUSH2 0x23FA JUMP JUMPDEST DUP2 ADD PUSH1 0x20 DUP6 LT ISZERO PUSH2 0x252E JUMPI DUP2 SWAP1 POP JUMPDEST PUSH2 0x2542 PUSH2 0x253A DUP6 PUSH2 0x23FA JUMP JUMPDEST DUP4 ADD DUP3 PUSH2 0x24E1 JUMP JUMPDEST POP POP JUMPDEST POP POP POP JUMP JUMPDEST PUSH1 0x0 DUP3 DUP3 SHR SWAP1 POP SWAP3 SWAP2 POP POP JUMP JUMPDEST PUSH1 0x0 PUSH2 0x2568 PUSH1 0x0 NOT DUP5 PUSH1 0x8 MUL PUSH2 0x254A JUMP JUMPDEST NOT DUP1 DUP4 AND SWAP2 POP POP SWAP3 SWAP2 POP POP JUMP JUMPDEST PUSH1 0x0 PUSH2 0x2581 DUP4 DUP4 PUSH2 0x2557 JUMP JUMPDEST SWAP2 POP DUP3 PUSH1 0x2 MUL DUP3 OR SWAP1 POP SWAP3 SWAP2 POP POP JUMP JUMPDEST PUSH2 0x259A DUP3 PUSH2 0x1C37 JUMP JUMPDEST PUSH8 0xFFFFFFFFFFFFFFFF DUP2 GT ISZERO PUSH2 0x25B3 JUMPI PUSH2 0x25B2 PUSH2 0x1806 JUMP JUMPDEST JUMPDEST PUSH2 0x25BD DUP3 SLOAD PUSH2 0x23B4 JUMP JUMPDEST PUSH2 0x25C8 DUP3 DUP3 DUP6 PUSH2 0x2504 JUMP JUMPDEST PUSH1 0x0 PUSH1 0x20 SWAP1 POP PUSH1 0x1F DUP4 GT PUSH1 0x1 DUP2 EQ PUSH2 0x25FB JUMPI PUSH1 0x0 DUP5 ISZERO PUSH2 0x25E9 JUMPI DUP3 DUP8 ADD MLOAD SWAP1 POP JUMPDEST PUSH2 0x25F3 DUP6 DUP3 PUSH2 0x2575 JUMP JUMPDEST DUP7 SSTORE POP PUSH2 0x265B JUMP JUMPDEST PUSH1 0x1F NOT DUP5 AND PUSH2 0x2609 DUP7 PUSH2 0x23E5 JUMP JUMPDEST PUSH1 0x0 JUMPDEST DUP3 DUP2 LT ISZERO PUSH2 0x2631 JUMPI DUP5 DUP10 ADD MLOAD DUP3 SSTORE PUSH1 0x1 DUP3 ADD SWAP2 POP PUSH1 0x20 DUP6 ADD SWAP5 POP PUSH1 0x20 DUP2 ADD SWAP1 POP PUSH2 0x260C JUMP JUMPDEST DUP7 DUP4 LT ISZERO PUSH2 0x264E JUMPI DUP5 DUP10 ADD MLOAD PUSH2 0x264A PUSH1 0x1F DUP10 AND DUP3 PUSH2 0x2557 JUMP JUMPDEST DUP4 SSTORE POP JUMPDEST PUSH1 0x1 PUSH1 0x2 DUP9 MUL ADD DUP9 SSTORE POP POP POP JUMPDEST POP POP POP POP POP POP JUMP JUMPDEST PUSH1 0x0 DUP2 SWAP1 POP SWAP3 SWAP2 POP POP JUMP JUMPDEST PUSH1 0x0 PUSH2 0x2679 DUP3 PUSH2 0x1C37 JUMP JUMPDEST PUSH2 0x2683 DUP2 DUP6 PUSH2 0x2663 JUMP JUMPDEST SWAP4 POP PUSH2 0x2693 DUP2 DUP6 PUSH1 0x20 DUP7 ADD PUSH2 0x1C53 JUMP JUMPDEST DUP1 DUP5 ADD SWAP2 POP POP SWAP3 SWAP2 POP POP JUMP JUMPDEST PUSH1 0x0 PUSH2 0x26AB DUP3 DUP5 PUSH2 0x266E JUMP JUMPDEST SWAP2 POP DUP2 SWAP1 POP SWAP3 SWAP2 POP POP JUMP JUMPDEST PUSH1 0x0 DUP3 DUP3 MSTORE PUSH1 0x20 DUP3 ADD SWAP1 POP SWAP3 SWAP2 POP POP JUMP JUMPDEST PUSH32 0x43616E646964617465206E6F7420666F756E6400000000000000000000000000 PUSH1 0x0 DUP3 ADD MSTORE POP JUMP JUMPDEST PUSH1 0x0 PUSH2 0x26FD PUSH1 0x13 DUP4 PUSH2 0x26B6 JUMP JUMPDEST SWAP2 POP PUSH2 0x2708 DUP3 PUSH2 0x26C7 JUMP JUMPDEST PUSH1 0x20 DUP3 ADD SWAP1 POP SWAP2 SWAP1 POP JUMP JUMPDEST PUSH1 0x0 PUSH1 0x20 DUP3 ADD SWAP1 POP DUP2 DUP2 SUB PUSH1 0x0 DUP4 ADD MSTORE PUSH2 0x272C DUP2 PUSH2 0x26F0 JUMP JUMPDEST SWAP1 POP SWAP2 SWAP1 POP JUMP JUMPDEST PUSH32 0x496E76616C69642063616E646964617465000000000000000000000000000000 PUSH1 0x0 DUP3 ADD MSTORE POP JUMP JUMPDEST PUSH1 0x0 PUSH2 0x2769 PUSH1 0x11 DUP4 PUSH2 0x26B6 JUMP JUMPDEST SWAP2 POP PUSH2 0x2774 DUP3 PUSH2 0x2733 JUMP JUMPDEST PUSH1 0x20 DUP3 ADD SWAP1 POP SWAP2 SWAP1 POP JUMP JUMPDEST PUSH1 0x0 PUSH1 0x20 DUP3 ADD SWAP1 POP DUP2 DUP2 SUB PUSH1 0x0 DUP4 ADD MSTORE PUSH2 0x2798 DUP2 PUSH2 0x275C JUMP JUMPDEST SWAP1 POP SWAP2 SWAP1 POP JUMP JUMPDEST PUSH32 0x5573657220566F74656400000000000000000000000000000000000000000000 PUSH1 0x0 DUP3 ADD MSTORE POP JUMP JUMPDEST PUSH1 0x0 PUSH2 0x27D5 PUSH1 0xA DUP4 PUSH2 0x26B6 JUMP JUMPDEST SWAP2 POP PUSH2 0x27E0 DUP3 PUSH2 0x279F JUMP JUMPDEST PUSH1 0x20 DUP3 ADD SWAP1 POP SWAP2 SWAP1 POP JUMP JUMPDEST PUSH1 0x0 PUSH1 0x20 DUP3 ADD SWAP1 POP DUP2 DUP2 SUB PUSH1 0x0 DUP4 ADD MSTORE PUSH2 0x2804 DUP2 PUSH2 0x27C8 JUMP JUMPDEST SWAP1 POP SWAP2 SWAP1 POP JUMP JUMPDEST PUSH1 0x0 PUSH2 0x2816 DUP3 PUSH2 0x1A03 JUMP JUMPDEST SWAP2 POP PUSH2 0x2821 DUP4 PUSH2 0x1A03 JUMP JUMPDEST SWAP3 POP DUP3 DUP3 ADD SWAP1 POP DUP1 DUP3 GT ISZERO PUSH2 0x2839 JUMPI PUSH2 0x2838 PUSH2 0x230E JUMP JUMPDEST JUMPDEST SWAP3 SWAP2 POP POP JUMP INVALID LOG2 PUSH5 0x6970667358 0x22 SLT KECCAK256 0xA5 PUSH16 0x4D34DE148FD5C56B8A5F4B517969D51A BALANCE SDIV 0xCF 0xB9 SDIV CODECOPY 0xEE SWAP16 LOG0 CALLCODE 0x2B 0x4A 0x29 JUMP PUSH5 0x736F6C6343 STOP ADDMOD SLT STOP CALLER "
				},
				"gasEstimates": {
					"creation": {
						"codeDepositCost": "2071400",
						"executionCost": "2200",
						"totalCost": "2073600"
					},
					"external": {
						"addCandidateToElection(bytes32,address)": "49335",
						"authenticate(string,string)": "infinite",
						"candidateAddresses(uint256)": "5022",
						"createElection(uint256,uint256,address[])": "infinite",
						"electionCounter()": "2518",
						"findCandidateIndexv3(address[],address)": "infinite",
						"getCandidate(address)": "infinite",
						"getCandidateAddress(uint256)": "5077",
						"getCandidateAddressesForElection(bytes32)": "infinite",
						"getCandidateByName(string)": "infinite",
						"getNumCandidates()": "infinite",
						"getResults()": "infinite",
						"getResultsFromElection(bytes32)": "infinite",
						"hasVoted(bytes32,address)": "3185",
						"register(string,string)": "infinite",
						"registerCandidate(string,string,string)": "infinite",
						"vote(bytes32,address,address)": "infinite"
					},
					"internal": {
						"incrementBytes32(bytes32)": "infinite",
						"isValidCandidate(bytes32,address)": "infinite"
					}
				},
				"methodIdentifiers": {
					"addCandidateToElection(bytes32,address)": "bad04632",
					"authenticate(string,string)": "544541b3",
					"candidateAddresses(uint256)": "d55d73c5",
					"createElection(uint256,uint256,address[])": "49cbceb3",
					"electionCounter()": "61e37417",
					"findCandidateIndexv3(address[],address)": "309fc1d4",
					"getCandidate(address)": "b7adcf1d",
					"getCandidateAddress(uint256)": "ee08ece5",
					"getCandidateAddressesForElection(bytes32)": "df6501ed",
					"getCandidateByName(string)": "7def7fe1",
					"getNumCandidates()": "5c06b06e",
					"getResults()": "4717f97c",
					"getResultsFromElection(bytes32)": "ae64399b",
					"hasVoted(bytes32,address)": "aadc3b72",
					"register(string,string)": "3ffbd47f",
					"registerCandidate(string,string,string)": "35c3c876",
					"vote(bytes32,address,address)": "b66409cf"
				}
			},
			"storageLayout": {
				"storage": [
					{
						"astId": 51,
						"contract": "contracts/App.sol:VotingSystem",
						"label": "voters",
						"offset": 0,
						"slot": "0",
						"type": "t_mapping(t_address,t_struct(Voter)10_storage)"
					},
					{
						"astId": 56,
						"contract": "contracts/App.sol:VotingSystem",
						"label": "candidates",
						"offset": 0,
						"slot": "1",
						"type": "t_mapping(t_address,t_struct(Candidate)17_storage)"
					},
					{
						"astId": 61,
						"contract": "contracts/App.sol:VotingSystem",
						"label": "elections",
						"offset": 0,
						"slot": "2",
						"type": "t_mapping(t_bytes32,t_struct(Election)41_storage)"
					},
					{
						"astId": 64,
						"contract": "contracts/App.sol:VotingSystem",
						"label": "candidateAddresses",
						"offset": 0,
						"slot": "3",
						"type": "t_array(t_address)dyn_storage"
					},
					{
						"astId": 66,
						"contract": "contracts/App.sol:VotingSystem",
						"label": "electionCounter",
						"offset": 0,
						"slot": "4",
						"type": "t_bytes32"
					}
				],
				"types": {
					"t_address": {
						"encoding": "inplace",
						"label": "address",
						"numberOfBytes": "20"
					},
					"t_array(t_address)dyn_storage": {
						"base": "t_address",
						"encoding": "dynamic_array",
						"label": "address[]",
						"numberOfBytes": "32"
					},
					"t_bool": {
						"encoding": "inplace",
						"label": "bool",
						"numberOfBytes": "1"
					},
					"t_bytes32": {
						"encoding": "inplace",
						"label": "bytes32",
						"numberOfBytes": "32"
					},
					"t_mapping(t_address,t_bool)": {
						"encoding": "mapping",
						"key": "t_address",
						"label": "mapping(address => bool)",
						"numberOfBytes": "32",
						"value": "t_bool"
					},
					"t_mapping(t_address,t_struct(Candidate)17_storage)": {
						"encoding": "mapping",
						"key": "t_address",
						"label": "mapping(address => struct VotingSystem.Candidate)",
						"numberOfBytes": "32",
						"value": "t_struct(Candidate)17_storage"
					},
					"t_mapping(t_address,t_struct(Voter)10_storage)": {
						"encoding": "mapping",
						"key": "t_address",
						"label": "mapping(address => struct VotingSystem.Voter)",
						"numberOfBytes": "32",
						"value": "t_struct(Voter)10_storage"
					},
					"t_mapping(t_address,t_uint256)": {
						"encoding": "mapping",
						"key": "t_address",
						"label": "mapping(address => uint256)",
						"numberOfBytes": "32",
						"value": "t_uint256"
					},
					"t_mapping(t_bytes32,t_struct(Election)41_storage)": {
						"encoding": "mapping",
						"key": "t_bytes32",
						"label": "mapping(bytes32 => struct VotingSystem.Election)",
						"numberOfBytes": "32",
						"value": "t_struct(Election)41_storage"
					},
					"t_string_storage": {
						"encoding": "bytes",
						"label": "string",
						"numberOfBytes": "32"
					},
					"t_struct(Candidate)17_storage": {
						"encoding": "inplace",
						"label": "struct VotingSystem.Candidate",
						"members": [
							{
								"astId": 12,
								"contract": "contracts/App.sol:VotingSystem",
								"label": "name",
								"offset": 0,
								"slot": "0",
								"type": "t_string_storage"
							},
							{
								"astId": 14,
								"contract": "contracts/App.sol:VotingSystem",
								"label": "party",
								"offset": 0,
								"slot": "1",
								"type": "t_string_storage"
							},
							{
								"astId": 16,
								"contract": "contracts/App.sol:VotingSystem",
								"label": "campaignMessage",
								"offset": 0,
								"slot": "2",
								"type": "t_string_storage"
							}
						],
						"numberOfBytes": "96"
					},
					"t_struct(Election)41_storage": {
						"encoding": "inplace",
						"label": "struct VotingSystem.Election",
						"members": [
							{
								"astId": 24,
								"contract": "contracts/App.sol:VotingSystem",
								"label": "startDate",
								"offset": 0,
								"slot": "0",
								"type": "t_uint256"
							},
							{
								"astId": 26,
								"contract": "contracts/App.sol:VotingSystem",
								"label": "endDate",
								"offset": 0,
								"slot": "1",
								"type": "t_uint256"
							},
							{
								"astId": 29,
								"contract": "contracts/App.sol:VotingSystem",
								"label": "candidateAddresses",
								"offset": 0,
								"slot": "2",
								"type": "t_array(t_address)dyn_storage"
							},
							{
								"astId": 32,
								"contract": "contracts/App.sol:VotingSystem",
								"label": "voterAddresses",
								"offset": 0,
								"slot": "3",
								"type": "t_array(t_address)dyn_storage"
							},
							{
								"astId": 36,
								"contract": "contracts/App.sol:VotingSystem",
								"label": "voteCount",
								"offset": 0,
								"slot": "4",
								"type": "t_mapping(t_address,t_uint256)"
							},
							{
								"astId": 40,
								"contract": "contracts/App.sol:VotingSystem",
								"label": "hasVoted",
								"offset": 0,
								"slot": "5",
								"type": "t_mapping(t_address,t_bool)"
							}
						],
						"numberOfBytes": "192"
					},
					"t_struct(Voter)10_storage": {
						"encoding": "inplace",
						"label": "struct VotingSystem.Voter",
						"members": [
							{
								"astId": 7,
								"contract": "contracts/App.sol:VotingSystem",
								"label": "username",
								"offset": 0,
								"slot": "0",
								"type": "t_string_storage"
							},
							{
								"astId": 9,
								"contract": "contracts/App.sol:VotingSystem",
								"label": "password",
								"offset": 0,
								"slot": "1",
								"type": "t_string_storage"
							}
						],
						"numberOfBytes": "64"
					},
					"t_uint256": {
						"encoding": "inplace",
						"label": "uint256",
						"numberOfBytes": "32"
					}
				}
			},
			"userdoc": {
				"kind": "user",
				"methods": {},
				"version": 1
			}
		}
	}
}